{
  "_format": "hh-sol-artifact-1",
  "contractName": "MessageMeNFT_Old",
  "sourceName": "contracts/MessageNFTCleaner.sol",
  "abi": [
    {
      "inputs": [],
      "stateMutability": "nonpayable",
      "type": "constructor"
    },
    {
      "anonymous": false,
      "inputs": [
        {
          "indexed": true,
          "internalType": "address",
          "name": "owner",
          "type": "address"
        },
        {
          "indexed": true,
          "internalType": "address",
          "name": "approved",
          "type": "address"
        },
        {
          "indexed": true,
          "internalType": "uint256",
          "name": "tokenId",
          "type": "uint256"
        }
      ],
      "name": "Approval",
      "type": "event"
    },
    {
      "anonymous": false,
      "inputs": [
        {
          "indexed": true,
          "internalType": "address",
          "name": "owner",
          "type": "address"
        },
        {
          "indexed": true,
          "internalType": "address",
          "name": "operator",
          "type": "address"
        },
        {
          "indexed": false,
          "internalType": "bool",
          "name": "approved",
          "type": "bool"
        }
      ],
      "name": "ApprovalForAll",
      "type": "event"
    },
    {
      "anonymous": false,
      "inputs": [
        {
          "indexed": true,
          "internalType": "address",
          "name": "previousOwner",
          "type": "address"
        },
        {
          "indexed": true,
          "internalType": "address",
          "name": "newOwner",
          "type": "address"
        }
      ],
      "name": "OwnershipTransferred",
      "type": "event"
    },
    {
      "anonymous": false,
      "inputs": [
        {
          "indexed": true,
          "internalType": "address",
          "name": "from",
          "type": "address"
        },
        {
          "indexed": true,
          "internalType": "address",
          "name": "to",
          "type": "address"
        },
        {
          "indexed": true,
          "internalType": "uint256",
          "name": "tokenId",
          "type": "uint256"
        }
      ],
      "name": "Transfer",
      "type": "event"
    },
    {
      "inputs": [
        {
          "internalType": "address",
          "name": "",
          "type": "address"
        }
      ],
      "name": "allLedgers",
      "outputs": [
        {
          "internalType": "bool",
          "name": "claimed",
          "type": "bool"
        },
        {
          "internalType": "bool",
          "name": "isPayable",
          "type": "bool"
        },
        {
          "internalType": "uint256",
          "name": "writePrice",
          "type": "uint256"
        },
        {
          "internalType": "bool",
          "name": "writeActive",
          "type": "bool"
        },
        {
          "internalType": "string",
          "name": "header",
          "type": "string"
        },
        {
          "internalType": "uint256",
          "name": "writeIndex",
          "type": "uint256"
        }
      ],
      "stateMutability": "view",
      "type": "function"
    },
    {
      "inputs": [
        {
          "internalType": "address",
          "name": "to",
          "type": "address"
        },
        {
          "internalType": "uint256",
          "name": "tokenId",
          "type": "uint256"
        }
      ],
      "name": "approve",
      "outputs": [],
      "stateMutability": "nonpayable",
      "type": "function"
    },
    {
      "inputs": [
        {
          "internalType": "address",
          "name": "owner",
          "type": "address"
        }
      ],
      "name": "balanceOf",
      "outputs": [
        {
          "internalType": "uint256",
          "name": "",
          "type": "uint256"
        }
      ],
      "stateMutability": "view",
      "type": "function"
    },
    {
      "inputs": [],
      "name": "claimToken",
      "outputs": [],
      "stateMutability": "nonpayable",
      "type": "function"
    },
    {
      "inputs": [
        {
          "internalType": "uint256",
          "name": "tokenId",
          "type": "uint256"
        }
      ],
      "name": "getApproved",
      "outputs": [
        {
          "internalType": "address",
          "name": "",
          "type": "address"
        }
      ],
      "stateMutability": "view",
      "type": "function"
    },
    {
      "inputs": [
        {
          "internalType": "address",
          "name": "owner",
          "type": "address"
        },
        {
          "internalType": "address",
          "name": "operator",
          "type": "address"
        }
      ],
      "name": "isApprovedForAll",
      "outputs": [
        {
          "internalType": "bool",
          "name": "",
          "type": "bool"
        }
      ],
      "stateMutability": "view",
      "type": "function"
    },
    {
      "inputs": [],
      "name": "name",
      "outputs": [
        {
          "internalType": "string",
          "name": "",
          "type": "string"
        }
      ],
      "stateMutability": "view",
      "type": "function"
    },
    {
      "inputs": [],
      "name": "owner",
      "outputs": [
        {
          "internalType": "address",
          "name": "",
          "type": "address"
        }
      ],
      "stateMutability": "view",
      "type": "function"
    },
    {
      "inputs": [
        {
          "internalType": "uint256",
          "name": "tokenId",
          "type": "uint256"
        }
      ],
      "name": "ownerOf",
      "outputs": [
        {
          "internalType": "address",
          "name": "",
          "type": "address"
        }
      ],
      "stateMutability": "view",
      "type": "function"
    },
    {
      "inputs": [],
      "name": "removeWritePrice",
      "outputs": [],
      "stateMutability": "nonpayable",
      "type": "function"
    },
    {
      "inputs": [],
      "name": "renounceOwnership",
      "outputs": [],
      "stateMutability": "nonpayable",
      "type": "function"
    },
    {
      "inputs": [
        {
          "internalType": "address",
          "name": "from",
          "type": "address"
        },
        {
          "internalType": "address",
          "name": "to",
          "type": "address"
        },
        {
          "internalType": "uint256",
          "name": "tokenId",
          "type": "uint256"
        }
      ],
      "name": "safeTransferFrom",
      "outputs": [],
      "stateMutability": "nonpayable",
      "type": "function"
    },
    {
      "inputs": [
        {
          "internalType": "address",
          "name": "from",
          "type": "address"
        },
        {
          "internalType": "address",
          "name": "to",
          "type": "address"
        },
        {
          "internalType": "uint256",
          "name": "tokenId",
          "type": "uint256"
        },
        {
          "internalType": "bytes",
          "name": "_data",
          "type": "bytes"
        }
      ],
      "name": "safeTransferFrom",
      "outputs": [],
      "stateMutability": "nonpayable",
      "type": "function"
    },
    {
      "inputs": [
        {
          "internalType": "address",
          "name": "operator",
          "type": "address"
        },
        {
          "internalType": "bool",
          "name": "approved",
          "type": "bool"
        }
      ],
      "name": "setApprovalForAll",
      "outputs": [],
      "stateMutability": "nonpayable",
      "type": "function"
    },
    {
      "inputs": [
        {
          "internalType": "uint256",
          "name": "writePrice",
          "type": "uint256"
        }
      ],
      "name": "setWritePrice",
      "outputs": [],
      "stateMutability": "nonpayable",
      "type": "function"
    },
    {
      "inputs": [
        {
          "internalType": "bytes4",
          "name": "interfaceId",
          "type": "bytes4"
        }
      ],
      "name": "supportsInterface",
      "outputs": [
        {
          "internalType": "bool",
          "name": "",
          "type": "bool"
        }
      ],
      "stateMutability": "view",
      "type": "function"
    },
    {
      "inputs": [],
      "name": "symbol",
      "outputs": [
        {
          "internalType": "string",
          "name": "",
          "type": "string"
        }
      ],
      "stateMutability": "view",
      "type": "function"
    },
    {
      "inputs": [
        {
          "internalType": "uint256",
          "name": "index",
          "type": "uint256"
        }
      ],
      "name": "tokenByIndex",
      "outputs": [
        {
          "internalType": "uint256",
          "name": "",
          "type": "uint256"
        }
      ],
      "stateMutability": "view",
      "type": "function"
    },
    {
      "inputs": [
        {
          "internalType": "address",
          "name": "owner",
          "type": "address"
        },
        {
          "internalType": "uint256",
          "name": "index",
          "type": "uint256"
        }
      ],
      "name": "tokenOfOwnerByIndex",
      "outputs": [
        {
          "internalType": "uint256",
          "name": "",
          "type": "uint256"
        }
      ],
      "stateMutability": "view",
      "type": "function"
    },
    {
      "inputs": [
        {
          "internalType": "uint256",
          "name": "tokenId",
          "type": "uint256"
        }
      ],
      "name": "tokenURI",
      "outputs": [
        {
          "internalType": "string",
          "name": "",
          "type": "string"
        }
      ],
      "stateMutability": "view",
      "type": "function"
    },
    {
      "inputs": [
        {
          "internalType": "uint256",
          "name": "",
          "type": "uint256"
        }
      ],
      "name": "tokensToAddress",
      "outputs": [
        {
          "internalType": "address",
          "name": "",
          "type": "address"
        }
      ],
      "stateMutability": "view",
      "type": "function"
    },
    {
      "inputs": [],
      "name": "totalSupply",
      "outputs": [
        {
          "internalType": "uint256",
          "name": "",
          "type": "uint256"
        }
      ],
      "stateMutability": "view",
      "type": "function"
    },
    {
      "inputs": [
        {
          "internalType": "address",
          "name": "from",
          "type": "address"
        },
        {
          "internalType": "address",
          "name": "to",
          "type": "address"
        },
        {
          "internalType": "uint256",
          "name": "tokenId",
          "type": "uint256"
        }
      ],
      "name": "transferFrom",
      "outputs": [],
      "stateMutability": "nonpayable",
      "type": "function"
    },
    {
      "inputs": [
        {
          "internalType": "address",
          "name": "newOwner",
          "type": "address"
        }
      ],
      "name": "transferOwnership",
      "outputs": [],
      "stateMutability": "nonpayable",
      "type": "function"
    },
    {
      "inputs": [
        {
          "internalType": "address",
          "name": "userAddress",
          "type": "address"
        },
        {
          "internalType": "string",
          "name": "message",
          "type": "string"
        }
      ],
      "name": "writeFree",
      "outputs": [],
      "stateMutability": "nonpayable",
      "type": "function"
    },
    {
      "inputs": [
        {
          "internalType": "address",
          "name": "userAddress",
          "type": "address"
        },
        {
          "internalType": "string",
          "name": "message",
          "type": "string"
        }
      ],
      "name": "writePayable",
      "outputs": [],
      "stateMutability": "payable",
      "type": "function"
    }
  ],
  "bytecode": "0x60806040523480156200001157600080fd5b506040518060400160405280600981526020017f4d6573736167654d6500000000000000000000000000000000000000000000008152506040518060400160405280600381526020017f4d534700000000000000000000000000000000000000000000000000000000008152506200009e62000092620000d860201b60201c565b620000e060201b60201c565b8160019080519060200190620000b6929190620001a4565b508060029080519060200190620000cf929190620001a4565b505050620002b9565b600033905090565b60008060009054906101000a900473ffffffffffffffffffffffffffffffffffffffff169050816000806101000a81548173ffffffffffffffffffffffffffffffffffffffff021916908373ffffffffffffffffffffffffffffffffffffffff1602179055508173ffffffffffffffffffffffffffffffffffffffff168173ffffffffffffffffffffffffffffffffffffffff167f8be0079c531659141344cd1fd0a4f28419497f9722a3daafe3b4186f6b6457e060405160405180910390a35050565b828054620001b29062000254565b90600052602060002090601f016020900481019282620001d6576000855562000222565b82601f10620001f157805160ff191683800117855562000222565b8280016001018555821562000222579182015b828111156200022157825182559160200191906001019062000204565b5b50905062000231919062000235565b5090565b5b808211156200025057600081600090555060010162000236565b5090565b600060028204905060018216806200026d57607f821691505b602082108114156200028457620002836200028a565b5b50919050565b7f4e487b7100000000000000000000000000000000000000000000000000000000600052602260045260246000fd5b61512780620002c96000396000f3fe6080604052600436106101815760003560e01c80636352211e116100d1578063ab1392d41161008a578063d754e7ec11610064578063d754e7ec1461057e578063e985e9c5146105c0578063f2fde38b146105fd578063f645ad0a1461062657610181565b8063ab1392d4146104ef578063b88d4fde14610518578063c87b56dd1461054157610181565b80636352211e146103df57806370a082311461041c578063715018a6146104595780638da5cb5b1461047057806395d89b411461049b578063a22cb465146104c657610181565b806318160ddd1161013e578063392ee79d11610118578063392ee79d1461033957806342842e0e146103625780634451d89f1461038b5780634f6ccce7146103a257610181565b806318160ddd146102a857806323b872dd146102d35780632f745c59146102fc57610181565b806301ffc9a71461018657806305435fb1146101c35780630668dcaa146101da57806306fdde0314610217578063081812fc14610242578063095ea7b31461027f575b600080fd5b34801561019257600080fd5b506101ad60048036038101906101a89190613cda565b610642565b6040516101ba91906143b6565b60405180910390f35b3480156101cf57600080fd5b506101d8610654565b005b3480156101e657600080fd5b5061020160048036038101906101fc9190613d6d565b6106b1565b60405161020e919061434f565b60405180910390f35b34801561022357600080fd5b5061022c6106e4565b6040516102399190614439565b60405180910390f35b34801561024e57600080fd5b5061026960048036038101906102649190613d6d565b610776565b604051610276919061434f565b60405180910390f35b34801561028b57600080fd5b506102a660048036038101906102a19190613c9e565b6107fb565b005b3480156102b457600080fd5b506102bd610913565b6040516102ca919061469b565b60405180910390f35b3480156102df57600080fd5b506102fa60048036038101906102f59190613b40565b610920565b005b34801561030857600080fd5b50610323600480360381019061031e9190613c9e565b610980565b604051610330919061469b565b60405180910390f35b34801561034557600080fd5b50610360600480360381019061035b9190613d6d565b610a25565b005b34801561036e57600080fd5b5061038960048036038101906103849190613b40565b610aca565b005b34801561039757600080fd5b506103a0610aea565b005b3480156103ae57600080fd5b506103c960048036038101906103c49190613d6d565b610dd2565b6040516103d6919061469b565b60405180910390f35b3480156103eb57600080fd5b5061040660048036038101906104019190613d6d565b610e69565b604051610413919061434f565b60405180910390f35b34801561042857600080fd5b50610443600480360381019061043e9190613adb565b610f1b565b604051610450919061469b565b60405180910390f35b34801561046557600080fd5b5061046e610fd3565b005b34801561047c57600080fd5b5061048561105b565b604051610492919061434f565b60405180910390f35b3480156104a757600080fd5b506104b0611084565b6040516104bd9190614439565b60405180910390f35b3480156104d257600080fd5b506104ed60048036038101906104e89190613c0a565b611116565b005b3480156104fb57600080fd5b5061051660048036038101906105119190613c46565b611297565b005b34801561052457600080fd5b5061053f600480360381019061053a9190613b8f565b6115a3565b005b34801561054d57600080fd5b5061056860048036038101906105639190613d6d565b611605565b6040516105759190614439565b60405180910390f35b34801561058a57600080fd5b506105a560048036038101906105a09190613adb565b612190565b6040516105b7969594939291906143d1565b60405180910390f35b3480156105cc57600080fd5b506105e760048036038101906105e29190613b04565b61227b565b6040516105f491906143b6565b60405180910390f35b34801561060957600080fd5b50610624600480360381019061061f9190613adb565b61230f565b005b610640600480360381019061063b9190613c46565b612407565b005b600061064d82612708565b9050919050565b6000600c60003373ffffffffffffffffffffffffffffffffffffffff1673ffffffffffffffffffffffffffffffffffffffff16815260200190815260200160002060000160016101000a81548160ff021916908315150217905550565b600d6020528060005260406000206000915054906101000a900473ffffffffffffffffffffffffffffffffffffffff1681565b6060600180546106f390614960565b80601f016020809104026020016040519081016040528092919081815260200182805461071f90614960565b801561076c5780601f106107415761010080835404028352916020019161076c565b820191906000526020600020905b81548152906001019060200180831161074f57829003601f168201915b5050505050905090565b600061078182612782565b6107c0576040517f08c379a00000000000000000000000000000000000000000000000000000000081526004016107b7906145bb565b60405180910390fd5b6005600083815260200190815260200160002060009054906101000a900473ffffffffffffffffffffffffffffffffffffffff169050919050565b600061080682610e69565b90508073ffffffffffffffffffffffffffffffffffffffff168373ffffffffffffffffffffffffffffffffffffffff161415610877576040517f08c379a000000000000000000000000000000000000000000000000000000000815260040161086e9061461b565b60405180910390fd5b8073ffffffffffffffffffffffffffffffffffffffff166108966127ee565b73ffffffffffffffffffffffffffffffffffffffff1614806108c557506108c4816108bf6127ee565b61227b565b5b610904576040517f08c379a00000000000000000000000000000000000000000000000000000000081526004016108fb9061455b565b60405180910390fd5b61090e83836127f6565b505050565b6000600980549050905090565b61093161092b6127ee565b826128af565b610970576040517f08c379a00000000000000000000000000000000000000000000000000000000081526004016109679061463b565b60405180910390fd5b61097b83838361298d565b505050565b600061098b83610f1b565b82106109cc576040517f08c379a00000000000000000000000000000000000000000000000000000000081526004016109c39061447b565b60405180910390fd5b600760008473ffffffffffffffffffffffffffffffffffffffff1673ffffffffffffffffffffffffffffffffffffffff168152602001908152602001600020600083815260200190815260200160002054905092915050565b6001600c60003373ffffffffffffffffffffffffffffffffffffffff1673ffffffffffffffffffffffffffffffffffffffff16815260200190815260200160002060000160016101000a81548160ff02191690831515021790555080600c60003373ffffffffffffffffffffffffffffffffffffffff1673ffffffffffffffffffffffffffffffffffffffff1681526020019081526020016000206001018190555050565b610ae5838383604051806020016040528060008152506115a3565b505050565b60001515600c60003373ffffffffffffffffffffffffffffffffffffffff1673ffffffffffffffffffffffffffffffffffffffff16815260200190815260200160002060000160009054906101000a900460ff16151514610b80576040517f08c379a0000000000000000000000000000000000000000000000000000000008152600401610b77906144db565b60405180910390fd5b610b8a600b612be9565b6000610b96600b612bff565b905033600d600083815260200190815260200160002060006101000a81548173ffffffffffffffffffffffffffffffffffffffff021916908373ffffffffffffffffffffffffffffffffffffffff1602179055506001600c60003373ffffffffffffffffffffffffffffffffffffffff1673ffffffffffffffffffffffffffffffffffffffff16815260200190815260200160002060000160006101000a81548160ff0219169083151502179055506001600c60003373ffffffffffffffffffffffffffffffffffffffff1673ffffffffffffffffffffffffffffffffffffffff16815260200190815260200160002060020160006101000a81548160ff0219169083151502179055506000600c60003373ffffffffffffffffffffffffffffffffffffffff1673ffffffffffffffffffffffffffffffffffffffff16815260200190815260200160002060000160016101000a81548160ff0219169083151502179055506040518060400160405280601381526020017f697473206e69636520746f2073656520796f7500000000000000000000000000815250600c60003373ffffffffffffffffffffffffffffffffffffffff1673ffffffffffffffffffffffffffffffffffffffff1681526020019081526020016000206003019080519060200190610d8692919061382f565b506000600c60003373ffffffffffffffffffffffffffffffffffffffff1673ffffffffffffffffffffffffffffffffffffffff168152602001908152602001600020600f018190555050565b6000610ddc610913565b8210610e1d576040517f08c379a0000000000000000000000000000000000000000000000000000000008152600401610e149061465b565b60405180910390fd5b60098281548110610e57577f4e487b7100000000000000000000000000000000000000000000000000000000600052603260045260246000fd5b90600052602060002001549050919050565b6000806003600084815260200190815260200160002060009054906101000a900473ffffffffffffffffffffffffffffffffffffffff169050600073ffffffffffffffffffffffffffffffffffffffff168173ffffffffffffffffffffffffffffffffffffffff161415610f12576040517f08c379a0000000000000000000000000000000000000000000000000000000008152600401610f099061459b565b60405180910390fd5b80915050919050565b60008073ffffffffffffffffffffffffffffffffffffffff168273ffffffffffffffffffffffffffffffffffffffff161415610f8c576040517f08c379a0000000000000000000000000000000000000000000000000000000008152600401610f839061457b565b60405180910390fd5b600460008373ffffffffffffffffffffffffffffffffffffffff1673ffffffffffffffffffffffffffffffffffffffff168152602001908152602001600020549050919050565b610fdb6127ee565b73ffffffffffffffffffffffffffffffffffffffff16610ff961105b565b73ffffffffffffffffffffffffffffffffffffffff161461104f576040517f08c379a0000000000000000000000000000000000000000000000000000000008152600401611046906145db565b60405180910390fd5b6110596000612c0d565b565b60008060009054906101000a900473ffffffffffffffffffffffffffffffffffffffff16905090565b60606002805461109390614960565b80601f01602080910402602001604051908101604052809291908181526020018280546110bf90614960565b801561110c5780601f106110e15761010080835404028352916020019161110c565b820191906000526020600020905b8154815290600101906020018083116110ef57829003601f168201915b5050505050905090565b61111e6127ee565b73ffffffffffffffffffffffffffffffffffffffff168273ffffffffffffffffffffffffffffffffffffffff16141561118c576040517f08c379a00000000000000000000000000000000000000000000000000000000081526004016111839061451b565b60405180910390fd5b80600660006111996127ee565b73ffffffffffffffffffffffffffffffffffffffff1673ffffffffffffffffffffffffffffffffffffffff16815260200190815260200160002060008473ffffffffffffffffffffffffffffffffffffffff1673ffffffffffffffffffffffffffffffffffffffff16815260200190815260200160002060006101000a81548160ff0219169083151502179055508173ffffffffffffffffffffffffffffffffffffffff166112466127ee565b73ffffffffffffffffffffffffffffffffffffffff167f17307eab39ab6107e8899845ad3d59bd9653f200f220920489ca2b5937696c318360405161128b91906143b6565b60405180910390a35050565b600c60008473ffffffffffffffffffffffffffffffffffffffff1673ffffffffffffffffffffffffffffffffffffffff16815260200190815260200160002060000160019054906101000a900460ff1615611327576040517f08c379a000000000000000000000000000000000000000000000000000000000815260040161131e9061445b565b60405180910390fd5b8181600c60008673ffffffffffffffffffffffffffffffffffffffff1673ffffffffffffffffffffffffffffffffffffffff16815260200190815260200160002060040160003373ffffffffffffffffffffffffffffffffffffffff1673ffffffffffffffffffffffffffffffffffffffff16815260200190815260200160002091906113b59291906138b5565b5033600c60008573ffffffffffffffffffffffffffffffffffffffff1673ffffffffffffffffffffffffffffffffffffffff168152602001908152602001600020600501600c60008673ffffffffffffffffffffffffffffffffffffffff1673ffffffffffffffffffffffffffffffffffffffff168152602001908152602001600020600f0154600a8110611473577f4e487b7100000000000000000000000000000000000000000000000000000000600052603260045260246000fd5b0160006101000a81548173ffffffffffffffffffffffffffffffffffffffff021916908373ffffffffffffffffffffffffffffffffffffffff160217905550600c60008473ffffffffffffffffffffffffffffffffffffffff1673ffffffffffffffffffffffffffffffffffffffff168152602001908152602001600020600f016000815480929190611505906149c3565b91905055506009600c60008573ffffffffffffffffffffffffffffffffffffffff1673ffffffffffffffffffffffffffffffffffffffff168152602001908152602001600020600f0154111561159e576000600c60008573ffffffffffffffffffffffffffffffffffffffff1673ffffffffffffffffffffffffffffffffffffffff168152602001908152602001600020600f01819055505b505050565b6115b46115ae6127ee565b836128af565b6115f3576040517f08c379a00000000000000000000000000000000000000000000000000000000081526004016115ea9061463b565b60405180910390fd5b6115ff84848484612cd1565b50505050565b60606000600c6000600d600086815260200190815260200160002060009054906101000a900473ffffffffffffffffffffffffffffffffffffffff1673ffffffffffffffffffffffffffffffffffffffff1673ffffffffffffffffffffffffffffffffffffffff168152602001908152602001600020905060006040518060400160405280600a81526020017f6c696d65677265656e3b000000000000000000000000000000000000000000008152509050600073__$4657f1115bcdc0b4c065c51103c6a64c20$__634402be596040518163ffffffff1660e01b815260040160006040518083038186803b1580156116fd57600080fd5b505af4158015611711573d6000803e3d6000fd5b505050506040513d6000823e3d601f19601f8201168201806040525081019061173a9190613d2c565b8273__$4657f1115bcdc0b4c065c51103c6a64c20$__632e173c9e6040518163ffffffff1660e01b815260040160006040518083038186803b15801561177f57600080fd5b505af4158015611793573d6000803e3d6000fd5b505050506040513d6000823e3d601f19601f820116820180604052508101906117bc9190613d2c565b73__$4657f1115bcdc0b4c065c51103c6a64c20$__63ed60c3696040518163ffffffff1660e01b815260040160006040518083038186803b15801561180057600080fd5b505af4158015611814573d6000803e3d6000fd5b505050506040513d6000823e3d601f19601f8201168201806040525081019061183d9190613d2c565b6040516020016118509493929190614219565b604051602081830303815290604052905080836004016000856005016000600a81106118a5577f4e487b7100000000000000000000000000000000000000000000000000000000600052603260045260246000fd5b0160009054906101000a900473ffffffffffffffffffffffffffffffffffffffff1673ffffffffffffffffffffffffffffffffffffffff1673ffffffffffffffffffffffffffffffffffffffff168152602001908152602001600020846004016000866005016001600a8110611944577f4e487b7100000000000000000000000000000000000000000000000000000000600052603260045260246000fd5b0160009054906101000a900473ffffffffffffffffffffffffffffffffffffffff1673ffffffffffffffffffffffffffffffffffffffff1673ffffffffffffffffffffffffffffffffffffffff168152602001908152602001600020856004016000876005016002600a81106119e3577f4e487b7100000000000000000000000000000000000000000000000000000000600052603260045260246000fd5b0160009054906101000a900473ffffffffffffffffffffffffffffffffffffffff1673ffffffffffffffffffffffffffffffffffffffff1673ffffffffffffffffffffffffffffffffffffffff168152602001908152602001600020866004016000886005016003600a8110611a82577f4e487b7100000000000000000000000000000000000000000000000000000000600052603260045260246000fd5b0160009054906101000a900473ffffffffffffffffffffffffffffffffffffffff1673ffffffffffffffffffffffffffffffffffffffff1673ffffffffffffffffffffffffffffffffffffffff168152602001908152602001600020876004016000896005016004600a8110611b21577f4e487b7100000000000000000000000000000000000000000000000000000000600052603260045260246000fd5b0160009054906101000a900473ffffffffffffffffffffffffffffffffffffffff1673ffffffffffffffffffffffffffffffffffffffff1673ffffffffffffffffffffffffffffffffffffffff1681526020019081526020016000208860040160008a6005016005600a8110611bc0577f4e487b7100000000000000000000000000000000000000000000000000000000600052603260045260246000fd5b0160009054906101000a900473ffffffffffffffffffffffffffffffffffffffff1673ffffffffffffffffffffffffffffffffffffffff1673ffffffffffffffffffffffffffffffffffffffff1681526020019081526020016000208960040160008b6005016006600a8110611c5f577f4e487b7100000000000000000000000000000000000000000000000000000000600052603260045260246000fd5b0160009054906101000a900473ffffffffffffffffffffffffffffffffffffffff1673ffffffffffffffffffffffffffffffffffffffff1673ffffffffffffffffffffffffffffffffffffffff1681526020019081526020016000208a60040160008c6005016007600a8110611cfe577f4e487b7100000000000000000000000000000000000000000000000000000000600052603260045260246000fd5b0160009054906101000a900473ffffffffffffffffffffffffffffffffffffffff1673ffffffffffffffffffffffffffffffffffffffff1673ffffffffffffffffffffffffffffffffffffffff1681526020019081526020016000208b60040160008d6005016008600a8110611d9d577f4e487b7100000000000000000000000000000000000000000000000000000000600052603260045260246000fd5b0160009054906101000a900473ffffffffffffffffffffffffffffffffffffffff1673ffffffffffffffffffffffffffffffffffffffff1673ffffffffffffffffffffffffffffffffffffffff1681526020019081526020016000208c60040160008e6005016009600a8110611e3c577f4e487b7100000000000000000000000000000000000000000000000000000000600052603260045260246000fd5b0160009054906101000a900473ffffffffffffffffffffffffffffffffffffffff1673ffffffffffffffffffffffffffffffffffffffff1673ffffffffffffffffffffffffffffffffffffffff168152602001908152602001600020604051602001611eb29b9a99989796959493929190614262565b6040516020818303038152906040529050806040518060400160405280600781526020017f3c2f746578743e0000000000000000000000000000000000000000000000000081525073__$4657f1115bcdc0b4c065c51103c6a64c20$__631cde66516040518163ffffffff1660e01b815260040160006040518083038186803b158015611f3e57600080fd5b505af4158015611f52573d6000803e3d6000fd5b505050506040513d6000823e3d601f19601f82011682018060405250810190611f7b9190613d2c565b604051602001611f8d939291906141e8565b604051602081830303815290604052905060006120de611fac87612d2d565b73__$4657f1115bcdc0b4c065c51103c6a64c20$__63d3bce20c6040518163ffffffff1660e01b815260040160006040518083038186803b158015611ff057600080fd5b505af4158015612004573d6000803e3d6000fd5b505050506040513d6000823e3d601f19601f8201168201806040525081019061202d9190613d2c565b73__$4657f1115bcdc0b4c065c51103c6a64c20$__638df430456040518163ffffffff1660e01b815260040160006040518083038186803b15801561207157600080fd5b505af4158015612085573d6000803e3d6000fd5b505050506040513d6000823e3d601f19601f820116820180604052508101906120ae9190613d2c565b6120b786612eda565b6040516020016120ca94939291906142fb565b604051602081830303815290604052612eda565b905073__$4657f1115bcdc0b4c065c51103c6a64c20$__636082b4896040518163ffffffff1660e01b815260040160006040518083038186803b15801561212457600080fd5b505af4158015612138573d6000803e3d6000fd5b505050506040513d6000823e3d601f19601f820116820180604052508101906121619190613d2c565b816040516020016121739291906141c4565b604051602081830303815290604052915081945050505050919050565b600c6020528060005260406000206000915090508060000160009054906101000a900460ff16908060000160019054906101000a900460ff16908060010154908060020160009054906101000a900460ff16908060030180546121f290614960565b80601f016020809104026020016040519081016040528092919081815260200182805461221e90614960565b801561226b5780601f106122405761010080835404028352916020019161226b565b820191906000526020600020905b81548152906001019060200180831161224e57829003601f168201915b50505050509080600f0154905086565b6000600660008473ffffffffffffffffffffffffffffffffffffffff1673ffffffffffffffffffffffffffffffffffffffff16815260200190815260200160002060008373ffffffffffffffffffffffffffffffffffffffff1673ffffffffffffffffffffffffffffffffffffffff16815260200190815260200160002060009054906101000a900460ff16905092915050565b6123176127ee565b73ffffffffffffffffffffffffffffffffffffffff1661233561105b565b73ffffffffffffffffffffffffffffffffffffffff161461238b576040517f08c379a0000000000000000000000000000000000000000000000000000000008152600401612382906145db565b60405180910390fd5b600073ffffffffffffffffffffffffffffffffffffffff168173ffffffffffffffffffffffffffffffffffffffff1614156123fb576040517f08c379a00000000000000000000000000000000000000000000000000000000081526004016123f2906144bb565b60405180910390fd5b61240481612c0d565b50565b600c60008473ffffffffffffffffffffffffffffffffffffffff1673ffffffffffffffffffffffffffffffffffffffff1681526020019081526020016000206001015434101561248c576040517f08c379a00000000000000000000000000000000000000000000000000000000081526004016124839061467b565b60405180910390fd5b8181600c60008673ffffffffffffffffffffffffffffffffffffffff1673ffffffffffffffffffffffffffffffffffffffff16815260200190815260200160002060040160003373ffffffffffffffffffffffffffffffffffffffff1673ffffffffffffffffffffffffffffffffffffffff168152602001908152602001600020919061251a9291906138b5565b5033600c60008573ffffffffffffffffffffffffffffffffffffffff1673ffffffffffffffffffffffffffffffffffffffff168152602001908152602001600020600501600c60008673ffffffffffffffffffffffffffffffffffffffff1673ffffffffffffffffffffffffffffffffffffffff168152602001908152602001600020600f0154600a81106125d8577f4e487b7100000000000000000000000000000000000000000000000000000000600052603260045260246000fd5b0160006101000a81548173ffffffffffffffffffffffffffffffffffffffff021916908373ffffffffffffffffffffffffffffffffffffffff160217905550600c60008473ffffffffffffffffffffffffffffffffffffffff1673ffffffffffffffffffffffffffffffffffffffff168152602001908152602001600020600f01600081548092919061266a906149c3565b91905055506009600c60008573ffffffffffffffffffffffffffffffffffffffff1673ffffffffffffffffffffffffffffffffffffffff168152602001908152602001600020600f01541115612703576000600c60008573ffffffffffffffffffffffffffffffffffffffff1673ffffffffffffffffffffffffffffffffffffffff168152602001908152602001600020600f01819055505b505050565b60007f780e9d63000000000000000000000000000000000000000000000000000000007bffffffffffffffffffffffffffffffffffffffffffffffffffffffff1916827bffffffffffffffffffffffffffffffffffffffffffffffffffffffff1916148061277b575061277a82613098565b5b9050919050565b60008073ffffffffffffffffffffffffffffffffffffffff166003600084815260200190815260200160002060009054906101000a900473ffffffffffffffffffffffffffffffffffffffff1673ffffffffffffffffffffffffffffffffffffffff1614159050919050565b600033905090565b816005600083815260200190815260200160002060006101000a81548173ffffffffffffffffffffffffffffffffffffffff021916908373ffffffffffffffffffffffffffffffffffffffff160217905550808273ffffffffffffffffffffffffffffffffffffffff1661286983610e69565b73ffffffffffffffffffffffffffffffffffffffff167f8c5be1e5ebec7d5bd14f71427d1e84f3dd0314c0f7b2291e5b200ac8c7c3b92560405160405180910390a45050565b60006128ba82612782565b6128f9576040517f08c379a00000000000000000000000000000000000000000000000000000000081526004016128f09061453b565b60405180910390fd5b600061290483610e69565b90508073ffffffffffffffffffffffffffffffffffffffff168473ffffffffffffffffffffffffffffffffffffffff16148061297357508373ffffffffffffffffffffffffffffffffffffffff1661295b84610776565b73ffffffffffffffffffffffffffffffffffffffff16145b806129845750612983818561227b565b5b91505092915050565b8273ffffffffffffffffffffffffffffffffffffffff166129ad82610e69565b73ffffffffffffffffffffffffffffffffffffffff1614612a03576040517f08c379a00000000000000000000000000000000000000000000000000000000081526004016129fa906145fb565b60405180910390fd5b600073ffffffffffffffffffffffffffffffffffffffff168273ffffffffffffffffffffffffffffffffffffffff161415612a73576040517f08c379a0000000000000000000000000000000000000000000000000000000008152600401612a6a906144fb565b60405180910390fd5b612a7e83838361317a565b612a896000826127f6565b6001600460008573ffffffffffffffffffffffffffffffffffffffff1673ffffffffffffffffffffffffffffffffffffffff1681526020019081526020016000206000828254612ad99190614876565b925050819055506001600460008473ffffffffffffffffffffffffffffffffffffffff1673ffffffffffffffffffffffffffffffffffffffff1681526020019081526020016000206000828254612b309190614795565b92505081905550816003600083815260200190815260200160002060006101000a81548173ffffffffffffffffffffffffffffffffffffffff021916908373ffffffffffffffffffffffffffffffffffffffff160217905550808273ffffffffffffffffffffffffffffffffffffffff168473ffffffffffffffffffffffffffffffffffffffff167fddf252ad1be2c89b69c2b068fc378daa952ba7f163c4a11628f55a4df523b3ef60405160405180910390a4505050565b6001816000016000828254019250508190555050565b600081600001549050919050565b60008060009054906101000a900473ffffffffffffffffffffffffffffffffffffffff169050816000806101000a81548173ffffffffffffffffffffffffffffffffffffffff021916908373ffffffffffffffffffffffffffffffffffffffff1602179055508173ffffffffffffffffffffffffffffffffffffffff168173ffffffffffffffffffffffffffffffffffffffff167f8be0079c531659141344cd1fd0a4f28419497f9722a3daafe3b4186f6b6457e060405160405180910390a35050565b612cdc84848461298d565b612ce88484848461318a565b612d27576040517f08c379a0000000000000000000000000000000000000000000000000000000008152600401612d1e9061449b565b60405180910390fd5b50505050565b60606000821415612d75576040518060400160405280600181526020017f30000000000000000000000000000000000000000000000000000000000000008152509050612ed5565b600082905060005b60008214612da7578080612d90906149c3565b915050600a82612da091906147eb565b9150612d7d565b60008167ffffffffffffffff811115612de9577f4e487b7100000000000000000000000000000000000000000000000000000000600052604160045260246000fd5b6040519080825280601f01601f191660200182016040528015612e1b5781602001600182028036833780820191505090505b5090505b60008514612ece57600182612e349190614876565b9150600a85612e439190614a0c565b6030612e4f9190614795565b60f81b818381518110612e8b577f4e487b7100000000000000000000000000000000000000000000000000000000600052603260045260246000fd5b60200101907effffffffffffffffffffffffffffffffffffffffffffffffffffffffffffff1916908160001a905350600a85612ec791906147eb565b9450612e1f565b8093505050505b919050565b60606000825190506000811415612f035760405180602001604052806000815250915050613093565b60006003600283612f149190614795565b612f1e91906147eb565b6004612f2a919061481c565b90506000602082612f3b9190614795565b67ffffffffffffffff811115612f7a577f4e487b7100000000000000000000000000000000000000000000000000000000600052604160045260246000fd5b6040519080825280601f01601f191660200182016040528015612fac5781602001600182028036833780820191505090505b50905060006040518060600160405280604081526020016150b2604091399050600181016020830160005b868110156130505760038101905062ffffff818a015116603f8160121c168401518060081b905060ff603f83600c1c1686015116810190508060081b905060ff603f8360061c1686015116810190508060081b905060ff603f831686015116810190508060e01b90508084526004840193505050612fd7565b50600386066001811461306a576002811461307a57613085565b613d3d60f01b6002830352613085565b603d60f81b60018303525b508484525050819450505050505b919050565b60007f80ac58cd000000000000000000000000000000000000000000000000000000007bffffffffffffffffffffffffffffffffffffffffffffffffffffffff1916827bffffffffffffffffffffffffffffffffffffffffffffffffffffffff1916148061316357507f5b5e139f000000000000000000000000000000000000000000000000000000007bffffffffffffffffffffffffffffffffffffffffffffffffffffffff1916827bffffffffffffffffffffffffffffffffffffffffffffffffffffffff1916145b80613173575061317282613321565b5b9050919050565b61318583838361338b565b505050565b60006131ab8473ffffffffffffffffffffffffffffffffffffffff1661349f565b15613314578373ffffffffffffffffffffffffffffffffffffffff1663150b7a026131d46127ee565b8786866040518563ffffffff1660e01b81526004016131f6949392919061436a565b602060405180830381600087803b15801561321057600080fd5b505af192505050801561324157506040513d601f19601f8201168201806040525081019061323e9190613d03565b60015b6132c4573d8060008114613271576040519150601f19603f3d011682016040523d82523d6000602084013e613276565b606091505b506000815114156132bc576040517f08c379a00000000000000000000000000000000000000000000000000000000081526004016132b39061449b565b60405180910390fd5b805181602001fd5b63150b7a0260e01b7bffffffffffffffffffffffffffffffffffffffffffffffffffffffff1916817bffffffffffffffffffffffffffffffffffffffffffffffffffffffff191614915050613319565b600190505b949350505050565b60007f01ffc9a7000000000000000000000000000000000000000000000000000000007bffffffffffffffffffffffffffffffffffffffffffffffffffffffff1916827bffffffffffffffffffffffffffffffffffffffffffffffffffffffff1916149050919050565b6133968383836134b2565b600073ffffffffffffffffffffffffffffffffffffffff168373ffffffffffffffffffffffffffffffffffffffff1614156133d9576133d4816134b7565b613418565b8173ffffffffffffffffffffffffffffffffffffffff168373ffffffffffffffffffffffffffffffffffffffff1614613417576134168382613500565b5b5b600073ffffffffffffffffffffffffffffffffffffffff168273ffffffffffffffffffffffffffffffffffffffff16141561345b576134568161366d565b61349a565b8273ffffffffffffffffffffffffffffffffffffffff168273ffffffffffffffffffffffffffffffffffffffff16146134995761349882826137b0565b5b5b505050565b600080823b905060008111915050919050565b505050565b600980549050600a600083815260200190815260200160002081905550600981908060018154018082558091505060019003906000526020600020016000909190919091505550565b6000600161350d84610f1b565b6135179190614876565b90506000600860008481526020019081526020016000205490508181146135fc576000600760008673ffffffffffffffffffffffffffffffffffffffff1673ffffffffffffffffffffffffffffffffffffffff168152602001908152602001600020600084815260200190815260200160002054905080600760008773ffffffffffffffffffffffffffffffffffffffff1673ffffffffffffffffffffffffffffffffffffffff168152602001908152602001600020600084815260200190815260200160002081905550816008600083815260200190815260200160002081905550505b6008600084815260200190815260200160002060009055600760008573ffffffffffffffffffffffffffffffffffffffff1673ffffffffffffffffffffffffffffffffffffffff16815260200190815260200160002060008381526020019081526020016000206000905550505050565b600060016009805490506136819190614876565b90506000600a60008481526020019081526020016000205490506000600983815481106136d7577f4e487b7100000000000000000000000000000000000000000000000000000000600052603260045260246000fd5b90600052602060002001549050806009838154811061371f577f4e487b7100000000000000000000000000000000000000000000000000000000600052603260045260246000fd5b906000526020600020018190555081600a600083815260200190815260200160002081905550600a6000858152602001908152602001600020600090556009805480613794577f4e487b7100000000000000000000000000000000000000000000000000000000600052603160045260246000fd5b6001900381819060005260206000200160009055905550505050565b60006137bb83610f1b565b905081600760008573ffffffffffffffffffffffffffffffffffffffff1673ffffffffffffffffffffffffffffffffffffffff168152602001908152602001600020600083815260200190815260200160002081905550806008600084815260200190815260200160002081905550505050565b82805461383b90614960565b90600052602060002090601f01602090048101928261385d57600085556138a4565b82601f1061387657805160ff19168380011785556138a4565b828001600101855582156138a4579182015b828111156138a3578251825591602001919060010190613888565b5b5090506138b1919061393b565b5090565b8280546138c190614960565b90600052602060002090601f0160209004810192826138e3576000855561392a565b82601f106138fc57803560ff191683800117855561392a565b8280016001018555821561392a579182015b8281111561392957823582559160200191906001019061390e565b5b509050613937919061393b565b5090565b5b8082111561395457600081600090555060010161393c565b5090565b600061396b613966846146db565b6146b6565b90508281526020810184848401111561398357600080fd5b61398e84828561491e565b509392505050565b60006139a96139a48461470c565b6146b6565b9050828152602081018484840111156139c157600080fd5b6139cc84828561492d565b509392505050565b6000813590506139e381615055565b92915050565b6000813590506139f88161506c565b92915050565b600081359050613a0d81615083565b92915050565b600081519050613a2281615083565b92915050565b600082601f830112613a3957600080fd5b8135613a49848260208601613958565b91505092915050565b60008083601f840112613a6457600080fd5b8235905067ffffffffffffffff811115613a7d57600080fd5b602083019150836001820283011115613a9557600080fd5b9250929050565b600082601f830112613aad57600080fd5b8151613abd848260208601613996565b91505092915050565b600081359050613ad58161509a565b92915050565b600060208284031215613aed57600080fd5b6000613afb848285016139d4565b91505092915050565b60008060408385031215613b1757600080fd5b6000613b25858286016139d4565b9250506020613b36858286016139d4565b9150509250929050565b600080600060608486031215613b5557600080fd5b6000613b63868287016139d4565b9350506020613b74868287016139d4565b9250506040613b8586828701613ac6565b9150509250925092565b60008060008060808587031215613ba557600080fd5b6000613bb3878288016139d4565b9450506020613bc4878288016139d4565b9350506040613bd587828801613ac6565b925050606085013567ffffffffffffffff811115613bf257600080fd5b613bfe87828801613a28565b91505092959194509250565b60008060408385031215613c1d57600080fd5b6000613c2b858286016139d4565b9250506020613c3c858286016139e9565b9150509250929050565b600080600060408486031215613c5b57600080fd5b6000613c69868287016139d4565b935050602084013567ffffffffffffffff811115613c8657600080fd5b613c9286828701613a52565b92509250509250925092565b60008060408385031215613cb157600080fd5b6000613cbf858286016139d4565b9250506020613cd085828601613ac6565b9150509250929050565b600060208284031215613cec57600080fd5b6000613cfa848285016139fe565b91505092915050565b600060208284031215613d1557600080fd5b6000613d2384828501613a13565b91505092915050565b600060208284031215613d3e57600080fd5b600082015167ffffffffffffffff811115613d5857600080fd5b613d6484828501613a9c565b91505092915050565b600060208284031215613d7f57600080fd5b6000613d8d84828501613ac6565b91505092915050565b613d9f816148aa565b82525050565b613dae816148bc565b82525050565b6000613dbf82614752565b613dc98185614768565b9350613dd981856020860161492d565b613de281614af9565b840191505092915050565b6000613df88261475d565b613e028185614779565b9350613e1281856020860161492d565b613e1b81614af9565b840191505092915050565b6000613e318261475d565b613e3b818561478a565b9350613e4b81856020860161492d565b80840191505092915050565b60008154613e6481614960565b613e6e818661478a565b94506001821660008114613e895760018114613e9a57613ecd565b60ff19831686528186019350613ecd565b613ea38561473d565b60005b83811015613ec557815481890152600182019150602081019050613ea6565b838801955050505b50505092915050565b6000613ee3601483614779565b9150613eee82614b0a565b602082019050919050565b6000613f0660058361478a565b9150613f1182614b33565b600582019050919050565b6000613f29602b83614779565b9150613f3482614b5c565b604082019050919050565b6000613f4c603283614779565b9150613f5782614bab565b604082019050919050565b6000613f6f602683614779565b9150613f7a82614bfa565b604082019050919050565b6000613f92600f83614779565b9150613f9d82614c49565b602082019050919050565b6000613fb5602483614779565b9150613fc082614c72565b604082019050919050565b6000613fd8601983614779565b9150613fe382614cc1565b602082019050919050565b6000613ffb602c83614779565b915061400682614cea565b604082019050919050565b600061401e603883614779565b915061402982614d39565b604082019050919050565b6000614041602a83614779565b915061404c82614d88565b604082019050919050565b6000614064602983614779565b915061406f82614dd7565b604082019050919050565b600061408760028361478a565b915061409282614e26565b600282019050919050565b60006140aa602c83614779565b91506140b582614e4f565b604082019050919050565b60006140cd602083614779565b91506140d882614e9e565b602082019050919050565b60006140f0602983614779565b91506140fb82614ec7565b604082019050919050565b6000614113602183614779565b915061411e82614f16565b604082019050919050565b600061413660138361478a565b915061414182614f65565b601382019050919050565b6000614159603183614779565b915061416482614f8e565b604082019050919050565b600061417c602c83614779565b915061418782614fdd565b604082019050919050565b600061419f601183614779565b91506141aa8261502c565b602082019050919050565b6141be81614914565b82525050565b60006141d08285613e26565b91506141dc8284613e26565b91508190509392505050565b60006141f48286613e26565b91506142008285613e26565b915061420c8284613e26565b9150819050949350505050565b60006142258287613e26565b91506142318286613e26565b915061423d8285613e26565b915061424882613ef9565b91506142548284613e26565b915081905095945050505050565b600061426e828e613e26565b915061427a828d613e57565b9150614286828c613e57565b9150614292828b613e57565b915061429e828a613e57565b91506142aa8289613e57565b91506142b68288613e57565b91506142c28287613e57565b91506142ce8286613e57565b91506142da8285613e57565b91506142e68284613e57565b91508190509c9b505050505050505050505050565b600061430682614129565b91506143128287613e26565b915061431e8286613e26565b915061432a8285613e26565b91506143368284613e26565b91506143418261407a565b915081905095945050505050565b60006020820190506143646000830184613d96565b92915050565b600060808201905061437f6000830187613d96565b61438c6020830186613d96565b61439960408301856141b5565b81810360608301526143ab8184613db4565b905095945050505050565b60006020820190506143cb6000830184613da5565b92915050565b600060c0820190506143e66000830189613da5565b6143f36020830188613da5565b61440060408301876141b5565b61440d6060830186613da5565b818103608083015261441f8185613ded565b905061442e60a08301846141b5565b979650505050505050565b600060208201905081810360008301526144538184613ded565b905092915050565b6000602082019050818103600083015261447481613ed6565b9050919050565b6000602082019050818103600083015261449481613f1c565b9050919050565b600060208201905081810360008301526144b481613f3f565b9050919050565b600060208201905081810360008301526144d481613f62565b9050919050565b600060208201905081810360008301526144f481613f85565b9050919050565b6000602082019050818103600083015261451481613fa8565b9050919050565b6000602082019050818103600083015261453481613fcb565b9050919050565b6000602082019050818103600083015261455481613fee565b9050919050565b6000602082019050818103600083015261457481614011565b9050919050565b6000602082019050818103600083015261459481614034565b9050919050565b600060208201905081810360008301526145b481614057565b9050919050565b600060208201905081810360008301526145d48161409d565b9050919050565b600060208201905081810360008301526145f4816140c0565b9050919050565b60006020820190508181036000830152614614816140e3565b9050919050565b6000602082019050818103600083015261463481614106565b9050919050565b600060208201905081810360008301526146548161414c565b9050919050565b600060208201905081810360008301526146748161416f565b9050919050565b6000602082019050818103600083015261469481614192565b9050919050565b60006020820190506146b060008301846141b5565b92915050565b60006146c06146d1565b90506146cc8282614992565b919050565b6000604051905090565b600067ffffffffffffffff8211156146f6576146f5614aca565b5b6146ff82614af9565b9050602081019050919050565b600067ffffffffffffffff82111561472757614726614aca565b5b61473082614af9565b9050602081019050919050565b60008190508160005260206000209050919050565b600081519050919050565b600081519050919050565b600082825260208201905092915050565b600082825260208201905092915050565b600081905092915050565b60006147a082614914565b91506147ab83614914565b9250827fffffffffffffffffffffffffffffffffffffffffffffffffffffffffffffffff038211156147e0576147df614a3d565b5b828201905092915050565b60006147f682614914565b915061480183614914565b92508261481157614810614a6c565b5b828204905092915050565b600061482782614914565b915061483283614914565b9250817fffffffffffffffffffffffffffffffffffffffffffffffffffffffffffffffff048311821515161561486b5761486a614a3d565b5b828202905092915050565b600061488182614914565b915061488c83614914565b92508282101561489f5761489e614a3d565b5b828203905092915050565b60006148b5826148f4565b9050919050565b60008115159050919050565b60007fffffffff0000000000000000000000000000000000000000000000000000000082169050919050565b600073ffffffffffffffffffffffffffffffffffffffff82169050919050565b6000819050919050565b82818337600083830152505050565b60005b8381101561494b578082015181840152602081019050614930565b8381111561495a576000848401525b50505050565b6000600282049050600182168061497857607f821691505b6020821081141561498c5761498b614a9b565b5b50919050565b61499b82614af9565b810181811067ffffffffffffffff821117156149ba576149b9614aca565b5b80604052505050565b60006149ce82614914565b91507fffffffffffffffffffffffffffffffffffffffffffffffffffffffffffffffff821415614a0157614a00614a3d565b5b600182019050919050565b6000614a1782614914565b9150614a2283614914565b925082614a3257614a31614a6c565b5b828206905092915050565b7f4e487b7100000000000000000000000000000000000000000000000000000000600052601160045260246000fd5b7f4e487b7100000000000000000000000000000000000000000000000000000000600052601260045260246000fd5b7f4e487b7100000000000000000000000000000000000000000000000000000000600052602260045260246000fd5b7f4e487b7100000000000000000000000000000000000000000000000000000000600052604160045260246000fd5b6000601f19601f8301169050919050565b7f746f6b656e207772697465206e6f742066726565000000000000000000000000600082015250565b7f2922202f3e000000000000000000000000000000000000000000000000000000600082015250565b7f455243373231456e756d657261626c653a206f776e657220696e646578206f7560008201527f74206f6620626f756e6473000000000000000000000000000000000000000000602082015250565b7f4552433732313a207472616e7366657220746f206e6f6e20455243373231526560008201527f63656976657220696d706c656d656e7465720000000000000000000000000000602082015250565b7f4f776e61626c653a206e6577206f776e657220697320746865207a65726f206160008201527f6464726573730000000000000000000000000000000000000000000000000000602082015250565b7f616c726561647920636c61696d65640000000000000000000000000000000000600082015250565b7f4552433732313a207472616e7366657220746f20746865207a65726f2061646460008201527f7265737300000000000000000000000000000000000000000000000000000000602082015250565b7f4552433732313a20617070726f766520746f2063616c6c657200000000000000600082015250565b7f4552433732313a206f70657261746f7220717565727920666f72206e6f6e657860008201527f697374656e7420746f6b656e0000000000000000000000000000000000000000602082015250565b7f4552433732313a20617070726f76652063616c6c6572206973206e6f74206f7760008201527f6e6572206e6f7220617070726f76656420666f7220616c6c0000000000000000602082015250565b7f4552433732313a2062616c616e636520717565727920666f7220746865207a6560008201527f726f206164647265737300000000000000000000000000000000000000000000602082015250565b7f4552433732313a206f776e657220717565727920666f72206e6f6e657869737460008201527f656e7420746f6b656e0000000000000000000000000000000000000000000000602082015250565b7f227d000000000000000000000000000000000000000000000000000000000000600082015250565b7f4552433732313a20617070726f76656420717565727920666f72206e6f6e657860008201527f697374656e7420746f6b656e0000000000000000000000000000000000000000602082015250565b7f4f776e61626c653a2063616c6c6572206973206e6f7420746865206f776e6572600082015250565b7f4552433732313a207472616e73666572206f6620746f6b656e2074686174206960008201527f73206e6f74206f776e0000000000000000000000000000000000000000000000602082015250565b7f4552433732313a20617070726f76616c20746f2063757272656e74206f776e6560008201527f7200000000000000000000000000000000000000000000000000000000000000602082015250565b7f7b226e616d65223a20224d657373616765202300000000000000000000000000600082015250565b7f4552433732313a207472616e736665722063616c6c6572206973206e6f74206f60008201527f776e6572206e6f7220617070726f766564000000000000000000000000000000602082015250565b7f455243373231456e756d657261626c653a20676c6f62616c20696e646578206f60008201527f7574206f6620626f756e64730000000000000000000000000000000000000000602082015250565b7f6e6f7420656e6f7567682c206368756d70000000000000000000000000000000600082015250565b61505e816148aa565b811461506957600080fd5b50565b615075816148bc565b811461508057600080fd5b50565b61508c816148c8565b811461509757600080fd5b50565b6150a381614914565b81146150ae57600080fd5b5056fe4142434445464748494a4b4c4d4e4f505152535455565758595a6162636465666768696a6b6c6d6e6f707172737475767778797a303132333435363738392b2fa26469706673582212206b7490be8c63c40f4433dda90f2cd6dda2688acee58a2e22ca7cc03d4a531f5364736f6c63430008040033",
  "linkReferences": {
    "contracts/MessageNFTCleaner.sol": {
      "StringHell": [
        {
          "length": 20,
          "start": 6532
        },
        {
          "length": 20,
          "start": 6662
        },
        {
          "length": 20,
          "start": 6791
        },
        {
          "length": 20,
          "start": 8645
        },
        {
          "length": 20,
          "start": 8823
        },
        {
          "length": 20,
          "start": 8952
        },
        {
          "length": 20,
          "start": 9131
        }
      ]
    }
  },
  "deployedLinkReferences": {
    "contracts/MessageNFTCleaner.sol": {
      "StringHell": [
        {
          "length": 20,
          "start": 5819
        },
        {
          "length": 20,
          "start": 5949
        },
        {
          "length": 20,
          "start": 6078
        },
        {
          "length": 20,
          "start": 7932
        },
        {
          "length": 20,
          "start": 8110
        },
        {
          "length": 20,
          "start": 8239
        },
        {
          "length": 20,
          "start": 8418
        }
      ]
    }
  }
}