{
  "_format": "hh-sol-artifact-1",
  "contractName": "StringHell",
  "sourceName": "contracts/MessageNFTCleaner.sol",
  "abi": [
    {
      "inputs": [],
      "name": "Desc",
      "outputs": [
        {
          "internalType": "string",
          "name": "",
          "type": "string"
        }
      ],
      "stateMutability": "pure",
      "type": "function"
    },
    {
      "inputs": [],
      "name": "Json",
      "outputs": [
        {
          "internalType": "string",
          "name": "",
          "type": "string"
        }
      ],
      "stateMutability": "pure",
      "type": "function"
    },
    {
      "inputs": [],
      "name": "JsonStub",
      "outputs": [
        {
          "internalType": "string",
          "name": "",
          "type": "string"
        }
      ],
      "stateMutability": "pure",
      "type": "function"
    },
    {
      "inputs": [],
      "name": "SvgB1",
      "outputs": [
        {
          "internalType": "string",
          "name": "",
          "type": "string"
        }
      ],
      "stateMutability": "pure",
      "type": "function"
    },
    {
      "inputs": [],
      "name": "SvgEnd",
      "outputs": [
        {
          "internalType": "string",
          "name": "",
          "type": "string"
        }
      ],
      "stateMutability": "pure",
      "type": "function"
    },
    {
      "inputs": [],
      "name": "SvgO1",
      "outputs": [
        {
          "internalType": "string",
          "name": "",
          "type": "string"
        }
      ],
      "stateMutability": "pure",
      "type": "function"
    },
    {
      "inputs": [],
      "name": "SvgO3",
      "outputs": [
        {
          "internalType": "string",
          "name": "",
          "type": "string"
        }
      ],
      "stateMutability": "pure",
      "type": "function"
    },
    {
      "inputs": [],
      "name": "SvgP2",
      "outputs": [
        {
          "internalType": "string",
          "name": "",
          "type": "string"
        }
      ],
      "stateMutability": "pure",
      "type": "function"
    },
    {
      "inputs": [],
      "name": "SvgStart",
      "outputs": [
        {
          "internalType": "string",
          "name": "",
          "type": "string"
        }
      ],
      "stateMutability": "pure",
      "type": "function"
    }
  ],
  "bytecode": "0x610806610053600b82828239805160001a607314610046577f4e487b7100000000000000000000000000000000000000000000000000000000600052600060045260246000fd5b30600052607381538281f3fe730000000000000000000000000000000000000000301460806040526004361061009d5760003560e01c80634402be59116100705780634402be591461011a5780636082b489146101385780638df4304514610156578063d3bce20c14610174578063ed60c369146101925761009d565b806304a0d821146100a25780631cde6651146100c057806326878b21146100de5780632e173c9e146100fc575b600080fd5b6100aa6101b0565b6040516100b79190610329565b60405180910390f35b6100c86101d0565b6040516100d59190610329565b60405180910390f35b6100e66101f0565b6040516100f39190610329565b60405180910390f35b610104610210565b6040516101119190610329565b60405180910390f35b610122610230565b60405161012f9190610329565b60405180910390f35b610140610253565b60405161014d9190610329565b60405180910390f35b61015e610290565b60405161016b9190610329565b60405180910390f35b61017c6102b0565b6040516101899190610329565b60405180910390f35b61019a6102d0565b6040516101a79190610329565b60405180910390f35b606060405180606001604052806029815260200161050b60299139905090565b60606040518060c001604052806088815260200161072260889139905090565b606060405180606001604052806038815260200161043c60389139905090565b60606040518060a00160405280606881526020016103d460689139905090565b60606040518061022001604052806101ee81526020016105346101ee9139905090565b60606040518060400160405280601d81526020017f646174613a6170706c69636174696f6e2f6a736f6e3b6261736536342c000000815250905090565b60606040518060600160405280602781526020016107aa60279139905090565b60606040518060c001604052806097815260200161047460979139905090565b60606040518060600160405280602881526020016103ac60289139905090565b60006102fb8261034b565b6103058185610356565b9350610315818560208601610367565b61031e8161039a565b840191505092915050565b6000602082019050818103600083015261034381846102f0565b905092915050565b600081519050919050565b600082825260208201905092915050565b60005b8381101561038557808201518184015260208101905061036a565b83811115610394576000848401525b50505050565b6000601f19601f830116905091905056fe3c7465787420783d2232302220793d2236302220636c6173733d2262617365223e2f2f7573723a20666f6e742d66616d696c793a206d6f6e6f73706163653b20666f6e742d73697a653a20313570783b207d3c2f7374796c653e3c7265637420793d2238222077696474683d223130302522206865696768743d2231303025222066696c6c3d2275726c2823677261643c7265637420793d22353025222077696474683d223130302522206865696768743d2231303025222066696c6c3d2275726c282367726164222c20226465736372697074696f6e223a20224d65737361676520697320616e206578706572696d656e7420696e20636f6d6d756e69636174696f6e2e2057726974652076696120636f6e74726163742c2072656672657368206d657461646174612e204265206e6963652e2068747470733a2f2f737465726c696e676372697370696e2e636f6d2f6d6573736167652e68746d6c222c3c7465787420783d2232302220793d223235302220636c6173733d2262617365223e2f2f7075623a203c73766720786d6c6e733d22687474703a2f2f7777772e77332e6f72672f323030302f73766722207072657365727665417370656374526174696f3d22784d696e594d696e206d656574222076696577426f783d223020302034303020343030222077696474683d2238303022206865696768743d22383030223e3c646566733e3c6c696e6561724772616469656e742069643d226772616422202078313d2230222078323d2230222079313d2230222079323d2231223e3c73746f70206f66667365743d223025222073746f702d636f6c6f723d2264696d6772657922202f3e3c73746f70206f66667365743d22313025222073746f702d636f6c6f723d22626c61636b22202f3e3c2f6c696e6561724772616469656e743e3c72616469616c4772616469656e742069643d226772616432222063783d22302e35222063793d22302e392220723d22312e32222066783d22302e35222066793d22302e3922207370726561644d6574686f643d22726570656174223e3c73746f70206f66667365743d223025222073746f702d636f6c6f723d22726564222f3e3c73746f70206f66667365743d2231303025222073746f702d636f6c6f723d22626c7565222f3e3c2f72616469616c4772616469656e743e3c2f646566733e3c7374796c653e2e62617365207b2066696c6c3a3c726563742077696474683d223130302522206865696768743d2231303025222066696c6c3d226e6f6e6522207374726f6b653d2264696d6772657922207374726f6b652d77696474683d223230222f3e3c636972636c652063783d223230222063793d223339352220723d2233222066696c6c3d226c696d65677265656e222f3e3c2f7376673e5d2c2022696d616765223a2022646174613a696d6167652f7376672b786d6c3b6261736536342ca2646970667358221220f1802f499db13b6c6f2d57f7b12864a62bd12c270a97d288a891bb9f783b6af364736f6c63430008040033",
  "linkReferences": {},
  "deployedLinkReferences": {}
}