{
  "_format": "hh-sol-artifact-1",
  "contractName": "MessageMeNFT",
  "sourceName": "contracts/MessageNFT.sol",
  "abi": [
    {
      "inputs": [],
      "stateMutability": "nonpayable",
      "type": "constructor"
    },
    {
      "anonymous": false,
      "inputs": [
        {
          "indexed": true,
          "internalType": "address",
          "name": "owner",
          "type": "address"
        },
        {
          "indexed": true,
          "internalType": "address",
          "name": "approved",
          "type": "address"
        },
        {
          "indexed": true,
          "internalType": "uint256",
          "name": "tokenId",
          "type": "uint256"
        }
      ],
      "name": "Approval",
      "type": "event"
    },
    {
      "anonymous": false,
      "inputs": [
        {
          "indexed": true,
          "internalType": "address",
          "name": "owner",
          "type": "address"
        },
        {
          "indexed": true,
          "internalType": "address",
          "name": "operator",
          "type": "address"
        },
        {
          "indexed": false,
          "internalType": "bool",
          "name": "approved",
          "type": "bool"
        }
      ],
      "name": "ApprovalForAll",
      "type": "event"
    },
    {
      "anonymous": false,
      "inputs": [
        {
          "indexed": true,
          "internalType": "address",
          "name": "previousOwner",
          "type": "address"
        },
        {
          "indexed": true,
          "internalType": "address",
          "name": "newOwner",
          "type": "address"
        }
      ],
      "name": "OwnershipTransferred",
      "type": "event"
    },
    {
      "anonymous": false,
      "inputs": [
        {
          "indexed": true,
          "internalType": "address",
          "name": "from",
          "type": "address"
        },
        {
          "indexed": true,
          "internalType": "address",
          "name": "to",
          "type": "address"
        },
        {
          "indexed": true,
          "internalType": "uint256",
          "name": "tokenId",
          "type": "uint256"
        }
      ],
      "name": "Transfer",
      "type": "event"
    },
    {
      "inputs": [
        {
          "internalType": "address",
          "name": "",
          "type": "address"
        }
      ],
      "name": "allLedgers",
      "outputs": [
        {
          "internalType": "bool",
          "name": "claimed",
          "type": "bool"
        },
        {
          "internalType": "bool",
          "name": "isPayable",
          "type": "bool"
        },
        {
          "internalType": "uint256",
          "name": "writePrice",
          "type": "uint256"
        },
        {
          "internalType": "bool",
          "name": "writeActive",
          "type": "bool"
        },
        {
          "internalType": "string",
          "name": "header",
          "type": "string"
        },
        {
          "internalType": "uint256",
          "name": "writeIndex",
          "type": "uint256"
        }
      ],
      "stateMutability": "view",
      "type": "function"
    },
    {
      "inputs": [
        {
          "internalType": "address",
          "name": "to",
          "type": "address"
        },
        {
          "internalType": "uint256",
          "name": "tokenId",
          "type": "uint256"
        }
      ],
      "name": "approve",
      "outputs": [],
      "stateMutability": "nonpayable",
      "type": "function"
    },
    {
      "inputs": [
        {
          "internalType": "address",
          "name": "owner",
          "type": "address"
        }
      ],
      "name": "balanceOf",
      "outputs": [
        {
          "internalType": "uint256",
          "name": "",
          "type": "uint256"
        }
      ],
      "stateMutability": "view",
      "type": "function"
    },
    {
      "inputs": [],
      "name": "claimToken",
      "outputs": [],
      "stateMutability": "nonpayable",
      "type": "function"
    },
    {
      "inputs": [
        {
          "internalType": "address",
          "name": "",
          "type": "address"
        }
      ],
      "name": "ethValues",
      "outputs": [
        {
          "internalType": "uint256",
          "name": "",
          "type": "uint256"
        }
      ],
      "stateMutability": "view",
      "type": "function"
    },
    {
      "inputs": [
        {
          "internalType": "uint256",
          "name": "tokenId",
          "type": "uint256"
        }
      ],
      "name": "getApproved",
      "outputs": [
        {
          "internalType": "address",
          "name": "",
          "type": "address"
        }
      ],
      "stateMutability": "view",
      "type": "function"
    },
    {
      "inputs": [
        {
          "internalType": "address",
          "name": "owner",
          "type": "address"
        }
      ],
      "name": "getWritePriceByAddress",
      "outputs": [
        {
          "internalType": "uint256",
          "name": "",
          "type": "uint256"
        }
      ],
      "stateMutability": "view",
      "type": "function"
    },
    {
      "inputs": [
        {
          "internalType": "uint256",
          "name": "tokenId",
          "type": "uint256"
        }
      ],
      "name": "getWritePriceByTokeId",
      "outputs": [
        {
          "internalType": "uint256",
          "name": "",
          "type": "uint256"
        }
      ],
      "stateMutability": "view",
      "type": "function"
    },
    {
      "inputs": [
        {
          "internalType": "address",
          "name": "owner",
          "type": "address"
        },
        {
          "internalType": "address",
          "name": "operator",
          "type": "address"
        }
      ],
      "name": "isApprovedForAll",
      "outputs": [
        {
          "internalType": "bool",
          "name": "",
          "type": "bool"
        }
      ],
      "stateMutability": "view",
      "type": "function"
    },
    {
      "inputs": [],
      "name": "name",
      "outputs": [
        {
          "internalType": "string",
          "name": "",
          "type": "string"
        }
      ],
      "stateMutability": "view",
      "type": "function"
    },
    {
      "inputs": [],
      "name": "owner",
      "outputs": [
        {
          "internalType": "address",
          "name": "",
          "type": "address"
        }
      ],
      "stateMutability": "view",
      "type": "function"
    },
    {
      "inputs": [
        {
          "internalType": "uint256",
          "name": "tokenId",
          "type": "uint256"
        }
      ],
      "name": "ownerOf",
      "outputs": [
        {
          "internalType": "address",
          "name": "",
          "type": "address"
        }
      ],
      "stateMutability": "view",
      "type": "function"
    },
    {
      "inputs": [],
      "name": "removeWritePrice",
      "outputs": [],
      "stateMutability": "nonpayable",
      "type": "function"
    },
    {
      "inputs": [],
      "name": "renounceOwnership",
      "outputs": [],
      "stateMutability": "nonpayable",
      "type": "function"
    },
    {
      "inputs": [
        {
          "internalType": "address",
          "name": "from",
          "type": "address"
        },
        {
          "internalType": "address",
          "name": "to",
          "type": "address"
        },
        {
          "internalType": "uint256",
          "name": "tokenId",
          "type": "uint256"
        }
      ],
      "name": "safeTransferFrom",
      "outputs": [],
      "stateMutability": "nonpayable",
      "type": "function"
    },
    {
      "inputs": [
        {
          "internalType": "address",
          "name": "from",
          "type": "address"
        },
        {
          "internalType": "address",
          "name": "to",
          "type": "address"
        },
        {
          "internalType": "uint256",
          "name": "tokenId",
          "type": "uint256"
        },
        {
          "internalType": "bytes",
          "name": "_data",
          "type": "bytes"
        }
      ],
      "name": "safeTransferFrom",
      "outputs": [],
      "stateMutability": "nonpayable",
      "type": "function"
    },
    {
      "inputs": [
        {
          "internalType": "address",
          "name": "operator",
          "type": "address"
        },
        {
          "internalType": "bool",
          "name": "approved",
          "type": "bool"
        }
      ],
      "name": "setApprovalForAll",
      "outputs": [],
      "stateMutability": "nonpayable",
      "type": "function"
    },
    {
      "inputs": [
        {
          "internalType": "uint256",
          "name": "writePrice",
          "type": "uint256"
        }
      ],
      "name": "setWritePrice",
      "outputs": [],
      "stateMutability": "nonpayable",
      "type": "function"
    },
    {
      "inputs": [
        {
          "internalType": "bytes4",
          "name": "interfaceId",
          "type": "bytes4"
        }
      ],
      "name": "supportsInterface",
      "outputs": [
        {
          "internalType": "bool",
          "name": "",
          "type": "bool"
        }
      ],
      "stateMutability": "view",
      "type": "function"
    },
    {
      "inputs": [],
      "name": "symbol",
      "outputs": [
        {
          "internalType": "string",
          "name": "",
          "type": "string"
        }
      ],
      "stateMutability": "view",
      "type": "function"
    },
    {
      "inputs": [
        {
          "internalType": "uint256",
          "name": "index",
          "type": "uint256"
        }
      ],
      "name": "tokenByIndex",
      "outputs": [
        {
          "internalType": "uint256",
          "name": "",
          "type": "uint256"
        }
      ],
      "stateMutability": "view",
      "type": "function"
    },
    {
      "inputs": [
        {
          "internalType": "address",
          "name": "owner",
          "type": "address"
        },
        {
          "internalType": "uint256",
          "name": "index",
          "type": "uint256"
        }
      ],
      "name": "tokenOfOwnerByIndex",
      "outputs": [
        {
          "internalType": "uint256",
          "name": "",
          "type": "uint256"
        }
      ],
      "stateMutability": "view",
      "type": "function"
    },
    {
      "inputs": [
        {
          "internalType": "uint256",
          "name": "tokenId",
          "type": "uint256"
        }
      ],
      "name": "tokenURI",
      "outputs": [
        {
          "internalType": "string",
          "name": "",
          "type": "string"
        }
      ],
      "stateMutability": "view",
      "type": "function"
    },
    {
      "inputs": [
        {
          "internalType": "uint256",
          "name": "",
          "type": "uint256"
        }
      ],
      "name": "tokensToAddress",
      "outputs": [
        {
          "internalType": "address",
          "name": "",
          "type": "address"
        }
      ],
      "stateMutability": "view",
      "type": "function"
    },
    {
      "inputs": [],
      "name": "totalSupply",
      "outputs": [
        {
          "internalType": "uint256",
          "name": "",
          "type": "uint256"
        }
      ],
      "stateMutability": "view",
      "type": "function"
    },
    {
      "inputs": [
        {
          "internalType": "address",
          "name": "from",
          "type": "address"
        },
        {
          "internalType": "address",
          "name": "to",
          "type": "address"
        },
        {
          "internalType": "uint256",
          "name": "tokenId",
          "type": "uint256"
        }
      ],
      "name": "transferFrom",
      "outputs": [],
      "stateMutability": "nonpayable",
      "type": "function"
    },
    {
      "inputs": [
        {
          "internalType": "address",
          "name": "newOwner",
          "type": "address"
        }
      ],
      "name": "transferOwnership",
      "outputs": [],
      "stateMutability": "nonpayable",
      "type": "function"
    },
    {
      "inputs": [
        {
          "internalType": "address payable",
          "name": "wallet",
          "type": "address"
        }
      ],
      "name": "withdraw",
      "outputs": [],
      "stateMutability": "nonpayable",
      "type": "function"
    },
    {
      "inputs": [
        {
          "internalType": "address",
          "name": "userAddress",
          "type": "address"
        },
        {
          "internalType": "string",
          "name": "message",
          "type": "string"
        }
      ],
      "name": "writeFree",
      "outputs": [],
      "stateMutability": "nonpayable",
      "type": "function"
    },
    {
      "inputs": [
        {
          "internalType": "address",
          "name": "userAddress",
          "type": "address"
        },
        {
          "internalType": "string",
          "name": "message",
          "type": "string"
        }
      ],
      "name": "writePayable",
      "outputs": [],
      "stateMutability": "payable",
      "type": "function"
    }
  ],
  "bytecode": "0x60806040523480156200001157600080fd5b506040518060400160405280600981526020017f4d6573736167654d6500000000000000000000000000000000000000000000008152506040518060400160405280600381526020017f4d534700000000000000000000000000000000000000000000000000000000008152506200009e62000092620000d860201b60201c565b620000e060201b60201c565b8160019080519060200190620000b6929190620001a4565b508060029080519060200190620000cf929190620001a4565b505050620002b9565b600033905090565b60008060009054906101000a900473ffffffffffffffffffffffffffffffffffffffff169050816000806101000a81548173ffffffffffffffffffffffffffffffffffffffff021916908373ffffffffffffffffffffffffffffffffffffffff1602179055508173ffffffffffffffffffffffffffffffffffffffff168173ffffffffffffffffffffffffffffffffffffffff167f8be0079c531659141344cd1fd0a4f28419497f9722a3daafe3b4186f6b6457e060405160405180910390a35050565b828054620001b29062000254565b90600052602060002090601f016020900481019282620001d6576000855562000222565b82601f10620001f157805160ff191683800117855562000222565b8280016001018555821562000222579182015b828111156200022157825182559160200191906001019062000204565b5b50905062000231919062000235565b5090565b5b808211156200025057600081600090555060010162000236565b5090565b600060028204905060018216806200026d57607f821691505b602082108114156200028457620002836200028a565b5b50919050565b7f4e487b7100000000000000000000000000000000000000000000000000000000600052602260045260246000fd5b6152d580620002c96000396000f3fe6080604052600436106101cd5760003560e01c80636352211e116100f7578063ab1392d411610095578063d754e7ec11610064578063d754e7ec146106aa578063e985e9c5146106ec578063f2fde38b14610729578063f645ad0a14610752576101cd565b8063ab1392d4146105de578063b88d4fde14610607578063c87b56dd14610630578063ce6fb23f1461066d576101cd565b806382d12db1116100d157806382d12db1146105225780638da5cb5b1461055f57806395d89b411461058a578063a22cb465146105b5576101cd565b80636352211e1461049157806370a08231146104ce578063715018a61461050b576101cd565b806318160ddd1161016f57806342842e0e1161013e57806342842e0e146103eb5780634451d89f146104145780634f6ccce71461042b57806351cff8d914610468576101cd565b806318160ddd1461033157806323b872dd1461035c5780632f745c5914610385578063392ee79d146103c2576101cd565b806306fdde03116101ab57806306fdde0314610263578063081812fc1461028e578063095ea7b3146102cb578063097b87cb146102f4576101cd565b806301ffc9a7146101d257806305435fb11461020f5780630668dcaa14610226575b600080fd5b3480156101de57600080fd5b506101f960048036038101906101f49190613a9c565b61076e565b604051610206919061419c565b60405180910390f35b34801561021b57600080fd5b50610224610780565b005b34801561023257600080fd5b5061024d60048036038101906102489190613aee565b6107e4565b60405161025a9190614135565b60405180910390f35b34801561026f57600080fd5b50610278610817565b604051610285919061421f565b60405180910390f35b34801561029a57600080fd5b506102b560048036038101906102b09190613aee565b6108a9565b6040516102c29190614135565b60405180910390f35b3480156102d757600080fd5b506102f260048036038101906102ed9190613a60565b61092e565b005b34801561030057600080fd5b5061031b60048036038101906103169190613874565b610a46565b60405161032891906144a1565b60405180910390f35b34801561033d57600080fd5b50610346610a92565b60405161035391906144a1565b60405180910390f35b34801561036857600080fd5b50610383600480360381019061037e9190613902565b610a9f565b005b34801561039157600080fd5b506103ac60048036038101906103a79190613a60565b610ae5565b6040516103b991906144a1565b60405180910390f35b3480156103ce57600080fd5b506103e960048036038101906103e49190613aee565b610b8a565b005b3480156103f757600080fd5b50610412600480360381019061040d9190613902565b610c3d565b005b34801561042057600080fd5b50610429610c83565b005b34801561043757600080fd5b50610452600480360381019061044d9190613aee565b610fad565b60405161045f91906144a1565b60405180910390f35b34801561047457600080fd5b5061048f600480360381019061048a919061389d565b611044565b005b34801561049d57600080fd5b506104b860048036038101906104b39190613aee565b61121e565b6040516104c59190614135565b60405180910390f35b3480156104da57600080fd5b506104f560048036038101906104f09190613874565b6112d0565b60405161050291906144a1565b60405180910390f35b34801561051757600080fd5b50610520611388565b005b34801561052e57600080fd5b5061054960048036038101906105449190613aee565b611410565b60405161055691906144a1565b60405180910390f35b34801561056b57600080fd5b50610574611455565b6040516105819190614135565b60405180910390f35b34801561059657600080fd5b5061059f61147e565b6040516105ac919061421f565b60405180910390f35b3480156105c157600080fd5b506105dc60048036038101906105d791906139cc565b611510565b005b3480156105ea57600080fd5b5061060560048036038101906106009190613a08565b611691565b005b34801561061357600080fd5b5061062e60048036038101906106299190613951565b6119ab565b005b34801561063c57600080fd5b5061065760048036038101906106529190613aee565b6119b1565b604051610664919061421f565b60405180910390f35b34801561067957600080fd5b50610694600480360381019061068f9190613874565b61204f565b6040516106a191906144a1565b60405180910390f35b3480156106b657600080fd5b506106d160048036038101906106cc9190613874565b612067565b6040516106e3969594939291906141b7565b60405180910390f35b3480156106f857600080fd5b50610713600480360381019061070e91906138c6565b612152565b604051610720919061419c565b60405180910390f35b34801561073557600080fd5b50610750600480360381019061074b9190613874565b6121e6565b005b61076c60048036038101906107679190613a08565b6122de565b005b600061077982612643565b9050919050565b6000600c600061078e6126bd565b73ffffffffffffffffffffffffffffffffffffffff1673ffffffffffffffffffffffffffffffffffffffff16815260200190815260200160002060000160016101000a81548160ff021916908315150217905550565b600d6020528060005260406000206000915054906101000a900473ffffffffffffffffffffffffffffffffffffffff1681565b60606001805461082690614747565b80601f016020809104026020016040519081016040528092919081815260200182805461085290614747565b801561089f5780601f106108745761010080835404028352916020019161089f565b820191906000526020600020905b81548152906001019060200180831161088257829003601f168201915b5050505050905090565b60006108b4826126c5565b6108f3576040517f08c379a00000000000000000000000000000000000000000000000000000000081526004016108ea906143c1565b60405180910390fd5b6005600083815260200190815260200160002060009054906101000a900473ffffffffffffffffffffffffffffffffffffffff169050919050565b60006109398261121e565b90508073ffffffffffffffffffffffffffffffffffffffff168373ffffffffffffffffffffffffffffffffffffffff1614156109aa576040517f08c379a00000000000000000000000000000000000000000000000000000000081526004016109a190614421565b60405180910390fd5b8073ffffffffffffffffffffffffffffffffffffffff166109c96126bd565b73ffffffffffffffffffffffffffffffffffffffff1614806109f857506109f7816109f26126bd565b612152565b5b610a37576040517f08c379a0000000000000000000000000000000000000000000000000000000008152600401610a2e90614341565b60405180910390fd5b610a418383612731565b505050565b6000600c60008373ffffffffffffffffffffffffffffffffffffffff1673ffffffffffffffffffffffffffffffffffffffff168152602001908152602001600020600101549050919050565b6000600980549050905090565b6000610ae0576040517f08c379a0000000000000000000000000000000000000000000000000000000008152600401610ad790614461565b60405180910390fd5b505050565b6000610af0836112d0565b8210610b31576040517f08c379a0000000000000000000000000000000000000000000000000000000008152600401610b2890614261565b60405180910390fd5b600760008473ffffffffffffffffffffffffffffffffffffffff1673ffffffffffffffffffffffffffffffffffffffff168152602001908152602001600020600083815260200190815260200160002054905092915050565b6001600c6000610b986126bd565b73ffffffffffffffffffffffffffffffffffffffff1673ffffffffffffffffffffffffffffffffffffffff16815260200190815260200160002060000160016101000a81548160ff02191690831515021790555080600c6000610bf96126bd565b73ffffffffffffffffffffffffffffffffffffffff1673ffffffffffffffffffffffffffffffffffffffff1681526020019081526020016000206001018190555050565b6000610c7e576040517f08c379a0000000000000000000000000000000000000000000000000000000008152600401610c7590614461565b60405180910390fd5b505050565b60001515600c6000610c936126bd565b73ffffffffffffffffffffffffffffffffffffffff1673ffffffffffffffffffffffffffffffffffffffff16815260200190815260200160002060000160009054906101000a900460ff16151514610d20576040517f08c379a0000000000000000000000000000000000000000000000000000000008152600401610d17906142e1565b60405180910390fd5b610d2a600b6127ea565b6000610d36600b612800565b9050610d406126bd565b600d600083815260200190815260200160002060006101000a81548173ffffffffffffffffffffffffffffffffffffffff021916908373ffffffffffffffffffffffffffffffffffffffff1602179055506001600c6000610d9f6126bd565b73ffffffffffffffffffffffffffffffffffffffff1673ffffffffffffffffffffffffffffffffffffffff16815260200190815260200160002060000160006101000a81548160ff0219169083151502179055506001600c6000610e016126bd565b73ffffffffffffffffffffffffffffffffffffffff1673ffffffffffffffffffffffffffffffffffffffff16815260200190815260200160002060020160006101000a81548160ff0219169083151502179055506000600c6000610e636126bd565b73ffffffffffffffffffffffffffffffffffffffff1673ffffffffffffffffffffffffffffffffffffffff16815260200190815260200160002060000160016101000a81548160ff0219169083151502179055506040518060400160405280601381526020017f697473206e69636520746f2073656520796f7500000000000000000000000000815250600c6000610ef96126bd565b73ffffffffffffffffffffffffffffffffffffffff1673ffffffffffffffffffffffffffffffffffffffff1681526020019081526020016000206003019080519060200190610f4992919061361b565b506000600c6000610f586126bd565b73ffffffffffffffffffffffffffffffffffffffff1673ffffffffffffffffffffffffffffffffffffffff168152602001908152602001600020600f0181905550610faa610fa46126bd565b8261280e565b50565b6000610fb7610a92565b8210610ff8576040517f08c379a0000000000000000000000000000000000000000000000000000000008152600401610fef90614441565b60405180910390fd5b60098281548110611032577f4e487b7100000000000000000000000000000000000000000000000000000000600052603260045260246000fd5b90600052602060002001549050919050565b8073ffffffffffffffffffffffffffffffffffffffff166110636126bd565b73ffffffffffffffffffffffffffffffffffffffff16146110b9576040517f08c379a00000000000000000000000000000000000000000000000000000000081526004016110b0906143e1565b60405180910390fd5b6000600e60006110c76126bd565b73ffffffffffffffffffffffffffffffffffffffff1673ffffffffffffffffffffffffffffffffffffffff1681526020019081526020016000205411611142576040517f08c379a000000000000000000000000000000000000000000000000000000000815260040161113990614321565b60405180910390fd5b8073ffffffffffffffffffffffffffffffffffffffff166108fc600e60006111686126bd565b73ffffffffffffffffffffffffffffffffffffffff1673ffffffffffffffffffffffffffffffffffffffff168152602001908152602001600020549081150290604051600060405180830381858888f193505050501580156111ce573d6000803e3d6000fd5b506000600e60006111dd6126bd565b73ffffffffffffffffffffffffffffffffffffffff1673ffffffffffffffffffffffffffffffffffffffff1681526020019081526020016000208190555050565b6000806003600084815260200190815260200160002060009054906101000a900473ffffffffffffffffffffffffffffffffffffffff169050600073ffffffffffffffffffffffffffffffffffffffff168173ffffffffffffffffffffffffffffffffffffffff1614156112c7576040517f08c379a00000000000000000000000000000000000000000000000000000000081526004016112be90614381565b60405180910390fd5b80915050919050565b60008073ffffffffffffffffffffffffffffffffffffffff168273ffffffffffffffffffffffffffffffffffffffff161415611341576040517f08c379a000000000000000000000000000000000000000000000000000000000815260040161133890614361565b60405180910390fd5b600460008373ffffffffffffffffffffffffffffffffffffffff1673ffffffffffffffffffffffffffffffffffffffff168152602001908152602001600020549050919050565b6113906126bd565b73ffffffffffffffffffffffffffffffffffffffff166113ae611455565b73ffffffffffffffffffffffffffffffffffffffff1614611404576040517f08c379a00000000000000000000000000000000000000000000000000000000081526004016113fb90614401565b60405180910390fd5b61140e600061282c565b565b600061144e600d600084815260200190815260200160002060009054906101000a900473ffffffffffffffffffffffffffffffffffffffff16610a46565b9050919050565b60008060009054906101000a900473ffffffffffffffffffffffffffffffffffffffff16905090565b60606002805461148d90614747565b80601f01602080910402602001604051908101604052809291908181526020018280546114b990614747565b80156115065780601f106114db57610100808354040283529160200191611506565b820191906000526020600020905b8154815290600101906020018083116114e957829003601f168201915b5050505050905090565b6115186126bd565b73ffffffffffffffffffffffffffffffffffffffff168273ffffffffffffffffffffffffffffffffffffffff161415611586576040517f08c379a000000000000000000000000000000000000000000000000000000000815260040161157d90614301565b60405180910390fd5b80600660006115936126bd565b73ffffffffffffffffffffffffffffffffffffffff1673ffffffffffffffffffffffffffffffffffffffff16815260200190815260200160002060008473ffffffffffffffffffffffffffffffffffffffff1673ffffffffffffffffffffffffffffffffffffffff16815260200190815260200160002060006101000a81548160ff0219169083151502179055508173ffffffffffffffffffffffffffffffffffffffff166116406126bd565b73ffffffffffffffffffffffffffffffffffffffff167f17307eab39ab6107e8899845ad3d59bd9653f200f220920489ca2b5937696c3183604051611685919061419c565b60405180910390a35050565b600c60008473ffffffffffffffffffffffffffffffffffffffff1673ffffffffffffffffffffffffffffffffffffffff16815260200190815260200160002060000160019054906101000a900460ff1615611721576040517f08c379a000000000000000000000000000000000000000000000000000000000815260040161171890614241565b60405180910390fd5b8181600c60008673ffffffffffffffffffffffffffffffffffffffff1673ffffffffffffffffffffffffffffffffffffffff168152602001908152602001600020600401600061176f6126bd565b73ffffffffffffffffffffffffffffffffffffffff1673ffffffffffffffffffffffffffffffffffffffff16815260200190815260200160002091906117b69291906136a1565b506117bf6126bd565b600c60008573ffffffffffffffffffffffffffffffffffffffff1673ffffffffffffffffffffffffffffffffffffffff168152602001908152602001600020600501600c60008673ffffffffffffffffffffffffffffffffffffffff1673ffffffffffffffffffffffffffffffffffffffff168152602001908152602001600020600f0154600a811061187b577f4e487b7100000000000000000000000000000000000000000000000000000000600052603260045260246000fd5b0160006101000a81548173ffffffffffffffffffffffffffffffffffffffff021916908373ffffffffffffffffffffffffffffffffffffffff160217905550600c60008473ffffffffffffffffffffffffffffffffffffffff1673ffffffffffffffffffffffffffffffffffffffff168152602001908152602001600020600f01600081548092919061190d906147aa565b91905055506009600c60008573ffffffffffffffffffffffffffffffffffffffff1673ffffffffffffffffffffffffffffffffffffffff168152602001908152602001600020600f015411156119a6576000600c60008573ffffffffffffffffffffffffffffffffffffffff1673ffffffffffffffffffffffffffffffffffffffff168152602001908152602001600020600f01819055505b505050565b50505050565b60606000600c6000600d600086815260200190815260200160002060009054906101000a900473ffffffffffffffffffffffffffffffffffffffff1673ffffffffffffffffffffffffffffffffffffffff1673ffffffffffffffffffffffffffffffffffffffff168152602001908152602001600020600501600a806020026040519081016040528092919082600a8015611a97576020028201915b8160009054906101000a900473ffffffffffffffffffffffffffffffffffffffff1673ffffffffffffffffffffffffffffffffffffffff1681526020019060010190808311611a4d575b505050505090506000604051806102a0016040528061027f8152602001614ee261027f9139600c6000600d600088815260200190815260200160002060009054906101000a900473ffffffffffffffffffffffffffffffffffffffff1673ffffffffffffffffffffffffffffffffffffffff1673ffffffffffffffffffffffffffffffffffffffff168152602001908152602001600020600301604051602001611b42929190614026565b60405160208183030381529060405290506000805b600a811015611cbb576000601482611b6f91906145f1565b6032611b7b919061456a565b90508280611b88906147aa565b93505083611b95826128f0565b600c6000600d60008c815260200190815260200160002060009054906101000a900473ffffffffffffffffffffffffffffffffffffffff1673ffffffffffffffffffffffffffffffffffffffff1673ffffffffffffffffffffffffffffffffffffffff16815260200190815260200160002060040160008886600a8110611c45577f4e487b7100000000000000000000000000000000000000000000000000000000600052603260045260246000fd5b602002015173ffffffffffffffffffffffffffffffffffffffff1673ffffffffffffffffffffffffffffffffffffffff168152602001908152602001600020604051602001611c969392919061408f565b6040516020818303038152906040529350508080611cb3906147aa565b915050611b57565b50600c6000600d600088815260200190815260200160002060009054906101000a900473ffffffffffffffffffffffffffffffffffffffff1673ffffffffffffffffffffffffffffffffffffffff1673ffffffffffffffffffffffffffffffffffffffff16815260200190815260200160002060000160019054906101000a900460ff1615611de65781611dc3600c6000600d60008a815260200190815260200160002060009054906101000a900473ffffffffffffffffffffffffffffffffffffffff1673ffffffffffffffffffffffffffffffffffffffff1673ffffffffffffffffffffffffffffffffffffffff168152602001908152602001600020600101546128f0565b604051602001611dd4929190614055565b60405160208183030381529060405291505b816040518060a001604052806076815260200161516160769139604051602001611e11929190613fd1565b604051602081830303815290604052915060006040518060400160405280600981526020017f6c696d65677265656e00000000000000000000000000000000000000000000008152509050600c6000600d600089815260200190815260200160002060009054906101000a900473ffffffffffffffffffffffffffffffffffffffff1673ffffffffffffffffffffffffffffffffffffffff1673ffffffffffffffffffffffffffffffffffffffff16815260200190815260200160002060020160009054906101000a900460ff16611f1c576040518060400160405280600381526020017f726564000000000000000000000000000000000000000000000000000000000081525090505b82816040518060400160405280600981526020017f222f3e3c2f7376673e0000000000000000000000000000000000000000000000815250604051602001611f6693929190613ff5565b60405160208183030381529060405292506000611fe7611f85886128f0565b6040518060a001604052806065815260200161523b606591396040518060600160405280602481526020016151d760249139611fc088612a9d565b604051602001611fd394939291906140e1565b604051602081830303815290604052612a9d565b90506040518060400160405280601d81526020017f646174613a6170706c69636174696f6e2f6a736f6e3b6261736536342c00000081525081604051602001612031929190613fd1565b60405160208183030381529060405293508395505050505050919050565b600e6020528060005260406000206000915090505481565b600c6020528060005260406000206000915090508060000160009054906101000a900460ff16908060000160019054906101000a900460ff16908060010154908060020160009054906101000a900460ff16908060030180546120c990614747565b80601f01602080910402602001604051908101604052809291908181526020018280546120f590614747565b80156121425780601f1061211757610100808354040283529160200191612142565b820191906000526020600020905b81548152906001019060200180831161212557829003601f168201915b50505050509080600f0154905086565b6000600660008473ffffffffffffffffffffffffffffffffffffffff1673ffffffffffffffffffffffffffffffffffffffff16815260200190815260200160002060008373ffffffffffffffffffffffffffffffffffffffff1673ffffffffffffffffffffffffffffffffffffffff16815260200190815260200160002060009054906101000a900460ff16905092915050565b6121ee6126bd565b73ffffffffffffffffffffffffffffffffffffffff1661220c611455565b73ffffffffffffffffffffffffffffffffffffffff1614612262576040517f08c379a000000000000000000000000000000000000000000000000000000000815260040161225990614401565b60405180910390fd5b600073ffffffffffffffffffffffffffffffffffffffff168173ffffffffffffffffffffffffffffffffffffffff1614156122d2576040517f08c379a00000000000000000000000000000000000000000000000000000000081526004016122c9906142a1565b60405180910390fd5b6122db8161282c565b50565b600c60008473ffffffffffffffffffffffffffffffffffffffff1673ffffffffffffffffffffffffffffffffffffffff16815260200190815260200160002060010154341015612363576040517f08c379a000000000000000000000000000000000000000000000000000000000815260040161235a90614481565b60405180910390fd5b8181600c60008673ffffffffffffffffffffffffffffffffffffffff1673ffffffffffffffffffffffffffffffffffffffff16815260200190815260200160002060040160006123b16126bd565b73ffffffffffffffffffffffffffffffffffffffff1673ffffffffffffffffffffffffffffffffffffffff16815260200190815260200160002091906123f89291906136a1565b506124016126bd565b600c60008573ffffffffffffffffffffffffffffffffffffffff1673ffffffffffffffffffffffffffffffffffffffff168152602001908152602001600020600501600c60008673ffffffffffffffffffffffffffffffffffffffff1673ffffffffffffffffffffffffffffffffffffffff168152602001908152602001600020600f0154600a81106124bd577f4e487b7100000000000000000000000000000000000000000000000000000000600052603260045260246000fd5b0160006101000a81548173ffffffffffffffffffffffffffffffffffffffff021916908373ffffffffffffffffffffffffffffffffffffffff160217905550600c60008473ffffffffffffffffffffffffffffffffffffffff1673ffffffffffffffffffffffffffffffffffffffff168152602001908152602001600020600f01600081548092919061254f906147aa565b91905055506009600c60008573ffffffffffffffffffffffffffffffffffffffff1673ffffffffffffffffffffffffffffffffffffffff168152602001908152602001600020600f015411156125e8576000600c60008573ffffffffffffffffffffffffffffffffffffffff1673ffffffffffffffffffffffffffffffffffffffff168152602001908152602001600020600f01819055505b34600e60008573ffffffffffffffffffffffffffffffffffffffff1673ffffffffffffffffffffffffffffffffffffffff1681526020019081526020016000206000828254612637919061456a565b92505081905550505050565b60007f780e9d63000000000000000000000000000000000000000000000000000000007bffffffffffffffffffffffffffffffffffffffffffffffffffffffff1916827bffffffffffffffffffffffffffffffffffffffffffffffffffffffff191614806126b657506126b582612c5b565b5b9050919050565b600033905090565b60008073ffffffffffffffffffffffffffffffffffffffff166003600084815260200190815260200160002060009054906101000a900473ffffffffffffffffffffffffffffffffffffffff1673ffffffffffffffffffffffffffffffffffffffff1614159050919050565b816005600083815260200190815260200160002060006101000a81548173ffffffffffffffffffffffffffffffffffffffff021916908373ffffffffffffffffffffffffffffffffffffffff160217905550808273ffffffffffffffffffffffffffffffffffffffff166127a48361121e565b73ffffffffffffffffffffffffffffffffffffffff167f8c5be1e5ebec7d5bd14f71427d1e84f3dd0314c0f7b2291e5b200ac8c7c3b92560405160405180910390a45050565b6001816000016000828254019250508190555050565b600081600001549050919050565b612828828260405180602001604052806000815250612d3d565b5050565b60008060009054906101000a900473ffffffffffffffffffffffffffffffffffffffff169050816000806101000a81548173ffffffffffffffffffffffffffffffffffffffff021916908373ffffffffffffffffffffffffffffffffffffffff1602179055508173ffffffffffffffffffffffffffffffffffffffff168173ffffffffffffffffffffffffffffffffffffffff167f8be0079c531659141344cd1fd0a4f28419497f9722a3daafe3b4186f6b6457e060405160405180910390a35050565b60606000821415612938576040518060400160405280600181526020017f30000000000000000000000000000000000000000000000000000000000000008152509050612a98565b600082905060005b6000821461296a578080612953906147aa565b915050600a8261296391906145c0565b9150612940565b60008167ffffffffffffffff8111156129ac577f4e487b7100000000000000000000000000000000000000000000000000000000600052604160045260246000fd5b6040519080825280601f01601f1916602001820160405280156129de5781602001600182028036833780820191505090505b5090505b60008514612a91576001826129f7919061464b565b9150600a85612a0691906147f3565b6030612a12919061456a565b60f81b818381518110612a4e577f4e487b7100000000000000000000000000000000000000000000000000000000600052603260045260246000fd5b60200101907effffffffffffffffffffffffffffffffffffffffffffffffffffffffffffff1916908160001a905350600a85612a8a91906145c0565b94506129e2565b8093505050505b919050565b60606000825190506000811415612ac65760405180602001604052806000815250915050612c56565b60006003600283612ad7919061456a565b612ae191906145c0565b6004612aed91906145f1565b90506000602082612afe919061456a565b67ffffffffffffffff811115612b3d577f4e487b7100000000000000000000000000000000000000000000000000000000600052604160045260246000fd5b6040519080825280601f01601f191660200182016040528015612b6f5781602001600182028036833780820191505090505b50905060006040518060600160405280604081526020016151fb604091399050600181016020830160005b86811015612c135760038101905062ffffff818a015116603f8160121c168401518060081b905060ff603f83600c1c1686015116810190508060081b905060ff603f8360061c1686015116810190508060081b905060ff603f831686015116810190508060e01b90508084526004840193505050612b9a565b506003860660018114612c2d5760028114612c3d57612c48565b613d3d60f01b6002830352612c48565b603d60f81b60018303525b508484525050819450505050505b919050565b60007f80ac58cd000000000000000000000000000000000000000000000000000000007bffffffffffffffffffffffffffffffffffffffffffffffffffffffff1916827bffffffffffffffffffffffffffffffffffffffffffffffffffffffff19161480612d2657507f5b5e139f000000000000000000000000000000000000000000000000000000007bffffffffffffffffffffffffffffffffffffffffffffffffffffffff1916827bffffffffffffffffffffffffffffffffffffffffffffffffffffffff1916145b80612d365750612d3582612d98565b5b9050919050565b612d478383612e02565b612d546000848484612fd0565b612d93576040517f08c379a0000000000000000000000000000000000000000000000000000000008152600401612d8a90614281565b60405180910390fd5b505050565b60007f01ffc9a7000000000000000000000000000000000000000000000000000000007bffffffffffffffffffffffffffffffffffffffffffffffffffffffff1916827bffffffffffffffffffffffffffffffffffffffffffffffffffffffff1916149050919050565b600073ffffffffffffffffffffffffffffffffffffffff168273ffffffffffffffffffffffffffffffffffffffff161415612e72576040517f08c379a0000000000000000000000000000000000000000000000000000000008152600401612e69906143a1565b60405180910390fd5b612e7b816126c5565b15612ebb576040517f08c379a0000000000000000000000000000000000000000000000000000000008152600401612eb2906142c1565b60405180910390fd5b612ec760008383613167565b6001600460008473ffffffffffffffffffffffffffffffffffffffff1673ffffffffffffffffffffffffffffffffffffffff1681526020019081526020016000206000828254612f17919061456a565b92505081905550816003600083815260200190815260200160002060006101000a81548173ffffffffffffffffffffffffffffffffffffffff021916908373ffffffffffffffffffffffffffffffffffffffff160217905550808273ffffffffffffffffffffffffffffffffffffffff16600073ffffffffffffffffffffffffffffffffffffffff167fddf252ad1be2c89b69c2b068fc378daa952ba7f163c4a11628f55a4df523b3ef60405160405180910390a45050565b6000612ff18473ffffffffffffffffffffffffffffffffffffffff16613177565b1561315a578373ffffffffffffffffffffffffffffffffffffffff1663150b7a0261301a6126bd565b8786866040518563ffffffff1660e01b815260040161303c9493929190614150565b602060405180830381600087803b15801561305657600080fd5b505af192505050801561308757506040513d601f19601f820116820180604052508101906130849190613ac5565b60015b61310a573d80600081146130b7576040519150601f19603f3d011682016040523d82523d6000602084013e6130bc565b606091505b50600081511415613102576040517f08c379a00000000000000000000000000000000000000000000000000000000081526004016130f990614281565b60405180910390fd5b805181602001fd5b63150b7a0260e01b7bffffffffffffffffffffffffffffffffffffffffffffffffffffffff1916817bffffffffffffffffffffffffffffffffffffffffffffffffffffffff19161491505061315f565b600190505b949350505050565b61317283838361318a565b505050565b600080823b905060008111915050919050565b61319583838361329e565b600073ffffffffffffffffffffffffffffffffffffffff168373ffffffffffffffffffffffffffffffffffffffff1614156131d8576131d3816132a3565b613217565b8173ffffffffffffffffffffffffffffffffffffffff168373ffffffffffffffffffffffffffffffffffffffff16146132165761321583826132ec565b5b5b600073ffffffffffffffffffffffffffffffffffffffff168273ffffffffffffffffffffffffffffffffffffffff16141561325a5761325581613459565b613299565b8273ffffffffffffffffffffffffffffffffffffffff168273ffffffffffffffffffffffffffffffffffffffff161461329857613297828261359c565b5b5b505050565b505050565b600980549050600a600083815260200190815260200160002081905550600981908060018154018082558091505060019003906000526020600020016000909190919091505550565b600060016132f9846112d0565b613303919061464b565b90506000600860008481526020019081526020016000205490508181146133e8576000600760008673ffffffffffffffffffffffffffffffffffffffff1673ffffffffffffffffffffffffffffffffffffffff168152602001908152602001600020600084815260200190815260200160002054905080600760008773ffffffffffffffffffffffffffffffffffffffff1673ffffffffffffffffffffffffffffffffffffffff168152602001908152602001600020600084815260200190815260200160002081905550816008600083815260200190815260200160002081905550505b6008600084815260200190815260200160002060009055600760008573ffffffffffffffffffffffffffffffffffffffff1673ffffffffffffffffffffffffffffffffffffffff16815260200190815260200160002060008381526020019081526020016000206000905550505050565b6000600160098054905061346d919061464b565b90506000600a60008481526020019081526020016000205490506000600983815481106134c3577f4e487b7100000000000000000000000000000000000000000000000000000000600052603260045260246000fd5b90600052602060002001549050806009838154811061350b577f4e487b7100000000000000000000000000000000000000000000000000000000600052603260045260246000fd5b906000526020600020018190555081600a600083815260200190815260200160002081905550600a6000858152602001908152602001600020600090556009805480613580577f4e487b7100000000000000000000000000000000000000000000000000000000600052603160045260246000fd5b6001900381819060005260206000200160009055905550505050565b60006135a7836112d0565b905081600760008573ffffffffffffffffffffffffffffffffffffffff1673ffffffffffffffffffffffffffffffffffffffff168152602001908152602001600020600083815260200190815260200160002081905550806008600084815260200190815260200160002081905550505050565b82805461362790614747565b90600052602060002090601f0160209004810192826136495760008555613690565b82601f1061366257805160ff1916838001178555613690565b82800160010185558215613690579182015b8281111561368f578251825591602001919060010190613674565b5b50905061369d9190613727565b5090565b8280546136ad90614747565b90600052602060002090601f0160209004810192826136cf5760008555613716565b82601f106136e857803560ff1916838001178555613716565b82800160010185558215613716579182015b828111156137155782358255916020019190600101906136fa565b5b5090506137239190613727565b5090565b5b80821115613740576000816000905550600101613728565b5090565b6000613757613752846144e1565b6144bc565b90508281526020810184848401111561376f57600080fd5b61377a848285614705565b509392505050565b60008135905061379181614e6e565b92915050565b6000813590506137a681614e85565b92915050565b6000813590506137bb81614e9c565b92915050565b6000813590506137d081614eb3565b92915050565b6000815190506137e581614eb3565b92915050565b600082601f8301126137fc57600080fd5b813561380c848260208601613744565b91505092915050565b60008083601f84011261382757600080fd5b8235905067ffffffffffffffff81111561384057600080fd5b60208301915083600182028301111561385857600080fd5b9250929050565b60008135905061386e81614eca565b92915050565b60006020828403121561388657600080fd5b600061389484828501613782565b91505092915050565b6000602082840312156138af57600080fd5b60006138bd84828501613797565b91505092915050565b600080604083850312156138d957600080fd5b60006138e785828601613782565b92505060206138f885828601613782565b9150509250929050565b60008060006060848603121561391757600080fd5b600061392586828701613782565b935050602061393686828701613782565b92505060406139478682870161385f565b9150509250925092565b6000806000806080858703121561396757600080fd5b600061397587828801613782565b945050602061398687828801613782565b93505060406139978782880161385f565b925050606085013567ffffffffffffffff8111156139b457600080fd5b6139c0878288016137eb565b91505092959194509250565b600080604083850312156139df57600080fd5b60006139ed85828601613782565b92505060206139fe858286016137ac565b9150509250929050565b600080600060408486031215613a1d57600080fd5b6000613a2b86828701613782565b935050602084013567ffffffffffffffff811115613a4857600080fd5b613a5486828701613815565b92509250509250925092565b60008060408385031215613a7357600080fd5b6000613a8185828601613782565b9250506020613a928582860161385f565b9150509250929050565b600060208284031215613aae57600080fd5b6000613abc848285016137c1565b91505092915050565b600060208284031215613ad757600080fd5b6000613ae5848285016137d6565b91505092915050565b600060208284031215613b0057600080fd5b6000613b0e8482850161385f565b91505092915050565b613b208161467f565b82525050565b613b2f816146a3565b82525050565b6000613b4082614527565b613b4a818561453d565b9350613b5a818560208601614714565b613b63816148e0565b840191505092915050565b6000613b7982614532565b613b83818561454e565b9350613b93818560208601614714565b613b9c816148e0565b840191505092915050565b6000613bb282614532565b613bbc818561455f565b9350613bcc818560208601614714565b80840191505092915050565b60008154613be581614747565b613bef818661455f565b94506001821660008114613c0a5760018114613c1b57613c4e565b60ff19831686528186019350613c4e565b613c2485614512565b60005b83811015613c4657815481890152600182019150602081019050613c27565b838801955050505b50505092915050565b6000613c6460368361455f565b9150613c6f826148f1565b603682019050919050565b6000613c8760148361454e565b9150613c9282614940565b602082019050919050565b6000613caa602b8361454e565b9150613cb582614969565b604082019050919050565b6000613ccd60328361454e565b9150613cd8826149b8565b604082019050919050565b6000613cf060268361454e565b9150613cfb82614a07565b604082019050919050565b6000613d13601c8361454e565b9150613d1e82614a56565b602082019050919050565b6000613d36600f8361454e565b9150613d4182614a7f565b602082019050919050565b6000613d5960198361454e565b9150613d6482614aa8565b602082019050919050565b6000613d7c60148361454e565b9150613d8782614ad1565b602082019050919050565b6000613d9f60388361454e565b9150613daa82614afa565b604082019050919050565b6000613dc2602a8361454e565b9150613dcd82614b49565b604082019050919050565b6000613de560298361454e565b9150613df082614b98565b604082019050919050565b6000613e0860028361455f565b9150613e1382614be7565b600282019050919050565b6000613e2b60078361455f565b9150613e3682614c10565b600782019050919050565b6000613e4e60208361454e565b9150613e5982614c39565b602082019050919050565b6000613e71602c8361454e565b9150613e7c82614c62565b604082019050919050565b6000613e9460098361454e565b9150613e9f82614cb1565b602082019050919050565b6000613eb760208361454e565b9150613ec282614cda565b602082019050919050565b6000613eda60108361455f565b9150613ee582614d03565b601082019050919050565b6000613efd60218361454e565b9150613f0882614d2c565b604082019050919050565b6000613f20600f8361455f565b9150613f2b82614d7b565b600f82019050919050565b6000613f4360138361455f565b9150613f4e82614da4565b601382019050919050565b6000613f66602c8361454e565b9150613f7182614dcd565b604082019050919050565b6000613f89601a8361454e565b9150613f9482614e1c565b602082019050919050565b6000613fac60118361454e565b9150613fb782614e45565b602082019050919050565b613fcb816146fb565b82525050565b6000613fdd8285613ba7565b9150613fe98284613ba7565b91508190509392505050565b60006140018286613ba7565b915061400d8285613ba7565b91506140198284613ba7565b9150819050949350505050565b60006140328285613ba7565b915061403e8284613bd8565b915061404982613e1e565b91508190509392505050565b60006140618285613ba7565b915061406c82613c57565b91506140788284613ba7565b915061408382613e1e565b91508190509392505050565b600061409b8286613ba7565b91506140a682613ecd565b91506140b28285613ba7565b91506140bd82613f13565b91506140c98284613bd8565b91506140d482613e1e565b9150819050949350505050565b60006140ec82613f36565b91506140f88287613ba7565b91506141048286613ba7565b91506141108285613ba7565b915061411c8284613ba7565b915061412782613dfb565b915081905095945050505050565b600060208201905061414a6000830184613b17565b92915050565b60006080820190506141656000830187613b17565b6141726020830186613b17565b61417f6040830185613fc2565b81810360608301526141918184613b35565b905095945050505050565b60006020820190506141b16000830184613b26565b92915050565b600060c0820190506141cc6000830189613b26565b6141d96020830188613b26565b6141e66040830187613fc2565b6141f36060830186613b26565b81810360808301526142058185613b6e565b905061421460a0830184613fc2565b979650505050505050565b600060208201905081810360008301526142398184613b6e565b905092915050565b6000602082019050818103600083015261425a81613c7a565b9050919050565b6000602082019050818103600083015261427a81613c9d565b9050919050565b6000602082019050818103600083015261429a81613cc0565b9050919050565b600060208201905081810360008301526142ba81613ce3565b9050919050565b600060208201905081810360008301526142da81613d06565b9050919050565b600060208201905081810360008301526142fa81613d29565b9050919050565b6000602082019050818103600083015261431a81613d4c565b9050919050565b6000602082019050818103600083015261433a81613d6f565b9050919050565b6000602082019050818103600083015261435a81613d92565b9050919050565b6000602082019050818103600083015261437a81613db5565b9050919050565b6000602082019050818103600083015261439a81613dd8565b9050919050565b600060208201905081810360008301526143ba81613e41565b9050919050565b600060208201905081810360008301526143da81613e64565b9050919050565b600060208201905081810360008301526143fa81613e87565b9050919050565b6000602082019050818103600083015261441a81613eaa565b9050919050565b6000602082019050818103600083015261443a81613ef0565b9050919050565b6000602082019050818103600083015261445a81613f59565b9050919050565b6000602082019050818103600083015261447a81613f7c565b9050919050565b6000602082019050818103600083015261449a81613f9f565b9050919050565b60006020820190506144b66000830184613fc2565b92915050565b60006144c66144d7565b90506144d28282614779565b919050565b6000604051905090565b600067ffffffffffffffff8211156144fc576144fb6148b1565b5b614505826148e0565b9050602081019050919050565b60008190508160005260206000209050919050565b600081519050919050565b600081519050919050565b600082825260208201905092915050565b600082825260208201905092915050565b600081905092915050565b6000614575826146fb565b9150614580836146fb565b9250827fffffffffffffffffffffffffffffffffffffffffffffffffffffffffffffffff038211156145b5576145b4614824565b5b828201905092915050565b60006145cb826146fb565b91506145d6836146fb565b9250826145e6576145e5614853565b5b828204905092915050565b60006145fc826146fb565b9150614607836146fb565b9250817fffffffffffffffffffffffffffffffffffffffffffffffffffffffffffffffff04831182151516156146405761463f614824565b5b828202905092915050565b6000614656826146fb565b9150614661836146fb565b92508282101561467457614673614824565b5b828203905092915050565b600061468a826146db565b9050919050565b600061469c826146db565b9050919050565b60008115159050919050565b60007fffffffff0000000000000000000000000000000000000000000000000000000082169050919050565b600073ffffffffffffffffffffffffffffffffffffffff82169050919050565b6000819050919050565b82818337600083830152505050565b60005b83811015614732578082015181840152602081019050614717565b83811115614741576000848401525b50505050565b6000600282049050600182168061475f57607f821691505b6020821081141561477357614772614882565b5b50919050565b614782826148e0565b810181811067ffffffffffffffff821117156147a1576147a06148b1565b5b80604052505050565b60006147b5826146fb565b91507fffffffffffffffffffffffffffffffffffffffffffffffffffffffffffffffff8214156147e8576147e7614824565b5b600182019050919050565b60006147fe826146fb565b9150614809836146fb565b92508261481957614818614853565b5b828206905092915050565b7f4e487b7100000000000000000000000000000000000000000000000000000000600052601160045260246000fd5b7f4e487b7100000000000000000000000000000000000000000000000000000000600052601260045260246000fd5b7f4e487b7100000000000000000000000000000000000000000000000000000000600052602260045260246000fd5b7f4e487b7100000000000000000000000000000000000000000000000000000000600052604160045260246000fd5b6000601f19601f8301169050919050565b7f3c7465787420783d2232302220793d223338302220636c6173733d227072696360008201527f65223e57726974652050726963652028776569293a2000000000000000000000602082015250565b7f746f6b656e207772697465206e6f742066726565000000000000000000000000600082015250565b7f455243373231456e756d657261626c653a206f776e657220696e646578206f7560008201527f74206f6620626f756e6473000000000000000000000000000000000000000000602082015250565b7f4552433732313a207472616e7366657220746f206e6f6e20455243373231526560008201527f63656976657220696d706c656d656e7465720000000000000000000000000000602082015250565b7f4f776e61626c653a206e6577206f776e657220697320746865207a65726f206160008201527f6464726573730000000000000000000000000000000000000000000000000000602082015250565b7f4552433732313a20746f6b656e20616c7265616479206d696e74656400000000600082015250565b7f616c726561647920636c61696d65640000000000000000000000000000000000600082015250565b7f4552433732313a20617070726f766520746f2063616c6c657200000000000000600082015250565b7f6e6565642065746820746f207769746864726177000000000000000000000000600082015250565b7f4552433732313a20617070726f76652063616c6c6572206973206e6f74206f7760008201527f6e6572206e6f7220617070726f76656420666f7220616c6c0000000000000000602082015250565b7f4552433732313a2062616c616e636520717565727920666f7220746865207a6560008201527f726f206164647265737300000000000000000000000000000000000000000000602082015250565b7f4552433732313a206f776e657220717565727920666f72206e6f6e657869737460008201527f656e7420746f6b656e0000000000000000000000000000000000000000000000602082015250565b7f227d000000000000000000000000000000000000000000000000000000000000600082015250565b7f3c2f746578743e00000000000000000000000000000000000000000000000000600082015250565b7f4552433732313a206d696e7420746f20746865207a65726f2061646472657373600082015250565b7f4552433732313a20617070726f76656420717565727920666f72206e6f6e657860008201527f697374656e7420746f6b656e0000000000000000000000000000000000000000602082015250565b7f6e6f7420796f7572730000000000000000000000000000000000000000000000600082015250565b7f4f776e61626c653a2063616c6c6572206973206e6f7420746865206f776e6572600082015250565b7f3c7465787420783d2232302220793d2200000000000000000000000000000000600082015250565b7f4552433732313a20617070726f76616c20746f2063757272656e74206f776e6560008201527f7200000000000000000000000000000000000000000000000000000000000000602082015250565b7f2220636c6173733d2262617365223e0000000000000000000000000000000000600082015250565b7f7b226e616d65223a20224d657373616765202300000000000000000000000000600082015250565b7f455243373231456e756d657261626c653a20676c6f62616c20696e646578206f60008201527f7574206f6620626f756e64730000000000000000000000000000000000000000602082015250565b7f7472616e73666572696e67206973206e6f7420616c6c6f776564000000000000600082015250565b7f6e6f7420656e6f7567682c206368756d70000000000000000000000000000000600082015250565b614e778161467f565b8114614e8257600080fd5b50565b614e8e81614691565b8114614e9957600080fd5b50565b614ea5816146a3565b8114614eb057600080fd5b50565b614ebc816146af565b8114614ec757600080fd5b50565b614ed3816146fb565b8114614ede57600080fd5b5056fe3c73766720786d6c6e733d22687474703a2f2f7777772e77332e6f72672f323030302f73766722207072657365727665417370656374526174696f3d22784d696e594d696e206d656574222076696577426f783d223020302034303020343030222077696474683d2238303022206865696768743d22383030223e3c646566733e3c6c696e6561724772616469656e742069643d2267726164222078313d2230222078323d2230222079313d2230222079323d2231223e3c73746f70206f66667365743d223025222073746f702d636f6c6f723d2264696d67726579222f3e3c73746f70206f66667365743d22313025222073746f702d636f6c6f723d22626c61636b222f3e3c2f6c696e6561724772616469656e743e3c72616469616c4772616469656e742069643d226772616432222063783d22302e35222063793d22302e392220723d22312e32222066783d22302e35222066793d22302e3922207370726561644d6574686f643d22726570656174223e3c73746f70206f66667365743d223025222073746f702d636f6c6f723d22726564222f3e3c73746f70206f66667365743d2231303025222073746f702d636f6c6f723d22626c7565222f3e3c2f72616469616c4772616469656e743e3c2f646566733e3c7374796c653e2e62617365207b2066696c6c3a79656c6c6f773b666f6e742d66616d696c793a206d6f6e6f73706163653b20666f6e742d73697a653a20313570783b207d3c2f7374796c653e3c7265637420793d2238222077696474683d223130302522206865696768743d2231303025222066696c6c3d2275726c28236772616429222f3e3c7465787420783d2232302220793d2233302220636c6173733d2262617365223e3c726563742077696474683d223130302522206865696768743d2231303025222066696c6c3d226e6f6e6522207374726f6b653d2264696d6772657922207374726f6b652d77696474683d223230222f3e3c636972636c652063783d223230222063793d223339352220723d2233222066696c6c3d2222696d616765223a2022646174613a696d6167652f7376672b786d6c3b6261736536342c4142434445464748494a4b4c4d4e4f505152535455565758595a6162636465666768696a6b6c6d6e6f707172737475767778797a303132333435363738392b2f222c20226465736372697074696f6e223a20224c65646765724d652069732061207075626c6963206c656467657220666f722077616c6c657420746f2077616c6c657420636f6d6d756e69636174696f6e732e2020557365207769746820636172652e222ca26469706673582212202d11e8ee99c1f4c4a654cbc9e2b18b8a00656b9d5502d4a4ffa902335481022964736f6c63430008040033",
  "linkReferences": {},
  "deployedLinkReferences": {}
}