{
  "_format": "hh-sol-artifact-1",
  "contractName": "MessageMeNFT",
  "sourceName": "contracts/MessageNFT.sol",
  "abi": [
    {
      "inputs": [],
      "stateMutability": "nonpayable",
      "type": "constructor"
    },
    {
      "anonymous": false,
      "inputs": [
        {
          "indexed": true,
          "internalType": "address",
          "name": "owner",
          "type": "address"
        },
        {
          "indexed": true,
          "internalType": "address",
          "name": "approved",
          "type": "address"
        },
        {
          "indexed": true,
          "internalType": "uint256",
          "name": "tokenId",
          "type": "uint256"
        }
      ],
      "name": "Approval",
      "type": "event"
    },
    {
      "anonymous": false,
      "inputs": [
        {
          "indexed": true,
          "internalType": "address",
          "name": "owner",
          "type": "address"
        },
        {
          "indexed": true,
          "internalType": "address",
          "name": "operator",
          "type": "address"
        },
        {
          "indexed": false,
          "internalType": "bool",
          "name": "approved",
          "type": "bool"
        }
      ],
      "name": "ApprovalForAll",
      "type": "event"
    },
    {
      "anonymous": false,
      "inputs": [
        {
          "indexed": true,
          "internalType": "address",
          "name": "previousOwner",
          "type": "address"
        },
        {
          "indexed": true,
          "internalType": "address",
          "name": "newOwner",
          "type": "address"
        }
      ],
      "name": "OwnershipTransferred",
      "type": "event"
    },
    {
      "anonymous": false,
      "inputs": [
        {
          "indexed": true,
          "internalType": "address",
          "name": "from",
          "type": "address"
        },
        {
          "indexed": true,
          "internalType": "address",
          "name": "to",
          "type": "address"
        },
        {
          "indexed": true,
          "internalType": "uint256",
          "name": "tokenId",
          "type": "uint256"
        }
      ],
      "name": "Transfer",
      "type": "event"
    },
    {
      "inputs": [
        {
          "internalType": "address",
          "name": "",
          "type": "address"
        }
      ],
      "name": "allLedgers",
      "outputs": [
        {
          "internalType": "bool",
          "name": "claimed",
          "type": "bool"
        },
        {
          "internalType": "bool",
          "name": "isPayable",
          "type": "bool"
        },
        {
          "internalType": "uint256",
          "name": "writePrice",
          "type": "uint256"
        },
        {
          "internalType": "bool",
          "name": "writeActive",
          "type": "bool"
        },
        {
          "internalType": "string",
          "name": "header",
          "type": "string"
        },
        {
          "internalType": "uint256",
          "name": "writeIndex",
          "type": "uint256"
        }
      ],
      "stateMutability": "view",
      "type": "function"
    },
    {
      "inputs": [
        {
          "internalType": "address",
          "name": "to",
          "type": "address"
        },
        {
          "internalType": "uint256",
          "name": "tokenId",
          "type": "uint256"
        }
      ],
      "name": "approve",
      "outputs": [],
      "stateMutability": "nonpayable",
      "type": "function"
    },
    {
      "inputs": [
        {
          "internalType": "address",
          "name": "owner",
          "type": "address"
        }
      ],
      "name": "balanceOf",
      "outputs": [
        {
          "internalType": "uint256",
          "name": "",
          "type": "uint256"
        }
      ],
      "stateMutability": "view",
      "type": "function"
    },
    {
      "inputs": [],
      "name": "claimToken",
      "outputs": [],
      "stateMutability": "nonpayable",
      "type": "function"
    },
    {
      "inputs": [
        {
          "internalType": "address",
          "name": "",
          "type": "address"
        }
      ],
      "name": "ethValues",
      "outputs": [
        {
          "internalType": "uint256",
          "name": "",
          "type": "uint256"
        }
      ],
      "stateMutability": "view",
      "type": "function"
    },
    {
      "inputs": [
        {
          "internalType": "uint256",
          "name": "tokenId",
          "type": "uint256"
        }
      ],
      "name": "getApproved",
      "outputs": [
        {
          "internalType": "address",
          "name": "",
          "type": "address"
        }
      ],
      "stateMutability": "view",
      "type": "function"
    },
    {
      "inputs": [
        {
          "internalType": "address",
          "name": "owner",
          "type": "address"
        },
        {
          "internalType": "address",
          "name": "operator",
          "type": "address"
        }
      ],
      "name": "isApprovedForAll",
      "outputs": [
        {
          "internalType": "bool",
          "name": "",
          "type": "bool"
        }
      ],
      "stateMutability": "view",
      "type": "function"
    },
    {
      "inputs": [],
      "name": "name",
      "outputs": [
        {
          "internalType": "string",
          "name": "",
          "type": "string"
        }
      ],
      "stateMutability": "view",
      "type": "function"
    },
    {
      "inputs": [],
      "name": "owner",
      "outputs": [
        {
          "internalType": "address",
          "name": "",
          "type": "address"
        }
      ],
      "stateMutability": "view",
      "type": "function"
    },
    {
      "inputs": [
        {
          "internalType": "uint256",
          "name": "tokenId",
          "type": "uint256"
        }
      ],
      "name": "ownerOf",
      "outputs": [
        {
          "internalType": "address",
          "name": "",
          "type": "address"
        }
      ],
      "stateMutability": "view",
      "type": "function"
    },
    {
      "inputs": [],
      "name": "removeWritePrice",
      "outputs": [],
      "stateMutability": "nonpayable",
      "type": "function"
    },
    {
      "inputs": [],
      "name": "renounceOwnership",
      "outputs": [],
      "stateMutability": "nonpayable",
      "type": "function"
    },
    {
      "inputs": [
        {
          "internalType": "address",
          "name": "from",
          "type": "address"
        },
        {
          "internalType": "address",
          "name": "to",
          "type": "address"
        },
        {
          "internalType": "uint256",
          "name": "tokenId",
          "type": "uint256"
        }
      ],
      "name": "safeTransferFrom",
      "outputs": [],
      "stateMutability": "nonpayable",
      "type": "function"
    },
    {
      "inputs": [
        {
          "internalType": "address",
          "name": "from",
          "type": "address"
        },
        {
          "internalType": "address",
          "name": "to",
          "type": "address"
        },
        {
          "internalType": "uint256",
          "name": "tokenId",
          "type": "uint256"
        },
        {
          "internalType": "bytes",
          "name": "_data",
          "type": "bytes"
        }
      ],
      "name": "safeTransferFrom",
      "outputs": [],
      "stateMutability": "nonpayable",
      "type": "function"
    },
    {
      "inputs": [
        {
          "internalType": "address",
          "name": "operator",
          "type": "address"
        },
        {
          "internalType": "bool",
          "name": "approved",
          "type": "bool"
        }
      ],
      "name": "setApprovalForAll",
      "outputs": [],
      "stateMutability": "nonpayable",
      "type": "function"
    },
    {
      "inputs": [
        {
          "internalType": "uint256",
          "name": "writePrice",
          "type": "uint256"
        }
      ],
      "name": "setWritePrice",
      "outputs": [],
      "stateMutability": "nonpayable",
      "type": "function"
    },
    {
      "inputs": [
        {
          "internalType": "bytes4",
          "name": "interfaceId",
          "type": "bytes4"
        }
      ],
      "name": "supportsInterface",
      "outputs": [
        {
          "internalType": "bool",
          "name": "",
          "type": "bool"
        }
      ],
      "stateMutability": "view",
      "type": "function"
    },
    {
      "inputs": [],
      "name": "symbol",
      "outputs": [
        {
          "internalType": "string",
          "name": "",
          "type": "string"
        }
      ],
      "stateMutability": "view",
      "type": "function"
    },
    {
      "inputs": [
        {
          "internalType": "uint256",
          "name": "index",
          "type": "uint256"
        }
      ],
      "name": "tokenByIndex",
      "outputs": [
        {
          "internalType": "uint256",
          "name": "",
          "type": "uint256"
        }
      ],
      "stateMutability": "view",
      "type": "function"
    },
    {
      "inputs": [
        {
          "internalType": "address",
          "name": "owner",
          "type": "address"
        },
        {
          "internalType": "uint256",
          "name": "index",
          "type": "uint256"
        }
      ],
      "name": "tokenOfOwnerByIndex",
      "outputs": [
        {
          "internalType": "uint256",
          "name": "",
          "type": "uint256"
        }
      ],
      "stateMutability": "view",
      "type": "function"
    },
    {
      "inputs": [
        {
          "internalType": "uint256",
          "name": "tokenId",
          "type": "uint256"
        }
      ],
      "name": "tokenURI",
      "outputs": [
        {
          "internalType": "string",
          "name": "",
          "type": "string"
        }
      ],
      "stateMutability": "view",
      "type": "function"
    },
    {
      "inputs": [
        {
          "internalType": "uint256",
          "name": "",
          "type": "uint256"
        }
      ],
      "name": "tokensToAddress",
      "outputs": [
        {
          "internalType": "address",
          "name": "",
          "type": "address"
        }
      ],
      "stateMutability": "view",
      "type": "function"
    },
    {
      "inputs": [],
      "name": "totalSupply",
      "outputs": [
        {
          "internalType": "uint256",
          "name": "",
          "type": "uint256"
        }
      ],
      "stateMutability": "view",
      "type": "function"
    },
    {
      "inputs": [
        {
          "internalType": "address",
          "name": "from",
          "type": "address"
        },
        {
          "internalType": "address",
          "name": "to",
          "type": "address"
        },
        {
          "internalType": "uint256",
          "name": "tokenId",
          "type": "uint256"
        }
      ],
      "name": "transferFrom",
      "outputs": [],
      "stateMutability": "nonpayable",
      "type": "function"
    },
    {
      "inputs": [
        {
          "internalType": "address",
          "name": "newOwner",
          "type": "address"
        }
      ],
      "name": "transferOwnership",
      "outputs": [],
      "stateMutability": "nonpayable",
      "type": "function"
    },
    {
      "inputs": [
        {
          "internalType": "address payable",
          "name": "wallet",
          "type": "address"
        }
      ],
      "name": "withdraw",
      "outputs": [],
      "stateMutability": "nonpayable",
      "type": "function"
    },
    {
      "inputs": [
        {
          "internalType": "address",
          "name": "userAddress",
          "type": "address"
        },
        {
          "internalType": "string",
          "name": "message",
          "type": "string"
        }
      ],
      "name": "writeFree",
      "outputs": [],
      "stateMutability": "nonpayable",
      "type": "function"
    },
    {
      "inputs": [
        {
          "internalType": "address",
          "name": "userAddress",
          "type": "address"
        },
        {
          "internalType": "string",
          "name": "message",
          "type": "string"
        }
      ],
      "name": "writePayable",
      "outputs": [],
      "stateMutability": "payable",
      "type": "function"
    }
  ],
  "bytecode": "0x60806040523480156200001157600080fd5b506040518060400160405280600981526020017f4d6573736167654d6500000000000000000000000000000000000000000000008152506040518060400160405280600381526020017f4d534700000000000000000000000000000000000000000000000000000000008152506200009e62000092620000d860201b60201c565b620000e060201b60201c565b8160019080519060200190620000b6929190620001a4565b508060029080519060200190620000cf929190620001a4565b505050620002b9565b600033905090565b60008060009054906101000a900473ffffffffffffffffffffffffffffffffffffffff169050816000806101000a81548173ffffffffffffffffffffffffffffffffffffffff021916908373ffffffffffffffffffffffffffffffffffffffff1602179055508173ffffffffffffffffffffffffffffffffffffffff168173ffffffffffffffffffffffffffffffffffffffff167f8be0079c531659141344cd1fd0a4f28419497f9722a3daafe3b4186f6b6457e060405160405180910390a35050565b828054620001b29062000254565b90600052602060002090601f016020900481019282620001d6576000855562000222565b82601f10620001f157805160ff191683800117855562000222565b8280016001018555821562000222579182015b828111156200022157825182559160200191906001019062000204565b5b50905062000231919062000235565b5090565b5b808211156200025057600081600090555060010162000236565b5090565b600060028204905060018216806200026d57607f821691505b602082108114156200028457620002836200028a565b5b50919050565b7f4e487b7100000000000000000000000000000000000000000000000000000000600052602260045260246000fd5b614d7b80620002c96000396000f3fe6080604052600436106101b75760003560e01c80636352211e116100ec578063b88d4fde1161008a578063d754e7ec11610064578063d754e7ec1461061a578063e985e9c51461065c578063f2fde38b14610699578063f645ad0a146106c2576101b7565b8063b88d4fde14610577578063c87b56dd146105a0578063ce6fb23f146105dd576101b7565b80638da5cb5b116100c65780638da5cb5b146104cf57806395d89b41146104fa578063a22cb46514610525578063ab1392d41461054e576101b7565b80636352211e1461043e57806370a082311461047b578063715018a6146104b8576101b7565b806323b872dd1161015957806342842e0e1161013357806342842e0e146103985780634451d89f146103c15780634f6ccce7146103d857806351cff8d914610415576101b7565b806323b872dd146103095780632f745c5914610332578063392ee79d1461036f576101b7565b806306fdde031161019557806306fdde031461024d578063081812fc14610278578063095ea7b3146102b557806318160ddd146102de576101b7565b806301ffc9a7146101bc57806305435fb1146101f95780630668dcaa14610210575b600080fd5b3480156101c857600080fd5b506101e360048036038101906101de9190613679565b6106de565b6040516101f09190613cc8565b60405180910390f35b34801561020557600080fd5b5061020e6106f0565b005b34801561021c57600080fd5b50610237600480360381019061023291906136cb565b610754565b6040516102449190613c61565b60405180910390f35b34801561025957600080fd5b50610262610787565b60405161026f9190613d4b565b60405180910390f35b34801561028457600080fd5b5061029f600480360381019061029a91906136cb565b610819565b6040516102ac9190613c61565b60405180910390f35b3480156102c157600080fd5b506102dc60048036038101906102d7919061363d565b61089e565b005b3480156102ea57600080fd5b506102f36109b6565b6040516103009190613fad565b60405180910390f35b34801561031557600080fd5b50610330600480360381019061032b91906134df565b6109c3565b005b34801561033e57600080fd5b506103596004803603810190610354919061363d565b6109c8565b6040516103669190613fad565b60405180910390f35b34801561037b57600080fd5b50610396600480360381019061039191906136cb565b610a6d565b005b3480156103a457600080fd5b506103bf60048036038101906103ba91906134df565b610b20565b005b3480156103cd57600080fd5b506103d6610b25565b005b3480156103e457600080fd5b506103ff60048036038101906103fa91906136cb565b610e4f565b60405161040c9190613fad565b60405180910390f35b34801561042157600080fd5b5061043c6004803603810190610437919061347a565b610ee6565b005b34801561044a57600080fd5b50610465600480360381019061046091906136cb565b6110c0565b6040516104729190613c61565b60405180910390f35b34801561048757600080fd5b506104a2600480360381019061049d9190613451565b611172565b6040516104af9190613fad565b60405180910390f35b3480156104c457600080fd5b506104cd61122a565b005b3480156104db57600080fd5b506104e46112b2565b6040516104f19190613c61565b60405180910390f35b34801561050657600080fd5b5061050f6112db565b60405161051c9190613d4b565b60405180910390f35b34801561053157600080fd5b5061054c600480360381019061054791906135a9565b61136d565b005b34801561055a57600080fd5b50610575600480360381019061057091906135e5565b6114ee565b005b34801561058357600080fd5b5061059e6004803603810190610599919061352e565b611808565b005b3480156105ac57600080fd5b506105c760048036038101906105c291906136cb565b61180e565b6040516105d49190613d4b565b60405180910390f35b3480156105e957600080fd5b5061060460048036038101906105ff9190613451565b611c2c565b6040516106119190613fad565b60405180910390f35b34801561062657600080fd5b50610641600480360381019061063c9190613451565b611c44565b60405161065396959493929190613ce3565b60405180910390f35b34801561066857600080fd5b50610683600480360381019061067e91906134a3565b611d2f565b6040516106909190613cc8565b60405180910390f35b3480156106a557600080fd5b506106c060048036038101906106bb9190613451565b611dc3565b005b6106dc60048036038101906106d791906135e5565b611ebb565b005b60006106e982612220565b9050919050565b6000600c60006106fe61229a565b73ffffffffffffffffffffffffffffffffffffffff1673ffffffffffffffffffffffffffffffffffffffff16815260200190815260200160002060000160016101000a81548160ff021916908315150217905550565b600d6020528060005260406000206000915054906101000a900473ffffffffffffffffffffffffffffffffffffffff1681565b60606001805461079690614253565b80601f01602080910402602001604051908101604052809291908181526020018280546107c290614253565b801561080f5780601f106107e45761010080835404028352916020019161080f565b820191906000526020600020905b8154815290600101906020018083116107f257829003601f168201915b5050505050905090565b6000610824826122a2565b610863576040517f08c379a000000000000000000000000000000000000000000000000000000000815260040161085a90613eed565b60405180910390fd5b6005600083815260200190815260200160002060009054906101000a900473ffffffffffffffffffffffffffffffffffffffff169050919050565b60006108a9826110c0565b90508073ffffffffffffffffffffffffffffffffffffffff168373ffffffffffffffffffffffffffffffffffffffff16141561091a576040517f08c379a000000000000000000000000000000000000000000000000000000000815260040161091190613f4d565b60405180910390fd5b8073ffffffffffffffffffffffffffffffffffffffff1661093961229a565b73ffffffffffffffffffffffffffffffffffffffff16148061096857506109678161096261229a565b611d2f565b5b6109a7576040517f08c379a000000000000000000000000000000000000000000000000000000000815260040161099e90613e6d565b60405180910390fd5b6109b1838361230e565b505050565b6000600980549050905090565b505050565b60006109d383611172565b8210610a14576040517f08c379a0000000000000000000000000000000000000000000000000000000008152600401610a0b90613d8d565b60405180910390fd5b600760008473ffffffffffffffffffffffffffffffffffffffff1673ffffffffffffffffffffffffffffffffffffffff168152602001908152602001600020600083815260200190815260200160002054905092915050565b6001600c6000610a7b61229a565b73ffffffffffffffffffffffffffffffffffffffff1673ffffffffffffffffffffffffffffffffffffffff16815260200190815260200160002060000160016101000a81548160ff02191690831515021790555080600c6000610adc61229a565b73ffffffffffffffffffffffffffffffffffffffff1673ffffffffffffffffffffffffffffffffffffffff1681526020019081526020016000206001018190555050565b505050565b60001515600c6000610b3561229a565b73ffffffffffffffffffffffffffffffffffffffff1673ffffffffffffffffffffffffffffffffffffffff16815260200190815260200160002060000160009054906101000a900460ff16151514610bc2576040517f08c379a0000000000000000000000000000000000000000000000000000000008152600401610bb990613e0d565b60405180910390fd5b610bcc600b6123c7565b6000610bd8600b6123dd565b9050610be261229a565b600d600083815260200190815260200160002060006101000a81548173ffffffffffffffffffffffffffffffffffffffff021916908373ffffffffffffffffffffffffffffffffffffffff1602179055506001600c6000610c4161229a565b73ffffffffffffffffffffffffffffffffffffffff1673ffffffffffffffffffffffffffffffffffffffff16815260200190815260200160002060000160006101000a81548160ff0219169083151502179055506001600c6000610ca361229a565b73ffffffffffffffffffffffffffffffffffffffff1673ffffffffffffffffffffffffffffffffffffffff16815260200190815260200160002060020160006101000a81548160ff0219169083151502179055506000600c6000610d0561229a565b73ffffffffffffffffffffffffffffffffffffffff1673ffffffffffffffffffffffffffffffffffffffff16815260200190815260200160002060000160016101000a81548160ff0219169083151502179055506040518060400160405280601381526020017f697473206e69636520746f2073656520796f7500000000000000000000000000815250600c6000610d9b61229a565b73ffffffffffffffffffffffffffffffffffffffff1673ffffffffffffffffffffffffffffffffffffffff1681526020019081526020016000206003019080519060200190610deb9291906131f8565b506000600c6000610dfa61229a565b73ffffffffffffffffffffffffffffffffffffffff1673ffffffffffffffffffffffffffffffffffffffff168152602001908152602001600020600f0181905550610e4c610e4661229a565b826123eb565b50565b6000610e596109b6565b8210610e9a576040517f08c379a0000000000000000000000000000000000000000000000000000000008152600401610e9190613f6d565b60405180910390fd5b60098281548110610ed4577f4e487b7100000000000000000000000000000000000000000000000000000000600052603260045260246000fd5b90600052602060002001549050919050565b8073ffffffffffffffffffffffffffffffffffffffff16610f0561229a565b73ffffffffffffffffffffffffffffffffffffffff1614610f5b576040517f08c379a0000000000000000000000000000000000000000000000000000000008152600401610f5290613f0d565b60405180910390fd5b6000600e6000610f6961229a565b73ffffffffffffffffffffffffffffffffffffffff1673ffffffffffffffffffffffffffffffffffffffff1681526020019081526020016000205411610fe4576040517f08c379a0000000000000000000000000000000000000000000000000000000008152600401610fdb90613e4d565b60405180910390fd5b8073ffffffffffffffffffffffffffffffffffffffff166108fc600e600061100a61229a565b73ffffffffffffffffffffffffffffffffffffffff1673ffffffffffffffffffffffffffffffffffffffff168152602001908152602001600020549081150290604051600060405180830381858888f19350505050158015611070573d6000803e3d6000fd5b506000600e600061107f61229a565b73ffffffffffffffffffffffffffffffffffffffff1673ffffffffffffffffffffffffffffffffffffffff1681526020019081526020016000208190555050565b6000806003600084815260200190815260200160002060009054906101000a900473ffffffffffffffffffffffffffffffffffffffff169050600073ffffffffffffffffffffffffffffffffffffffff168173ffffffffffffffffffffffffffffffffffffffff161415611169576040517f08c379a000000000000000000000000000000000000000000000000000000000815260040161116090613ead565b60405180910390fd5b80915050919050565b60008073ffffffffffffffffffffffffffffffffffffffff168273ffffffffffffffffffffffffffffffffffffffff1614156111e3576040517f08c379a00000000000000000000000000000000000000000000000000000000081526004016111da90613e8d565b60405180910390fd5b600460008373ffffffffffffffffffffffffffffffffffffffff1673ffffffffffffffffffffffffffffffffffffffff168152602001908152602001600020549050919050565b61123261229a565b73ffffffffffffffffffffffffffffffffffffffff166112506112b2565b73ffffffffffffffffffffffffffffffffffffffff16146112a6576040517f08c379a000000000000000000000000000000000000000000000000000000000815260040161129d90613f2d565b60405180910390fd5b6112b06000612409565b565b60008060009054906101000a900473ffffffffffffffffffffffffffffffffffffffff16905090565b6060600280546112ea90614253565b80601f016020809104026020016040519081016040528092919081815260200182805461131690614253565b80156113635780601f1061133857610100808354040283529160200191611363565b820191906000526020600020905b81548152906001019060200180831161134657829003601f168201915b5050505050905090565b61137561229a565b73ffffffffffffffffffffffffffffffffffffffff168273ffffffffffffffffffffffffffffffffffffffff1614156113e3576040517f08c379a00000000000000000000000000000000000000000000000000000000081526004016113da90613e2d565b60405180910390fd5b80600660006113f061229a565b73ffffffffffffffffffffffffffffffffffffffff1673ffffffffffffffffffffffffffffffffffffffff16815260200190815260200160002060008473ffffffffffffffffffffffffffffffffffffffff1673ffffffffffffffffffffffffffffffffffffffff16815260200190815260200160002060006101000a81548160ff0219169083151502179055508173ffffffffffffffffffffffffffffffffffffffff1661149d61229a565b73ffffffffffffffffffffffffffffffffffffffff167f17307eab39ab6107e8899845ad3d59bd9653f200f220920489ca2b5937696c31836040516114e29190613cc8565b60405180910390a35050565b600c60008473ffffffffffffffffffffffffffffffffffffffff1673ffffffffffffffffffffffffffffffffffffffff16815260200190815260200160002060000160019054906101000a900460ff161561157e576040517f08c379a000000000000000000000000000000000000000000000000000000000815260040161157590613d6d565b60405180910390fd5b8181600c60008673ffffffffffffffffffffffffffffffffffffffff1673ffffffffffffffffffffffffffffffffffffffff16815260200190815260200160002060040160006115cc61229a565b73ffffffffffffffffffffffffffffffffffffffff1673ffffffffffffffffffffffffffffffffffffffff168152602001908152602001600020919061161392919061327e565b5061161c61229a565b600c60008573ffffffffffffffffffffffffffffffffffffffff1673ffffffffffffffffffffffffffffffffffffffff168152602001908152602001600020600501600c60008673ffffffffffffffffffffffffffffffffffffffff1673ffffffffffffffffffffffffffffffffffffffff168152602001908152602001600020600f0154600a81106116d8577f4e487b7100000000000000000000000000000000000000000000000000000000600052603260045260246000fd5b0160006101000a81548173ffffffffffffffffffffffffffffffffffffffff021916908373ffffffffffffffffffffffffffffffffffffffff160217905550600c60008473ffffffffffffffffffffffffffffffffffffffff1673ffffffffffffffffffffffffffffffffffffffff168152602001908152602001600020600f01600081548092919061176a906142b6565b91905055506009600c60008573ffffffffffffffffffffffffffffffffffffffff1673ffffffffffffffffffffffffffffffffffffffff168152602001908152602001600020600f01541115611803576000600c60008573ffffffffffffffffffffffffffffffffffffffff1673ffffffffffffffffffffffffffffffffffffffff168152602001908152602001600020600f01819055505b505050565b50505050565b60606000600c6000600d600086815260200190815260200160002060009054906101000a900473ffffffffffffffffffffffffffffffffffffffff1673ffffffffffffffffffffffffffffffffffffffff1673ffffffffffffffffffffffffffffffffffffffff168152602001908152602001600020600501600a806020026040519081016040528092919082600a80156118f4576020028201915b8160009054906101000a900473ffffffffffffffffffffffffffffffffffffffff1673ffffffffffffffffffffffffffffffffffffffff16815260200190600101908083116118aa575b505050505090506000604051806102a0016040528061027f815260200161497661027f9139600c6000600d600088815260200190815260200160002060009054906101000a900473ffffffffffffffffffffffffffffffffffffffff1673ffffffffffffffffffffffffffffffffffffffff1673ffffffffffffffffffffffffffffffffffffffff16815260200190815260200160002060030160405160200161199f929190613b8c565b60405160208183030381529060405290506000805b600a811015611b185760006014826119cc91906140fd565b60326119d89190614076565b905082806119e5906142b6565b935050836119f2826124cd565b600c6000600d60008c815260200190815260200160002060009054906101000a900473ffffffffffffffffffffffffffffffffffffffff1673ffffffffffffffffffffffffffffffffffffffff1673ffffffffffffffffffffffffffffffffffffffff16815260200190815260200160002060040160008886600a8110611aa2577f4e487b7100000000000000000000000000000000000000000000000000000000600052603260045260246000fd5b602002015173ffffffffffffffffffffffffffffffffffffffff1673ffffffffffffffffffffffffffffffffffffffff168152602001908152602001600020604051602001611af393929190613bbb565b6040516020818303038152906040529350508080611b10906142b6565b9150506119b4565b50816040518060c0016040528060888152602001614c5960889139604051602001611b44929190613b68565b60405160208183030381529060405291506000611bc5611b63876124cd565b6040518060a0016040528060658152602001614ce160659139604051806060016040528060248152602001614bf560249139611b9e8761267a565b604051602001611bb19493929190613c0d565b60405160208183030381529060405261267a565b90506040518060400160405280601d81526020017f646174613a6170706c69636174696f6e2f6a736f6e3b6261736536342c00000081525081604051602001611c0f929190613b68565b604051602081830303815290604052925082945050505050919050565b600e6020528060005260406000206000915090505481565b600c6020528060005260406000206000915090508060000160009054906101000a900460ff16908060000160019054906101000a900460ff16908060010154908060020160009054906101000a900460ff1690806003018054611ca690614253565b80601f0160208091040260200160405190810160405280929190818152602001828054611cd290614253565b8015611d1f5780601f10611cf457610100808354040283529160200191611d1f565b820191906000526020600020905b815481529060010190602001808311611d0257829003601f168201915b50505050509080600f0154905086565b6000600660008473ffffffffffffffffffffffffffffffffffffffff1673ffffffffffffffffffffffffffffffffffffffff16815260200190815260200160002060008373ffffffffffffffffffffffffffffffffffffffff1673ffffffffffffffffffffffffffffffffffffffff16815260200190815260200160002060009054906101000a900460ff16905092915050565b611dcb61229a565b73ffffffffffffffffffffffffffffffffffffffff16611de96112b2565b73ffffffffffffffffffffffffffffffffffffffff1614611e3f576040517f08c379a0000000000000000000000000000000000000000000000000000000008152600401611e3690613f2d565b60405180910390fd5b600073ffffffffffffffffffffffffffffffffffffffff168173ffffffffffffffffffffffffffffffffffffffff161415611eaf576040517f08c379a0000000000000000000000000000000000000000000000000000000008152600401611ea690613dcd565b60405180910390fd5b611eb881612409565b50565b600c60008473ffffffffffffffffffffffffffffffffffffffff1673ffffffffffffffffffffffffffffffffffffffff16815260200190815260200160002060010154341015611f40576040517f08c379a0000000000000000000000000000000000000000000000000000000008152600401611f3790613f8d565b60405180910390fd5b8181600c60008673ffffffffffffffffffffffffffffffffffffffff1673ffffffffffffffffffffffffffffffffffffffff1681526020019081526020016000206004016000611f8e61229a565b73ffffffffffffffffffffffffffffffffffffffff1673ffffffffffffffffffffffffffffffffffffffff1681526020019081526020016000209190611fd592919061327e565b50611fde61229a565b600c60008573ffffffffffffffffffffffffffffffffffffffff1673ffffffffffffffffffffffffffffffffffffffff168152602001908152602001600020600501600c60008673ffffffffffffffffffffffffffffffffffffffff1673ffffffffffffffffffffffffffffffffffffffff168152602001908152602001600020600f0154600a811061209a577f4e487b7100000000000000000000000000000000000000000000000000000000600052603260045260246000fd5b0160006101000a81548173ffffffffffffffffffffffffffffffffffffffff021916908373ffffffffffffffffffffffffffffffffffffffff160217905550600c60008473ffffffffffffffffffffffffffffffffffffffff1673ffffffffffffffffffffffffffffffffffffffff168152602001908152602001600020600f01600081548092919061212c906142b6565b91905055506009600c60008573ffffffffffffffffffffffffffffffffffffffff1673ffffffffffffffffffffffffffffffffffffffff168152602001908152602001600020600f015411156121c5576000600c60008573ffffffffffffffffffffffffffffffffffffffff1673ffffffffffffffffffffffffffffffffffffffff168152602001908152602001600020600f01819055505b34600e60008573ffffffffffffffffffffffffffffffffffffffff1673ffffffffffffffffffffffffffffffffffffffff16815260200190815260200160002060008282546122149190614076565b92505081905550505050565b60007f780e9d63000000000000000000000000000000000000000000000000000000007bffffffffffffffffffffffffffffffffffffffffffffffffffffffff1916827bffffffffffffffffffffffffffffffffffffffffffffffffffffffff19161480612293575061229282612838565b5b9050919050565b600033905090565b60008073ffffffffffffffffffffffffffffffffffffffff166003600084815260200190815260200160002060009054906101000a900473ffffffffffffffffffffffffffffffffffffffff1673ffffffffffffffffffffffffffffffffffffffff1614159050919050565b816005600083815260200190815260200160002060006101000a81548173ffffffffffffffffffffffffffffffffffffffff021916908373ffffffffffffffffffffffffffffffffffffffff160217905550808273ffffffffffffffffffffffffffffffffffffffff16612381836110c0565b73ffffffffffffffffffffffffffffffffffffffff167f8c5be1e5ebec7d5bd14f71427d1e84f3dd0314c0f7b2291e5b200ac8c7c3b92560405160405180910390a45050565b6001816000016000828254019250508190555050565b600081600001549050919050565b61240582826040518060200160405280600081525061291a565b5050565b60008060009054906101000a900473ffffffffffffffffffffffffffffffffffffffff169050816000806101000a81548173ffffffffffffffffffffffffffffffffffffffff021916908373ffffffffffffffffffffffffffffffffffffffff1602179055508173ffffffffffffffffffffffffffffffffffffffff168173ffffffffffffffffffffffffffffffffffffffff167f8be0079c531659141344cd1fd0a4f28419497f9722a3daafe3b4186f6b6457e060405160405180910390a35050565b60606000821415612515576040518060400160405280600181526020017f30000000000000000000000000000000000000000000000000000000000000008152509050612675565b600082905060005b60008214612547578080612530906142b6565b915050600a8261254091906140cc565b915061251d565b60008167ffffffffffffffff811115612589577f4e487b7100000000000000000000000000000000000000000000000000000000600052604160045260246000fd5b6040519080825280601f01601f1916602001820160405280156125bb5781602001600182028036833780820191505090505b5090505b6000851461266e576001826125d49190614157565b9150600a856125e391906142ff565b60306125ef9190614076565b60f81b81838151811061262b577f4e487b7100000000000000000000000000000000000000000000000000000000600052603260045260246000fd5b60200101907effffffffffffffffffffffffffffffffffffffffffffffffffffffffffffff1916908160001a905350600a8561266791906140cc565b94506125bf565b8093505050505b919050565b606060008251905060008114156126a35760405180602001604052806000815250915050612833565b600060036002836126b49190614076565b6126be91906140cc565b60046126ca91906140fd565b905060006020826126db9190614076565b67ffffffffffffffff81111561271a577f4e487b7100000000000000000000000000000000000000000000000000000000600052604160045260246000fd5b6040519080825280601f01601f19166020018201604052801561274c5781602001600182028036833780820191505090505b5090506000604051806060016040528060408152602001614c19604091399050600181016020830160005b868110156127f05760038101905062ffffff818a015116603f8160121c168401518060081b905060ff603f83600c1c1686015116810190508060081b905060ff603f8360061c1686015116810190508060081b905060ff603f831686015116810190508060e01b90508084526004840193505050612777565b50600386066001811461280a576002811461281a57612825565b613d3d60f01b6002830352612825565b603d60f81b60018303525b508484525050819450505050505b919050565b60007f80ac58cd000000000000000000000000000000000000000000000000000000007bffffffffffffffffffffffffffffffffffffffffffffffffffffffff1916827bffffffffffffffffffffffffffffffffffffffffffffffffffffffff1916148061290357507f5b5e139f000000000000000000000000000000000000000000000000000000007bffffffffffffffffffffffffffffffffffffffffffffffffffffffff1916827bffffffffffffffffffffffffffffffffffffffffffffffffffffffff1916145b80612913575061291282612975565b5b9050919050565b61292483836129df565b6129316000848484612bad565b612970576040517f08c379a000000000000000000000000000000000000000000000000000000000815260040161296790613dad565b60405180910390fd5b505050565b60007f01ffc9a7000000000000000000000000000000000000000000000000000000007bffffffffffffffffffffffffffffffffffffffffffffffffffffffff1916827bffffffffffffffffffffffffffffffffffffffffffffffffffffffff1916149050919050565b600073ffffffffffffffffffffffffffffffffffffffff168273ffffffffffffffffffffffffffffffffffffffff161415612a4f576040517f08c379a0000000000000000000000000000000000000000000000000000000008152600401612a4690613ecd565b60405180910390fd5b612a58816122a2565b15612a98576040517f08c379a0000000000000000000000000000000000000000000000000000000008152600401612a8f90613ded565b60405180910390fd5b612aa460008383612d44565b6001600460008473ffffffffffffffffffffffffffffffffffffffff1673ffffffffffffffffffffffffffffffffffffffff1681526020019081526020016000206000828254612af49190614076565b92505081905550816003600083815260200190815260200160002060006101000a81548173ffffffffffffffffffffffffffffffffffffffff021916908373ffffffffffffffffffffffffffffffffffffffff160217905550808273ffffffffffffffffffffffffffffffffffffffff16600073ffffffffffffffffffffffffffffffffffffffff167fddf252ad1be2c89b69c2b068fc378daa952ba7f163c4a11628f55a4df523b3ef60405160405180910390a45050565b6000612bce8473ffffffffffffffffffffffffffffffffffffffff16612d54565b15612d37578373ffffffffffffffffffffffffffffffffffffffff1663150b7a02612bf761229a565b8786866040518563ffffffff1660e01b8152600401612c199493929190613c7c565b602060405180830381600087803b158015612c3357600080fd5b505af1925050508015612c6457506040513d601f19601f82011682018060405250810190612c6191906136a2565b60015b612ce7573d8060008114612c94576040519150601f19603f3d011682016040523d82523d6000602084013e612c99565b606091505b50600081511415612cdf576040517f08c379a0000000000000000000000000000000000000000000000000000000008152600401612cd690613dad565b60405180910390fd5b805181602001fd5b63150b7a0260e01b7bffffffffffffffffffffffffffffffffffffffffffffffffffffffff1916817bffffffffffffffffffffffffffffffffffffffffffffffffffffffff191614915050612d3c565b600190505b949350505050565b612d4f838383612d67565b505050565b600080823b905060008111915050919050565b612d72838383612e7b565b600073ffffffffffffffffffffffffffffffffffffffff168373ffffffffffffffffffffffffffffffffffffffff161415612db557612db081612e80565b612df4565b8173ffffffffffffffffffffffffffffffffffffffff168373ffffffffffffffffffffffffffffffffffffffff1614612df357612df28382612ec9565b5b5b600073ffffffffffffffffffffffffffffffffffffffff168273ffffffffffffffffffffffffffffffffffffffff161415612e3757612e3281613036565b612e76565b8273ffffffffffffffffffffffffffffffffffffffff168273ffffffffffffffffffffffffffffffffffffffff1614612e7557612e748282613179565b5b5b505050565b505050565b600980549050600a600083815260200190815260200160002081905550600981908060018154018082558091505060019003906000526020600020016000909190919091505550565b60006001612ed684611172565b612ee09190614157565b9050600060086000848152602001908152602001600020549050818114612fc5576000600760008673ffffffffffffffffffffffffffffffffffffffff1673ffffffffffffffffffffffffffffffffffffffff168152602001908152602001600020600084815260200190815260200160002054905080600760008773ffffffffffffffffffffffffffffffffffffffff1673ffffffffffffffffffffffffffffffffffffffff168152602001908152602001600020600084815260200190815260200160002081905550816008600083815260200190815260200160002081905550505b6008600084815260200190815260200160002060009055600760008573ffffffffffffffffffffffffffffffffffffffff1673ffffffffffffffffffffffffffffffffffffffff16815260200190815260200160002060008381526020019081526020016000206000905550505050565b6000600160098054905061304a9190614157565b90506000600a60008481526020019081526020016000205490506000600983815481106130a0577f4e487b7100000000000000000000000000000000000000000000000000000000600052603260045260246000fd5b9060005260206000200154905080600983815481106130e8577f4e487b7100000000000000000000000000000000000000000000000000000000600052603260045260246000fd5b906000526020600020018190555081600a600083815260200190815260200160002081905550600a600085815260200190815260200160002060009055600980548061315d577f4e487b7100000000000000000000000000000000000000000000000000000000600052603160045260246000fd5b6001900381819060005260206000200160009055905550505050565b600061318483611172565b905081600760008573ffffffffffffffffffffffffffffffffffffffff1673ffffffffffffffffffffffffffffffffffffffff168152602001908152602001600020600083815260200190815260200160002081905550806008600084815260200190815260200160002081905550505050565b82805461320490614253565b90600052602060002090601f016020900481019282613226576000855561326d565b82601f1061323f57805160ff191683800117855561326d565b8280016001018555821561326d579182015b8281111561326c578251825591602001919060010190613251565b5b50905061327a9190613304565b5090565b82805461328a90614253565b90600052602060002090601f0160209004810192826132ac57600085556132f3565b82601f106132c557803560ff19168380011785556132f3565b828001600101855582156132f3579182015b828111156132f25782358255916020019190600101906132d7565b5b5090506133009190613304565b5090565b5b8082111561331d576000816000905550600101613305565b5090565b600061333461332f84613fed565b613fc8565b90508281526020810184848401111561334c57600080fd5b613357848285614211565b509392505050565b60008135905061336e81614902565b92915050565b60008135905061338381614919565b92915050565b60008135905061339881614930565b92915050565b6000813590506133ad81614947565b92915050565b6000815190506133c281614947565b92915050565b600082601f8301126133d957600080fd5b81356133e9848260208601613321565b91505092915050565b60008083601f84011261340457600080fd5b8235905067ffffffffffffffff81111561341d57600080fd5b60208301915083600182028301111561343557600080fd5b9250929050565b60008135905061344b8161495e565b92915050565b60006020828403121561346357600080fd5b60006134718482850161335f565b91505092915050565b60006020828403121561348c57600080fd5b600061349a84828501613374565b91505092915050565b600080604083850312156134b657600080fd5b60006134c48582860161335f565b92505060206134d58582860161335f565b9150509250929050565b6000806000606084860312156134f457600080fd5b60006135028682870161335f565b93505060206135138682870161335f565b92505060406135248682870161343c565b9150509250925092565b6000806000806080858703121561354457600080fd5b60006135528782880161335f565b94505060206135638782880161335f565b93505060406135748782880161343c565b925050606085013567ffffffffffffffff81111561359157600080fd5b61359d878288016133c8565b91505092959194509250565b600080604083850312156135bc57600080fd5b60006135ca8582860161335f565b92505060206135db85828601613389565b9150509250929050565b6000806000604084860312156135fa57600080fd5b60006136088682870161335f565b935050602084013567ffffffffffffffff81111561362557600080fd5b613631868287016133f2565b92509250509250925092565b6000806040838503121561365057600080fd5b600061365e8582860161335f565b925050602061366f8582860161343c565b9150509250929050565b60006020828403121561368b57600080fd5b60006136998482850161339e565b91505092915050565b6000602082840312156136b457600080fd5b60006136c2848285016133b3565b91505092915050565b6000602082840312156136dd57600080fd5b60006136eb8482850161343c565b91505092915050565b6136fd8161418b565b82525050565b61370c816141af565b82525050565b600061371d82614033565b6137278185614049565b9350613737818560208601614220565b613740816143ec565b840191505092915050565b60006137568261403e565b613760818561405a565b9350613770818560208601614220565b613779816143ec565b840191505092915050565b600061378f8261403e565b613799818561406b565b93506137a9818560208601614220565b80840191505092915050565b600081546137c281614253565b6137cc818661406b565b945060018216600081146137e757600181146137f85761382b565b60ff1983168652818601935061382b565b6138018561401e565b60005b8381101561382357815481890152600182019150602081019050613804565b838801955050505b50505092915050565b600061384160148361405a565b915061384c826143fd565b602082019050919050565b6000613864602b8361405a565b915061386f82614426565b604082019050919050565b600061388760328361405a565b915061389282614475565b604082019050919050565b60006138aa60268361405a565b91506138b5826144c4565b604082019050919050565b60006138cd601c8361405a565b91506138d882614513565b602082019050919050565b60006138f0600f8361405a565b91506138fb8261453c565b602082019050919050565b600061391360198361405a565b915061391e82614565565b602082019050919050565b600061393660148361405a565b91506139418261458e565b602082019050919050565b600061395960388361405a565b9150613964826145b7565b604082019050919050565b600061397c602a8361405a565b915061398782614606565b604082019050919050565b600061399f60298361405a565b91506139aa82614655565b604082019050919050565b60006139c260028361406b565b91506139cd826146a4565b600282019050919050565b60006139e560078361406b565b91506139f0826146cd565b600782019050919050565b6000613a0860208361405a565b9150613a13826146f6565b602082019050919050565b6000613a2b602c8361405a565b9150613a368261471f565b604082019050919050565b6000613a4e60098361405a565b9150613a598261476e565b602082019050919050565b6000613a7160208361405a565b9150613a7c82614797565b602082019050919050565b6000613a9460108361406b565b9150613a9f826147c0565b601082019050919050565b6000613ab760218361405a565b9150613ac2826147e9565b604082019050919050565b6000613ada600f8361406b565b9150613ae582614838565b600f82019050919050565b6000613afd60138361406b565b9150613b0882614861565b601382019050919050565b6000613b20602c8361405a565b9150613b2b8261488a565b604082019050919050565b6000613b4360118361405a565b9150613b4e826148d9565b602082019050919050565b613b6281614207565b82525050565b6000613b748285613784565b9150613b808284613784565b91508190509392505050565b6000613b988285613784565b9150613ba482846137b5565b9150613baf826139d8565b91508190509392505050565b6000613bc78286613784565b9150613bd282613a87565b9150613bde8285613784565b9150613be982613acd565b9150613bf582846137b5565b9150613c00826139d8565b9150819050949350505050565b6000613c1882613af0565b9150613c248287613784565b9150613c308286613784565b9150613c3c8285613784565b9150613c488284613784565b9150613c53826139b5565b915081905095945050505050565b6000602082019050613c7660008301846136f4565b92915050565b6000608082019050613c9160008301876136f4565b613c9e60208301866136f4565b613cab6040830185613b59565b8181036060830152613cbd8184613712565b905095945050505050565b6000602082019050613cdd6000830184613703565b92915050565b600060c082019050613cf86000830189613703565b613d056020830188613703565b613d126040830187613b59565b613d1f6060830186613703565b8181036080830152613d31818561374b565b9050613d4060a0830184613b59565b979650505050505050565b60006020820190508181036000830152613d65818461374b565b905092915050565b60006020820190508181036000830152613d8681613834565b9050919050565b60006020820190508181036000830152613da681613857565b9050919050565b60006020820190508181036000830152613dc68161387a565b9050919050565b60006020820190508181036000830152613de68161389d565b9050919050565b60006020820190508181036000830152613e06816138c0565b9050919050565b60006020820190508181036000830152613e26816138e3565b9050919050565b60006020820190508181036000830152613e4681613906565b9050919050565b60006020820190508181036000830152613e6681613929565b9050919050565b60006020820190508181036000830152613e868161394c565b9050919050565b60006020820190508181036000830152613ea68161396f565b9050919050565b60006020820190508181036000830152613ec681613992565b9050919050565b60006020820190508181036000830152613ee6816139fb565b9050919050565b60006020820190508181036000830152613f0681613a1e565b9050919050565b60006020820190508181036000830152613f2681613a41565b9050919050565b60006020820190508181036000830152613f4681613a64565b9050919050565b60006020820190508181036000830152613f6681613aaa565b9050919050565b60006020820190508181036000830152613f8681613b13565b9050919050565b60006020820190508181036000830152613fa681613b36565b9050919050565b6000602082019050613fc26000830184613b59565b92915050565b6000613fd2613fe3565b9050613fde8282614285565b919050565b6000604051905090565b600067ffffffffffffffff821115614008576140076143bd565b5b614011826143ec565b9050602081019050919050565b60008190508160005260206000209050919050565b600081519050919050565b600081519050919050565b600082825260208201905092915050565b600082825260208201905092915050565b600081905092915050565b600061408182614207565b915061408c83614207565b9250827fffffffffffffffffffffffffffffffffffffffffffffffffffffffffffffffff038211156140c1576140c0614330565b5b828201905092915050565b60006140d782614207565b91506140e283614207565b9250826140f2576140f161435f565b5b828204905092915050565b600061410882614207565b915061411383614207565b9250817fffffffffffffffffffffffffffffffffffffffffffffffffffffffffffffffff048311821515161561414c5761414b614330565b5b828202905092915050565b600061416282614207565b915061416d83614207565b9250828210156141805761417f614330565b5b828203905092915050565b6000614196826141e7565b9050919050565b60006141a8826141e7565b9050919050565b60008115159050919050565b60007fffffffff0000000000000000000000000000000000000000000000000000000082169050919050565b600073ffffffffffffffffffffffffffffffffffffffff82169050919050565b6000819050919050565b82818337600083830152505050565b60005b8381101561423e578082015181840152602081019050614223565b8381111561424d576000848401525b50505050565b6000600282049050600182168061426b57607f821691505b6020821081141561427f5761427e61438e565b5b50919050565b61428e826143ec565b810181811067ffffffffffffffff821117156142ad576142ac6143bd565b5b80604052505050565b60006142c182614207565b91507fffffffffffffffffffffffffffffffffffffffffffffffffffffffffffffffff8214156142f4576142f3614330565b5b600182019050919050565b600061430a82614207565b915061431583614207565b9250826143255761432461435f565b5b828206905092915050565b7f4e487b7100000000000000000000000000000000000000000000000000000000600052601160045260246000fd5b7f4e487b7100000000000000000000000000000000000000000000000000000000600052601260045260246000fd5b7f4e487b7100000000000000000000000000000000000000000000000000000000600052602260045260246000fd5b7f4e487b7100000000000000000000000000000000000000000000000000000000600052604160045260246000fd5b6000601f19601f8301169050919050565b7f746f6b656e207772697465206e6f742066726565000000000000000000000000600082015250565b7f455243373231456e756d657261626c653a206f776e657220696e646578206f7560008201527f74206f6620626f756e6473000000000000000000000000000000000000000000602082015250565b7f4552433732313a207472616e7366657220746f206e6f6e20455243373231526560008201527f63656976657220696d706c656d656e7465720000000000000000000000000000602082015250565b7f4f776e61626c653a206e6577206f776e657220697320746865207a65726f206160008201527f6464726573730000000000000000000000000000000000000000000000000000602082015250565b7f4552433732313a20746f6b656e20616c7265616479206d696e74656400000000600082015250565b7f616c726561647920636c61696d65640000000000000000000000000000000000600082015250565b7f4552433732313a20617070726f766520746f2063616c6c657200000000000000600082015250565b7f6e6565642065746820746f207769746864726177000000000000000000000000600082015250565b7f4552433732313a20617070726f76652063616c6c6572206973206e6f74206f7760008201527f6e6572206e6f7220617070726f76656420666f7220616c6c0000000000000000602082015250565b7f4552433732313a2062616c616e636520717565727920666f7220746865207a6560008201527f726f206164647265737300000000000000000000000000000000000000000000602082015250565b7f4552433732313a206f776e657220717565727920666f72206e6f6e657869737460008201527f656e7420746f6b656e0000000000000000000000000000000000000000000000602082015250565b7f227d000000000000000000000000000000000000000000000000000000000000600082015250565b7f3c2f746578743e00000000000000000000000000000000000000000000000000600082015250565b7f4552433732313a206d696e7420746f20746865207a65726f2061646472657373600082015250565b7f4552433732313a20617070726f76656420717565727920666f72206e6f6e657860008201527f697374656e7420746f6b656e0000000000000000000000000000000000000000602082015250565b7f6e6f7420796f7572730000000000000000000000000000000000000000000000600082015250565b7f4f776e61626c653a2063616c6c6572206973206e6f7420746865206f776e6572600082015250565b7f3c7465787420783d2232302220793d2200000000000000000000000000000000600082015250565b7f4552433732313a20617070726f76616c20746f2063757272656e74206f776e6560008201527f7200000000000000000000000000000000000000000000000000000000000000602082015250565b7f2220636c6173733d2262617365223e0000000000000000000000000000000000600082015250565b7f7b226e616d65223a20224d657373616765202300000000000000000000000000600082015250565b7f455243373231456e756d657261626c653a20676c6f62616c20696e646578206f60008201527f7574206f6620626f756e64730000000000000000000000000000000000000000602082015250565b7f6e6f7420656e6f7567682c206368756d70000000000000000000000000000000600082015250565b61490b8161418b565b811461491657600080fd5b50565b6149228161419d565b811461492d57600080fd5b50565b614939816141af565b811461494457600080fd5b50565b614950816141bb565b811461495b57600080fd5b50565b61496781614207565b811461497257600080fd5b5056fe3c73766720786d6c6e733d22687474703a2f2f7777772e77332e6f72672f323030302f73766722207072657365727665417370656374526174696f3d22784d696e594d696e206d656574222076696577426f783d223020302034303020343030222077696474683d2238303022206865696768743d22383030223e3c646566733e3c6c696e6561724772616469656e742069643d2267726164222078313d2230222078323d2230222079313d2230222079323d2231223e3c73746f70206f66667365743d223025222073746f702d636f6c6f723d2264696d67726579222f3e3c73746f70206f66667365743d22313025222073746f702d636f6c6f723d22626c61636b222f3e3c2f6c696e6561724772616469656e743e3c72616469616c4772616469656e742069643d226772616432222063783d22302e35222063793d22302e392220723d22312e32222066783d22302e35222066793d22302e3922207370726561644d6574686f643d22726570656174223e3c73746f70206f66667365743d223025222073746f702d636f6c6f723d22726564222f3e3c73746f70206f66667365743d2231303025222073746f702d636f6c6f723d22626c7565222f3e3c2f72616469616c4772616469656e743e3c2f646566733e3c7374796c653e2e62617365207b2066696c6c3a79656c6c6f773b666f6e742d66616d696c793a206d6f6e6f73706163653b20666f6e742d73697a653a20313570783b207d3c2f7374796c653e3c7265637420793d2238222077696474683d223130302522206865696768743d2231303025222066696c6c3d2275726c28236772616429222f3e3c7465787420783d2232302220793d2233302220636c6173733d2262617365223e22696d616765223a2022646174613a696d6167652f7376672b786d6c3b6261736536342c4142434445464748494a4b4c4d4e4f505152535455565758595a6162636465666768696a6b6c6d6e6f707172737475767778797a303132333435363738392b2f3c726563742077696474683d223130302522206865696768743d2231303025222066696c6c3d226e6f6e6522207374726f6b653d2264696d6772657922207374726f6b652d77696474683d223230222f3e3c636972636c652063783d223230222063793d223339352220723d2233222066696c6c3d226c696d65677265656e222f3e3c2f7376673e222c20226465736372697074696f6e223a20224c65646765724d652069732061207075626c6963206c656467657220666f722077616c6c657420746f2077616c6c657420636f6d6d756e69636174696f6e732e2020557365207769746820636172652e222ca26469706673582212209608667f72768cc43dfc6611b833b6a7c88c27c3360590677a152ba73985568564736f6c63430008040033",
  "linkReferences": {},
  "deployedLinkReferences": {}
}