{
  "_format": "hh-sol-artifact-1",
  "contractName": "MessageMeNFT",
  "sourceName": "contracts/MessageNFT.sol",
  "abi": [
    {
      "inputs": [],
      "stateMutability": "nonpayable",
      "type": "constructor"
    },
    {
      "anonymous": false,
      "inputs": [
        {
          "indexed": true,
          "internalType": "address",
          "name": "owner",
          "type": "address"
        },
        {
          "indexed": true,
          "internalType": "address",
          "name": "approved",
          "type": "address"
        },
        {
          "indexed": true,
          "internalType": "uint256",
          "name": "tokenId",
          "type": "uint256"
        }
      ],
      "name": "Approval",
      "type": "event"
    },
    {
      "anonymous": false,
      "inputs": [
        {
          "indexed": true,
          "internalType": "address",
          "name": "owner",
          "type": "address"
        },
        {
          "indexed": true,
          "internalType": "address",
          "name": "operator",
          "type": "address"
        },
        {
          "indexed": false,
          "internalType": "bool",
          "name": "approved",
          "type": "bool"
        }
      ],
      "name": "ApprovalForAll",
      "type": "event"
    },
    {
      "anonymous": false,
      "inputs": [
        {
          "indexed": true,
          "internalType": "address",
          "name": "previousOwner",
          "type": "address"
        },
        {
          "indexed": true,
          "internalType": "address",
          "name": "newOwner",
          "type": "address"
        }
      ],
      "name": "OwnershipTransferred",
      "type": "event"
    },
    {
      "anonymous": false,
      "inputs": [
        {
          "indexed": true,
          "internalType": "address",
          "name": "from",
          "type": "address"
        },
        {
          "indexed": true,
          "internalType": "address",
          "name": "to",
          "type": "address"
        },
        {
          "indexed": true,
          "internalType": "uint256",
          "name": "tokenId",
          "type": "uint256"
        }
      ],
      "name": "Transfer",
      "type": "event"
    },
    {
      "inputs": [
        {
          "internalType": "address",
          "name": "",
          "type": "address"
        }
      ],
      "name": "allLedgers",
      "outputs": [
        {
          "internalType": "bool",
          "name": "claimed",
          "type": "bool"
        },
        {
          "internalType": "bool",
          "name": "isPayable",
          "type": "bool"
        },
        {
          "internalType": "uint256",
          "name": "writePrice",
          "type": "uint256"
        },
        {
          "internalType": "bool",
          "name": "writeActive",
          "type": "bool"
        },
        {
          "internalType": "string",
          "name": "header",
          "type": "string"
        },
        {
          "internalType": "uint256",
          "name": "writeIndex",
          "type": "uint256"
        }
      ],
      "stateMutability": "view",
      "type": "function"
    },
    {
      "inputs": [
        {
          "internalType": "address",
          "name": "to",
          "type": "address"
        },
        {
          "internalType": "uint256",
          "name": "tokenId",
          "type": "uint256"
        }
      ],
      "name": "approve",
      "outputs": [],
      "stateMutability": "nonpayable",
      "type": "function"
    },
    {
      "inputs": [
        {
          "internalType": "address",
          "name": "owner",
          "type": "address"
        }
      ],
      "name": "balanceOf",
      "outputs": [
        {
          "internalType": "uint256",
          "name": "",
          "type": "uint256"
        }
      ],
      "stateMutability": "view",
      "type": "function"
    },
    {
      "inputs": [],
      "name": "claimToken",
      "outputs": [],
      "stateMutability": "nonpayable",
      "type": "function"
    },
    {
      "inputs": [
        {
          "internalType": "address",
          "name": "",
          "type": "address"
        }
      ],
      "name": "ethValues",
      "outputs": [
        {
          "internalType": "uint256",
          "name": "",
          "type": "uint256"
        }
      ],
      "stateMutability": "view",
      "type": "function"
    },
    {
      "inputs": [
        {
          "internalType": "uint256",
          "name": "tokenId",
          "type": "uint256"
        }
      ],
      "name": "getApproved",
      "outputs": [
        {
          "internalType": "address",
          "name": "",
          "type": "address"
        }
      ],
      "stateMutability": "view",
      "type": "function"
    },
    {
      "inputs": [
        {
          "internalType": "address",
          "name": "messager",
          "type": "address"
        }
      ],
      "name": "getMessageFromUser",
      "outputs": [
        {
          "internalType": "string",
          "name": "",
          "type": "string"
        }
      ],
      "stateMutability": "view",
      "type": "function"
    },
    {
      "inputs": [
        {
          "internalType": "address",
          "name": "owner",
          "type": "address"
        }
      ],
      "name": "getWritePriceByAddress",
      "outputs": [
        {
          "internalType": "uint256",
          "name": "",
          "type": "uint256"
        }
      ],
      "stateMutability": "view",
      "type": "function"
    },
    {
      "inputs": [
        {
          "internalType": "uint256",
          "name": "tokenId",
          "type": "uint256"
        }
      ],
      "name": "getWritePriceByTokeId",
      "outputs": [
        {
          "internalType": "uint256",
          "name": "",
          "type": "uint256"
        }
      ],
      "stateMutability": "view",
      "type": "function"
    },
    {
      "inputs": [
        {
          "internalType": "address",
          "name": "owner",
          "type": "address"
        },
        {
          "internalType": "address",
          "name": "operator",
          "type": "address"
        }
      ],
      "name": "isApprovedForAll",
      "outputs": [
        {
          "internalType": "bool",
          "name": "",
          "type": "bool"
        }
      ],
      "stateMutability": "view",
      "type": "function"
    },
    {
      "inputs": [],
      "name": "name",
      "outputs": [
        {
          "internalType": "string",
          "name": "",
          "type": "string"
        }
      ],
      "stateMutability": "view",
      "type": "function"
    },
    {
      "inputs": [],
      "name": "owner",
      "outputs": [
        {
          "internalType": "address",
          "name": "",
          "type": "address"
        }
      ],
      "stateMutability": "view",
      "type": "function"
    },
    {
      "inputs": [
        {
          "internalType": "uint256",
          "name": "tokenId",
          "type": "uint256"
        }
      ],
      "name": "ownerOf",
      "outputs": [
        {
          "internalType": "address",
          "name": "",
          "type": "address"
        }
      ],
      "stateMutability": "view",
      "type": "function"
    },
    {
      "inputs": [],
      "name": "removeWritePrice",
      "outputs": [],
      "stateMutability": "nonpayable",
      "type": "function"
    },
    {
      "inputs": [],
      "name": "renounceOwnership",
      "outputs": [],
      "stateMutability": "nonpayable",
      "type": "function"
    },
    {
      "inputs": [
        {
          "internalType": "address",
          "name": "from",
          "type": "address"
        },
        {
          "internalType": "address",
          "name": "to",
          "type": "address"
        },
        {
          "internalType": "uint256",
          "name": "tokenId",
          "type": "uint256"
        }
      ],
      "name": "safeTransferFrom",
      "outputs": [],
      "stateMutability": "nonpayable",
      "type": "function"
    },
    {
      "inputs": [
        {
          "internalType": "address",
          "name": "from",
          "type": "address"
        },
        {
          "internalType": "address",
          "name": "to",
          "type": "address"
        },
        {
          "internalType": "uint256",
          "name": "tokenId",
          "type": "uint256"
        },
        {
          "internalType": "bytes",
          "name": "_data",
          "type": "bytes"
        }
      ],
      "name": "safeTransferFrom",
      "outputs": [],
      "stateMutability": "nonpayable",
      "type": "function"
    },
    {
      "inputs": [
        {
          "internalType": "address",
          "name": "operator",
          "type": "address"
        },
        {
          "internalType": "bool",
          "name": "approved",
          "type": "bool"
        }
      ],
      "name": "setApprovalForAll",
      "outputs": [],
      "stateMutability": "nonpayable",
      "type": "function"
    },
    {
      "inputs": [
        {
          "internalType": "uint256",
          "name": "writePrice",
          "type": "uint256"
        }
      ],
      "name": "setWritePrice",
      "outputs": [],
      "stateMutability": "nonpayable",
      "type": "function"
    },
    {
      "inputs": [
        {
          "internalType": "bytes4",
          "name": "interfaceId",
          "type": "bytes4"
        }
      ],
      "name": "supportsInterface",
      "outputs": [
        {
          "internalType": "bool",
          "name": "",
          "type": "bool"
        }
      ],
      "stateMutability": "view",
      "type": "function"
    },
    {
      "inputs": [],
      "name": "symbol",
      "outputs": [
        {
          "internalType": "string",
          "name": "",
          "type": "string"
        }
      ],
      "stateMutability": "view",
      "type": "function"
    },
    {
      "inputs": [
        {
          "internalType": "uint256",
          "name": "index",
          "type": "uint256"
        }
      ],
      "name": "tokenByIndex",
      "outputs": [
        {
          "internalType": "uint256",
          "name": "",
          "type": "uint256"
        }
      ],
      "stateMutability": "view",
      "type": "function"
    },
    {
      "inputs": [
        {
          "internalType": "address",
          "name": "owner",
          "type": "address"
        },
        {
          "internalType": "uint256",
          "name": "index",
          "type": "uint256"
        }
      ],
      "name": "tokenOfOwnerByIndex",
      "outputs": [
        {
          "internalType": "uint256",
          "name": "",
          "type": "uint256"
        }
      ],
      "stateMutability": "view",
      "type": "function"
    },
    {
      "inputs": [
        {
          "internalType": "uint256",
          "name": "tokenId",
          "type": "uint256"
        }
      ],
      "name": "tokenURI",
      "outputs": [
        {
          "internalType": "string",
          "name": "",
          "type": "string"
        }
      ],
      "stateMutability": "view",
      "type": "function"
    },
    {
      "inputs": [
        {
          "internalType": "uint256",
          "name": "",
          "type": "uint256"
        }
      ],
      "name": "tokensToAddress",
      "outputs": [
        {
          "internalType": "address",
          "name": "",
          "type": "address"
        }
      ],
      "stateMutability": "view",
      "type": "function"
    },
    {
      "inputs": [],
      "name": "totalSupply",
      "outputs": [
        {
          "internalType": "uint256",
          "name": "",
          "type": "uint256"
        }
      ],
      "stateMutability": "view",
      "type": "function"
    },
    {
      "inputs": [
        {
          "internalType": "address",
          "name": "from",
          "type": "address"
        },
        {
          "internalType": "address",
          "name": "to",
          "type": "address"
        },
        {
          "internalType": "uint256",
          "name": "tokenId",
          "type": "uint256"
        }
      ],
      "name": "transferFrom",
      "outputs": [],
      "stateMutability": "nonpayable",
      "type": "function"
    },
    {
      "inputs": [
        {
          "internalType": "address",
          "name": "newOwner",
          "type": "address"
        }
      ],
      "name": "transferOwnership",
      "outputs": [],
      "stateMutability": "nonpayable",
      "type": "function"
    },
    {
      "inputs": [
        {
          "internalType": "address payable",
          "name": "wallet",
          "type": "address"
        }
      ],
      "name": "withdraw",
      "outputs": [],
      "stateMutability": "nonpayable",
      "type": "function"
    },
    {
      "inputs": [
        {
          "internalType": "address",
          "name": "userAddress",
          "type": "address"
        },
        {
          "internalType": "string",
          "name": "message",
          "type": "string"
        }
      ],
      "name": "writeFree",
      "outputs": [],
      "stateMutability": "nonpayable",
      "type": "function"
    },
    {
      "inputs": [
        {
          "internalType": "address",
          "name": "userAddress",
          "type": "address"
        },
        {
          "internalType": "string",
          "name": "message",
          "type": "string"
        }
      ],
      "name": "writePayable",
      "outputs": [],
      "stateMutability": "payable",
      "type": "function"
    }
  ],
  "bytecode": "0x60806040523480156200001157600080fd5b506040518060400160405280600981526020017f4d6573736167654d6500000000000000000000000000000000000000000000008152506040518060400160405280600381526020017f4d534700000000000000000000000000000000000000000000000000000000008152506200009e62000092620000d860201b60201c565b620000e060201b60201c565b8160019080519060200190620000b6929190620001a4565b508060029080519060200190620000cf929190620001a4565b505050620002b9565b600033905090565b60008060009054906101000a900473ffffffffffffffffffffffffffffffffffffffff169050816000806101000a81548173ffffffffffffffffffffffffffffffffffffffff021916908373ffffffffffffffffffffffffffffffffffffffff1602179055508173ffffffffffffffffffffffffffffffffffffffff168173ffffffffffffffffffffffffffffffffffffffff167f8be0079c531659141344cd1fd0a4f28419497f9722a3daafe3b4186f6b6457e060405160405180910390a35050565b828054620001b29062000254565b90600052602060002090601f016020900481019282620001d6576000855562000222565b82601f10620001f157805160ff191683800117855562000222565b8280016001018555821562000222579182015b828111156200022157825182559160200191906001019062000204565b5b50905062000231919062000235565b5090565b5b808211156200025057600081600090555060010162000236565b5090565b600060028204905060018216806200026d57607f821691505b602082108114156200028457620002836200028a565b5b50919050565b7f4e487b7100000000000000000000000000000000000000000000000000000000600052602260045260246000fd5b61547280620002c96000396000f3fe6080604052600436106101d85760003560e01c806351cff8d911610102578063ab1392d411610095578063d754e7ec11610064578063d754e7ec146106f2578063e985e9c514610734578063f2fde38b14610771578063f645ad0a1461079a576101d8565b8063ab1392d414610626578063b88d4fde1461064f578063c87b56dd14610678578063ce6fb23f146106b5576101d8565b806382d12db1116100d157806382d12db11461056a5780638da5cb5b146105a757806395d89b41146105d2578063a22cb465146105fd576101d8565b806351cff8d9146104b05780636352211e146104d957806370a0823114610516578063715018a614610553576101d8565b806318160ddd1161017a57806342842e0e1161014957806342842e0e146103f65780634451d89f1461041f57806347efe240146104365780634f6ccce714610473576101d8565b806318160ddd1461033c57806323b872dd146103675780632f745c5914610390578063392ee79d146103cd576101d8565b806306fdde03116101b657806306fdde031461026e578063081812fc14610299578063095ea7b3146102d6578063097b87cb146102ff576101d8565b806301ffc9a7146101dd57806305435fb11461021a5780630668dcaa14610231575b600080fd5b3480156101e957600080fd5b5061020460048036038101906101ff9190613bfc565b6107b6565b60405161021191906142fc565b60405180910390f35b34801561022657600080fd5b5061022f6107c8565b005b34801561023d57600080fd5b5061025860048036038101906102539190613c4e565b61082c565b6040516102659190614295565b60405180910390f35b34801561027a57600080fd5b5061028361085f565b604051610290919061437f565b60405180910390f35b3480156102a557600080fd5b506102c060048036038101906102bb9190613c4e565b6108f1565b6040516102cd9190614295565b60405180910390f35b3480156102e257600080fd5b506102fd60048036038101906102f89190613bc0565b610976565b005b34801561030b57600080fd5b50610326600480360381019061032191906139d4565b610a8e565b6040516103339190614601565b60405180910390f35b34801561034857600080fd5b50610351610ada565b60405161035e9190614601565b60405180910390f35b34801561037357600080fd5b5061038e60048036038101906103899190613a62565b610ae7565b005b34801561039c57600080fd5b506103b760048036038101906103b29190613bc0565b610b2d565b6040516103c49190614601565b60405180910390f35b3480156103d957600080fd5b506103f460048036038101906103ef9190613c4e565b610bd2565b005b34801561040257600080fd5b5061041d60048036038101906104189190613a62565b610c85565b005b34801561042b57600080fd5b50610434610ccb565b005b34801561044257600080fd5b5061045d600480360381019061045891906139d4565b610ff5565b60405161046a919061437f565b60405180910390f35b34801561047f57600080fd5b5061049a60048036038101906104959190613c4e565b61110d565b6040516104a79190614601565b60405180910390f35b3480156104bc57600080fd5b506104d760048036038101906104d291906139fd565b6111a4565b005b3480156104e557600080fd5b5061050060048036038101906104fb9190613c4e565b61137e565b60405161050d9190614295565b60405180910390f35b34801561052257600080fd5b5061053d600480360381019061053891906139d4565b611430565b60405161054a9190614601565b60405180910390f35b34801561055f57600080fd5b506105686114e8565b005b34801561057657600080fd5b50610591600480360381019061058c9190613c4e565b611570565b60405161059e9190614601565b60405180910390f35b3480156105b357600080fd5b506105bc6115b5565b6040516105c99190614295565b60405180910390f35b3480156105de57600080fd5b506105e76115de565b6040516105f4919061437f565b60405180910390f35b34801561060957600080fd5b50610624600480360381019061061f9190613b2c565b611670565b005b34801561063257600080fd5b5061064d60048036038101906106489190613b68565b6117f1565b005b34801561065b57600080fd5b5061067660048036038101906106719190613ab1565b611b0b565b005b34801561068457600080fd5b5061069f600480360381019061069a9190613c4e565b611b11565b6040516106ac919061437f565b60405180910390f35b3480156106c157600080fd5b506106dc60048036038101906106d791906139d4565b6121af565b6040516106e99190614601565b60405180910390f35b3480156106fe57600080fd5b50610719600480360381019061071491906139d4565b6121c7565b60405161072b96959493929190614317565b60405180910390f35b34801561074057600080fd5b5061075b60048036038101906107569190613a26565b6122b2565b60405161076891906142fc565b60405180910390f35b34801561077d57600080fd5b50610798600480360381019061079391906139d4565b612346565b005b6107b460048036038101906107af9190613b68565b61243e565b005b60006107c1826127a3565b9050919050565b6000600c60006107d661281d565b73ffffffffffffffffffffffffffffffffffffffff1673ffffffffffffffffffffffffffffffffffffffff16815260200190815260200160002060000160016101000a81548160ff021916908315150217905550565b600d6020528060005260406000206000915054906101000a900473ffffffffffffffffffffffffffffffffffffffff1681565b60606001805461086e906148a7565b80601f016020809104026020016040519081016040528092919081815260200182805461089a906148a7565b80156108e75780601f106108bc576101008083540402835291602001916108e7565b820191906000526020600020905b8154815290600101906020018083116108ca57829003601f168201915b5050505050905090565b60006108fc82612825565b61093b576040517f08c379a000000000000000000000000000000000000000000000000000000000815260040161093290614521565b60405180910390fd5b6005600083815260200190815260200160002060009054906101000a900473ffffffffffffffffffffffffffffffffffffffff169050919050565b60006109818261137e565b90508073ffffffffffffffffffffffffffffffffffffffff168373ffffffffffffffffffffffffffffffffffffffff1614156109f2576040517f08c379a00000000000000000000000000000000000000000000000000000000081526004016109e990614581565b60405180910390fd5b8073ffffffffffffffffffffffffffffffffffffffff16610a1161281d565b73ffffffffffffffffffffffffffffffffffffffff161480610a405750610a3f81610a3a61281d565b6122b2565b5b610a7f576040517f08c379a0000000000000000000000000000000000000000000000000000000008152600401610a76906144a1565b60405180910390fd5b610a898383612891565b505050565b6000600c60008373ffffffffffffffffffffffffffffffffffffffff1673ffffffffffffffffffffffffffffffffffffffff168152602001908152602001600020600101549050919050565b6000600980549050905090565b6000610b28576040517f08c379a0000000000000000000000000000000000000000000000000000000008152600401610b1f906145c1565b60405180910390fd5b505050565b6000610b3883611430565b8210610b79576040517f08c379a0000000000000000000000000000000000000000000000000000000008152600401610b70906143c1565b60405180910390fd5b600760008473ffffffffffffffffffffffffffffffffffffffff1673ffffffffffffffffffffffffffffffffffffffff168152602001908152602001600020600083815260200190815260200160002054905092915050565b6001600c6000610be061281d565b73ffffffffffffffffffffffffffffffffffffffff1673ffffffffffffffffffffffffffffffffffffffff16815260200190815260200160002060000160016101000a81548160ff02191690831515021790555080600c6000610c4161281d565b73ffffffffffffffffffffffffffffffffffffffff1673ffffffffffffffffffffffffffffffffffffffff1681526020019081526020016000206001018190555050565b6000610cc6576040517f08c379a0000000000000000000000000000000000000000000000000000000008152600401610cbd906145c1565b60405180910390fd5b505050565b60001515600c6000610cdb61281d565b73ffffffffffffffffffffffffffffffffffffffff1673ffffffffffffffffffffffffffffffffffffffff16815260200190815260200160002060000160009054906101000a900460ff16151514610d68576040517f08c379a0000000000000000000000000000000000000000000000000000000008152600401610d5f90614441565b60405180910390fd5b610d72600b61294a565b6000610d7e600b612960565b9050610d8861281d565b600d600083815260200190815260200160002060006101000a81548173ffffffffffffffffffffffffffffffffffffffff021916908373ffffffffffffffffffffffffffffffffffffffff1602179055506001600c6000610de761281d565b73ffffffffffffffffffffffffffffffffffffffff1673ffffffffffffffffffffffffffffffffffffffff16815260200190815260200160002060000160006101000a81548160ff0219169083151502179055506001600c6000610e4961281d565b73ffffffffffffffffffffffffffffffffffffffff1673ffffffffffffffffffffffffffffffffffffffff16815260200190815260200160002060020160006101000a81548160ff0219169083151502179055506000600c6000610eab61281d565b73ffffffffffffffffffffffffffffffffffffffff1673ffffffffffffffffffffffffffffffffffffffff16815260200190815260200160002060000160016101000a81548160ff0219169083151502179055506040518060400160405280601381526020017f697473206e69636520746f2073656520796f7500000000000000000000000000815250600c6000610f4161281d565b73ffffffffffffffffffffffffffffffffffffffff1673ffffffffffffffffffffffffffffffffffffffff1681526020019081526020016000206003019080519060200190610f9192919061377b565b506000600c6000610fa061281d565b73ffffffffffffffffffffffffffffffffffffffff1673ffffffffffffffffffffffffffffffffffffffff168152602001908152602001600020600f0181905550610ff2610fec61281d565b8261296e565b50565b6060600c600061100361281d565b73ffffffffffffffffffffffffffffffffffffffff1673ffffffffffffffffffffffffffffffffffffffff16815260200190815260200160002060040160008373ffffffffffffffffffffffffffffffffffffffff1673ffffffffffffffffffffffffffffffffffffffff1681526020019081526020016000208054611088906148a7565b80601f01602080910402602001604051908101604052809291908181526020018280546110b4906148a7565b80156111015780601f106110d657610100808354040283529160200191611101565b820191906000526020600020905b8154815290600101906020018083116110e457829003601f168201915b50505050509050919050565b6000611117610ada565b8210611158576040517f08c379a000000000000000000000000000000000000000000000000000000000815260040161114f906145a1565b60405180910390fd5b60098281548110611192577f4e487b7100000000000000000000000000000000000000000000000000000000600052603260045260246000fd5b90600052602060002001549050919050565b8073ffffffffffffffffffffffffffffffffffffffff166111c361281d565b73ffffffffffffffffffffffffffffffffffffffff1614611219576040517f08c379a000000000000000000000000000000000000000000000000000000000815260040161121090614541565b60405180910390fd5b6000600e600061122761281d565b73ffffffffffffffffffffffffffffffffffffffff1673ffffffffffffffffffffffffffffffffffffffff16815260200190815260200160002054116112a2576040517f08c379a000000000000000000000000000000000000000000000000000000000815260040161129990614481565b60405180910390fd5b8073ffffffffffffffffffffffffffffffffffffffff166108fc600e60006112c861281d565b73ffffffffffffffffffffffffffffffffffffffff1673ffffffffffffffffffffffffffffffffffffffff168152602001908152602001600020549081150290604051600060405180830381858888f1935050505015801561132e573d6000803e3d6000fd5b506000600e600061133d61281d565b73ffffffffffffffffffffffffffffffffffffffff1673ffffffffffffffffffffffffffffffffffffffff1681526020019081526020016000208190555050565b6000806003600084815260200190815260200160002060009054906101000a900473ffffffffffffffffffffffffffffffffffffffff169050600073ffffffffffffffffffffffffffffffffffffffff168173ffffffffffffffffffffffffffffffffffffffff161415611427576040517f08c379a000000000000000000000000000000000000000000000000000000000815260040161141e906144e1565b60405180910390fd5b80915050919050565b60008073ffffffffffffffffffffffffffffffffffffffff168273ffffffffffffffffffffffffffffffffffffffff1614156114a1576040517f08c379a0000000000000000000000000000000000000000000000000000000008152600401611498906144c1565b60405180910390fd5b600460008373ffffffffffffffffffffffffffffffffffffffff1673ffffffffffffffffffffffffffffffffffffffff168152602001908152602001600020549050919050565b6114f061281d565b73ffffffffffffffffffffffffffffffffffffffff1661150e6115b5565b73ffffffffffffffffffffffffffffffffffffffff1614611564576040517f08c379a000000000000000000000000000000000000000000000000000000000815260040161155b90614561565b60405180910390fd5b61156e600061298c565b565b60006115ae600d600084815260200190815260200160002060009054906101000a900473ffffffffffffffffffffffffffffffffffffffff16610a8e565b9050919050565b60008060009054906101000a900473ffffffffffffffffffffffffffffffffffffffff16905090565b6060600280546115ed906148a7565b80601f0160208091040260200160405190810160405280929190818152602001828054611619906148a7565b80156116665780601f1061163b57610100808354040283529160200191611666565b820191906000526020600020905b81548152906001019060200180831161164957829003601f168201915b5050505050905090565b61167861281d565b73ffffffffffffffffffffffffffffffffffffffff168273ffffffffffffffffffffffffffffffffffffffff1614156116e6576040517f08c379a00000000000000000000000000000000000000000000000000000000081526004016116dd90614461565b60405180910390fd5b80600660006116f361281d565b73ffffffffffffffffffffffffffffffffffffffff1673ffffffffffffffffffffffffffffffffffffffff16815260200190815260200160002060008473ffffffffffffffffffffffffffffffffffffffff1673ffffffffffffffffffffffffffffffffffffffff16815260200190815260200160002060006101000a81548160ff0219169083151502179055508173ffffffffffffffffffffffffffffffffffffffff166117a061281d565b73ffffffffffffffffffffffffffffffffffffffff167f17307eab39ab6107e8899845ad3d59bd9653f200f220920489ca2b5937696c31836040516117e591906142fc565b60405180910390a35050565b600c60008473ffffffffffffffffffffffffffffffffffffffff1673ffffffffffffffffffffffffffffffffffffffff16815260200190815260200160002060000160019054906101000a900460ff1615611881576040517f08c379a0000000000000000000000000000000000000000000000000000000008152600401611878906143a1565b60405180910390fd5b8181600c60008673ffffffffffffffffffffffffffffffffffffffff1673ffffffffffffffffffffffffffffffffffffffff16815260200190815260200160002060040160006118cf61281d565b73ffffffffffffffffffffffffffffffffffffffff1673ffffffffffffffffffffffffffffffffffffffff1681526020019081526020016000209190611916929190613801565b5061191f61281d565b600c60008573ffffffffffffffffffffffffffffffffffffffff1673ffffffffffffffffffffffffffffffffffffffff168152602001908152602001600020600501600c60008673ffffffffffffffffffffffffffffffffffffffff1673ffffffffffffffffffffffffffffffffffffffff168152602001908152602001600020600f0154600a81106119db577f4e487b7100000000000000000000000000000000000000000000000000000000600052603260045260246000fd5b0160006101000a81548173ffffffffffffffffffffffffffffffffffffffff021916908373ffffffffffffffffffffffffffffffffffffffff160217905550600c60008473ffffffffffffffffffffffffffffffffffffffff1673ffffffffffffffffffffffffffffffffffffffff168152602001908152602001600020600f016000815480929190611a6d9061490a565b91905055506009600c60008573ffffffffffffffffffffffffffffffffffffffff1673ffffffffffffffffffffffffffffffffffffffff168152602001908152602001600020600f01541115611b06576000600c60008573ffffffffffffffffffffffffffffffffffffffff1673ffffffffffffffffffffffffffffffffffffffff168152602001908152602001600020600f01819055505b505050565b50505050565b60606000600c6000600d600086815260200190815260200160002060009054906101000a900473ffffffffffffffffffffffffffffffffffffffff1673ffffffffffffffffffffffffffffffffffffffff1673ffffffffffffffffffffffffffffffffffffffff168152602001908152602001600020600501600a806020026040519081016040528092919082600a8015611bf7576020028201915b8160009054906101000a900473ffffffffffffffffffffffffffffffffffffffff1673ffffffffffffffffffffffffffffffffffffffff1681526020019060010190808311611bad575b505050505090506000604051806102e001604052806102bc81526020016150b86102bc9139600c6000600d600088815260200190815260200160002060009054906101000a900473ffffffffffffffffffffffffffffffffffffffff1673ffffffffffffffffffffffffffffffffffffffff1673ffffffffffffffffffffffffffffffffffffffff168152602001908152602001600020600301604051602001611ca2929190614186565b60405160208183030381529060405290506000805b600a811015611e1b576000601482611ccf9190614751565b6032611cdb91906146ca565b90508280611ce89061490a565b93505083611cf582612a50565b600c6000600d60008c815260200190815260200160002060009054906101000a900473ffffffffffffffffffffffffffffffffffffffff1673ffffffffffffffffffffffffffffffffffffffff1673ffffffffffffffffffffffffffffffffffffffff16815260200190815260200160002060040160008886600a8110611da5577f4e487b7100000000000000000000000000000000000000000000000000000000600052603260045260246000fd5b602002015173ffffffffffffffffffffffffffffffffffffffff1673ffffffffffffffffffffffffffffffffffffffff168152602001908152602001600020604051602001611df6939291906141ef565b6040516020818303038152906040529350508080611e139061490a565b915050611cb7565b50600c6000600d600088815260200190815260200160002060009054906101000a900473ffffffffffffffffffffffffffffffffffffffff1673ffffffffffffffffffffffffffffffffffffffff1673ffffffffffffffffffffffffffffffffffffffff16815260200190815260200160002060000160019054906101000a900460ff1615611f465781611f23600c6000600d60008a815260200190815260200160002060009054906101000a900473ffffffffffffffffffffffffffffffffffffffff1673ffffffffffffffffffffffffffffffffffffffff1673ffffffffffffffffffffffffffffffffffffffff16815260200190815260200160002060010154612a50565b604051602001611f349291906141b5565b60405160208183030381529060405291505b816040518060a001604052806076815260200161504260769139604051602001611f71929190614131565b604051602081830303815290604052915060006040518060400160405280600981526020017f6c696d65677265656e00000000000000000000000000000000000000000000008152509050600c6000600d600089815260200190815260200160002060009054906101000a900473ffffffffffffffffffffffffffffffffffffffff1673ffffffffffffffffffffffffffffffffffffffff1673ffffffffffffffffffffffffffffffffffffffff16815260200190815260200160002060020160009054906101000a900460ff1661207c576040518060400160405280600381526020017f726564000000000000000000000000000000000000000000000000000000000081525090505b82816040518060400160405280600981526020017f222f3e3c2f7376673e00000000000000000000000000000000000000000000008152506040516020016120c693929190614155565b604051602081830303815290604052925060006121476120e588612a50565b6040518060a00160405280606581526020016153d8606591396040518060600160405280602481526020016153746024913961212088612bfd565b6040516020016121339493929190614241565b604051602081830303815290604052612bfd565b90506040518060400160405280601d81526020017f646174613a6170706c69636174696f6e2f6a736f6e3b6261736536342c00000081525081604051602001612191929190614131565b60405160208183030381529060405293508395505050505050919050565b600e6020528060005260406000206000915090505481565b600c6020528060005260406000206000915090508060000160009054906101000a900460ff16908060000160019054906101000a900460ff16908060010154908060020160009054906101000a900460ff1690806003018054612229906148a7565b80601f0160208091040260200160405190810160405280929190818152602001828054612255906148a7565b80156122a25780601f10612277576101008083540402835291602001916122a2565b820191906000526020600020905b81548152906001019060200180831161228557829003601f168201915b50505050509080600f0154905086565b6000600660008473ffffffffffffffffffffffffffffffffffffffff1673ffffffffffffffffffffffffffffffffffffffff16815260200190815260200160002060008373ffffffffffffffffffffffffffffffffffffffff1673ffffffffffffffffffffffffffffffffffffffff16815260200190815260200160002060009054906101000a900460ff16905092915050565b61234e61281d565b73ffffffffffffffffffffffffffffffffffffffff1661236c6115b5565b73ffffffffffffffffffffffffffffffffffffffff16146123c2576040517f08c379a00000000000000000000000000000000000000000000000000000000081526004016123b990614561565b60405180910390fd5b600073ffffffffffffffffffffffffffffffffffffffff168173ffffffffffffffffffffffffffffffffffffffff161415612432576040517f08c379a000000000000000000000000000000000000000000000000000000000815260040161242990614401565b60405180910390fd5b61243b8161298c565b50565b600c60008473ffffffffffffffffffffffffffffffffffffffff1673ffffffffffffffffffffffffffffffffffffffff168152602001908152602001600020600101543410156124c3576040517f08c379a00000000000000000000000000000000000000000000000000000000081526004016124ba906145e1565b60405180910390fd5b8181600c60008673ffffffffffffffffffffffffffffffffffffffff1673ffffffffffffffffffffffffffffffffffffffff168152602001908152602001600020600401600061251161281d565b73ffffffffffffffffffffffffffffffffffffffff1673ffffffffffffffffffffffffffffffffffffffff1681526020019081526020016000209190612558929190613801565b5061256161281d565b600c60008573ffffffffffffffffffffffffffffffffffffffff1673ffffffffffffffffffffffffffffffffffffffff168152602001908152602001600020600501600c60008673ffffffffffffffffffffffffffffffffffffffff1673ffffffffffffffffffffffffffffffffffffffff168152602001908152602001600020600f0154600a811061261d577f4e487b7100000000000000000000000000000000000000000000000000000000600052603260045260246000fd5b0160006101000a81548173ffffffffffffffffffffffffffffffffffffffff021916908373ffffffffffffffffffffffffffffffffffffffff160217905550600c60008473ffffffffffffffffffffffffffffffffffffffff1673ffffffffffffffffffffffffffffffffffffffff168152602001908152602001600020600f0160008154809291906126af9061490a565b91905055506009600c60008573ffffffffffffffffffffffffffffffffffffffff1673ffffffffffffffffffffffffffffffffffffffff168152602001908152602001600020600f01541115612748576000600c60008573ffffffffffffffffffffffffffffffffffffffff1673ffffffffffffffffffffffffffffffffffffffff168152602001908152602001600020600f01819055505b34600e60008573ffffffffffffffffffffffffffffffffffffffff1673ffffffffffffffffffffffffffffffffffffffff168152602001908152602001600020600082825461279791906146ca565b92505081905550505050565b60007f780e9d63000000000000000000000000000000000000000000000000000000007bffffffffffffffffffffffffffffffffffffffffffffffffffffffff1916827bffffffffffffffffffffffffffffffffffffffffffffffffffffffff19161480612816575061281582612dbb565b5b9050919050565b600033905090565b60008073ffffffffffffffffffffffffffffffffffffffff166003600084815260200190815260200160002060009054906101000a900473ffffffffffffffffffffffffffffffffffffffff1673ffffffffffffffffffffffffffffffffffffffff1614159050919050565b816005600083815260200190815260200160002060006101000a81548173ffffffffffffffffffffffffffffffffffffffff021916908373ffffffffffffffffffffffffffffffffffffffff160217905550808273ffffffffffffffffffffffffffffffffffffffff166129048361137e565b73ffffffffffffffffffffffffffffffffffffffff167f8c5be1e5ebec7d5bd14f71427d1e84f3dd0314c0f7b2291e5b200ac8c7c3b92560405160405180910390a45050565b6001816000016000828254019250508190555050565b600081600001549050919050565b612988828260405180602001604052806000815250612e9d565b5050565b60008060009054906101000a900473ffffffffffffffffffffffffffffffffffffffff169050816000806101000a81548173ffffffffffffffffffffffffffffffffffffffff021916908373ffffffffffffffffffffffffffffffffffffffff1602179055508173ffffffffffffffffffffffffffffffffffffffff168173ffffffffffffffffffffffffffffffffffffffff167f8be0079c531659141344cd1fd0a4f28419497f9722a3daafe3b4186f6b6457e060405160405180910390a35050565b60606000821415612a98576040518060400160405280600181526020017f30000000000000000000000000000000000000000000000000000000000000008152509050612bf8565b600082905060005b60008214612aca578080612ab39061490a565b915050600a82612ac39190614720565b9150612aa0565b60008167ffffffffffffffff811115612b0c577f4e487b7100000000000000000000000000000000000000000000000000000000600052604160045260246000fd5b6040519080825280601f01601f191660200182016040528015612b3e5781602001600182028036833780820191505090505b5090505b60008514612bf157600182612b5791906147ab565b9150600a85612b669190614953565b6030612b7291906146ca565b60f81b818381518110612bae577f4e487b7100000000000000000000000000000000000000000000000000000000600052603260045260246000fd5b60200101907effffffffffffffffffffffffffffffffffffffffffffffffffffffffffffff1916908160001a905350600a85612bea9190614720565b9450612b42565b8093505050505b919050565b60606000825190506000811415612c265760405180602001604052806000815250915050612db6565b60006003600283612c3791906146ca565b612c419190614720565b6004612c4d9190614751565b90506000602082612c5e91906146ca565b67ffffffffffffffff811115612c9d577f4e487b7100000000000000000000000000000000000000000000000000000000600052604160045260246000fd5b6040519080825280601f01601f191660200182016040528015612ccf5781602001600182028036833780820191505090505b5090506000604051806060016040528060408152602001615398604091399050600181016020830160005b86811015612d735760038101905062ffffff818a015116603f8160121c168401518060081b905060ff603f83600c1c1686015116810190508060081b905060ff603f8360061c1686015116810190508060081b905060ff603f831686015116810190508060e01b90508084526004840193505050612cfa565b506003860660018114612d8d5760028114612d9d57612da8565b613d3d60f01b6002830352612da8565b603d60f81b60018303525b508484525050819450505050505b919050565b60007f80ac58cd000000000000000000000000000000000000000000000000000000007bffffffffffffffffffffffffffffffffffffffffffffffffffffffff1916827bffffffffffffffffffffffffffffffffffffffffffffffffffffffff19161480612e8657507f5b5e139f000000000000000000000000000000000000000000000000000000007bffffffffffffffffffffffffffffffffffffffffffffffffffffffff1916827bffffffffffffffffffffffffffffffffffffffffffffffffffffffff1916145b80612e965750612e9582612ef8565b5b9050919050565b612ea78383612f62565b612eb46000848484613130565b612ef3576040517f08c379a0000000000000000000000000000000000000000000000000000000008152600401612eea906143e1565b60405180910390fd5b505050565b60007f01ffc9a7000000000000000000000000000000000000000000000000000000007bffffffffffffffffffffffffffffffffffffffffffffffffffffffff1916827bffffffffffffffffffffffffffffffffffffffffffffffffffffffff1916149050919050565b600073ffffffffffffffffffffffffffffffffffffffff168273ffffffffffffffffffffffffffffffffffffffff161415612fd2576040517f08c379a0000000000000000000000000000000000000000000000000000000008152600401612fc990614501565b60405180910390fd5b612fdb81612825565b1561301b576040517f08c379a000000000000000000000000000000000000000000000000000000000815260040161301290614421565b60405180910390fd5b613027600083836132c7565b6001600460008473ffffffffffffffffffffffffffffffffffffffff1673ffffffffffffffffffffffffffffffffffffffff168152602001908152602001600020600082825461307791906146ca565b92505081905550816003600083815260200190815260200160002060006101000a81548173ffffffffffffffffffffffffffffffffffffffff021916908373ffffffffffffffffffffffffffffffffffffffff160217905550808273ffffffffffffffffffffffffffffffffffffffff16600073ffffffffffffffffffffffffffffffffffffffff167fddf252ad1be2c89b69c2b068fc378daa952ba7f163c4a11628f55a4df523b3ef60405160405180910390a45050565b60006131518473ffffffffffffffffffffffffffffffffffffffff166132d7565b156132ba578373ffffffffffffffffffffffffffffffffffffffff1663150b7a0261317a61281d565b8786866040518563ffffffff1660e01b815260040161319c94939291906142b0565b602060405180830381600087803b1580156131b657600080fd5b505af19250505080156131e757506040513d601f19601f820116820180604052508101906131e49190613c25565b60015b61326a573d8060008114613217576040519150601f19603f3d011682016040523d82523d6000602084013e61321c565b606091505b50600081511415613262576040517f08c379a0000000000000000000000000000000000000000000000000000000008152600401613259906143e1565b60405180910390fd5b805181602001fd5b63150b7a0260e01b7bffffffffffffffffffffffffffffffffffffffffffffffffffffffff1916817bffffffffffffffffffffffffffffffffffffffffffffffffffffffff1916149150506132bf565b600190505b949350505050565b6132d28383836132ea565b505050565b600080823b905060008111915050919050565b6132f58383836133fe565b600073ffffffffffffffffffffffffffffffffffffffff168373ffffffffffffffffffffffffffffffffffffffff1614156133385761333381613403565b613377565b8173ffffffffffffffffffffffffffffffffffffffff168373ffffffffffffffffffffffffffffffffffffffff161461337657613375838261344c565b5b5b600073ffffffffffffffffffffffffffffffffffffffff168273ffffffffffffffffffffffffffffffffffffffff1614156133ba576133b5816135b9565b6133f9565b8273ffffffffffffffffffffffffffffffffffffffff168273ffffffffffffffffffffffffffffffffffffffff16146133f8576133f782826136fc565b5b5b505050565b505050565b600980549050600a600083815260200190815260200160002081905550600981908060018154018082558091505060019003906000526020600020016000909190919091505550565b6000600161345984611430565b61346391906147ab565b9050600060086000848152602001908152602001600020549050818114613548576000600760008673ffffffffffffffffffffffffffffffffffffffff1673ffffffffffffffffffffffffffffffffffffffff168152602001908152602001600020600084815260200190815260200160002054905080600760008773ffffffffffffffffffffffffffffffffffffffff1673ffffffffffffffffffffffffffffffffffffffff168152602001908152602001600020600084815260200190815260200160002081905550816008600083815260200190815260200160002081905550505b6008600084815260200190815260200160002060009055600760008573ffffffffffffffffffffffffffffffffffffffff1673ffffffffffffffffffffffffffffffffffffffff16815260200190815260200160002060008381526020019081526020016000206000905550505050565b600060016009805490506135cd91906147ab565b90506000600a6000848152602001908152602001600020549050600060098381548110613623577f4e487b7100000000000000000000000000000000000000000000000000000000600052603260045260246000fd5b90600052602060002001549050806009838154811061366b577f4e487b7100000000000000000000000000000000000000000000000000000000600052603260045260246000fd5b906000526020600020018190555081600a600083815260200190815260200160002081905550600a60008581526020019081526020016000206000905560098054806136e0577f4e487b7100000000000000000000000000000000000000000000000000000000600052603160045260246000fd5b6001900381819060005260206000200160009055905550505050565b600061370783611430565b905081600760008573ffffffffffffffffffffffffffffffffffffffff1673ffffffffffffffffffffffffffffffffffffffff168152602001908152602001600020600083815260200190815260200160002081905550806008600084815260200190815260200160002081905550505050565b828054613787906148a7565b90600052602060002090601f0160209004810192826137a957600085556137f0565b82601f106137c257805160ff19168380011785556137f0565b828001600101855582156137f0579182015b828111156137ef5782518255916020019190600101906137d4565b5b5090506137fd9190613887565b5090565b82805461380d906148a7565b90600052602060002090601f01602090048101928261382f5760008555613876565b82601f1061384857803560ff1916838001178555613876565b82800160010185558215613876579182015b8281111561387557823582559160200191906001019061385a565b5b5090506138839190613887565b5090565b5b808211156138a0576000816000905550600101613888565b5090565b60006138b76138b284614641565b61461c565b9050828152602081018484840111156138cf57600080fd5b6138da848285614865565b509392505050565b6000813590506138f181614fce565b92915050565b60008135905061390681614fe5565b92915050565b60008135905061391b81614ffc565b92915050565b60008135905061393081615013565b92915050565b60008151905061394581615013565b92915050565b600082601f83011261395c57600080fd5b813561396c8482602086016138a4565b91505092915050565b60008083601f84011261398757600080fd5b8235905067ffffffffffffffff8111156139a057600080fd5b6020830191508360018202830111156139b857600080fd5b9250929050565b6000813590506139ce8161502a565b92915050565b6000602082840312156139e657600080fd5b60006139f4848285016138e2565b91505092915050565b600060208284031215613a0f57600080fd5b6000613a1d848285016138f7565b91505092915050565b60008060408385031215613a3957600080fd5b6000613a47858286016138e2565b9250506020613a58858286016138e2565b9150509250929050565b600080600060608486031215613a7757600080fd5b6000613a85868287016138e2565b9350506020613a96868287016138e2565b9250506040613aa7868287016139bf565b9150509250925092565b60008060008060808587031215613ac757600080fd5b6000613ad5878288016138e2565b9450506020613ae6878288016138e2565b9350506040613af7878288016139bf565b925050606085013567ffffffffffffffff811115613b1457600080fd5b613b208782880161394b565b91505092959194509250565b60008060408385031215613b3f57600080fd5b6000613b4d858286016138e2565b9250506020613b5e8582860161390c565b9150509250929050565b600080600060408486031215613b7d57600080fd5b6000613b8b868287016138e2565b935050602084013567ffffffffffffffff811115613ba857600080fd5b613bb486828701613975565b92509250509250925092565b60008060408385031215613bd357600080fd5b6000613be1858286016138e2565b9250506020613bf2858286016139bf565b9150509250929050565b600060208284031215613c0e57600080fd5b6000613c1c84828501613921565b91505092915050565b600060208284031215613c3757600080fd5b6000613c4584828501613936565b91505092915050565b600060208284031215613c6057600080fd5b6000613c6e848285016139bf565b91505092915050565b613c80816147df565b82525050565b613c8f81614803565b82525050565b6000613ca082614687565b613caa818561469d565b9350613cba818560208601614874565b613cc381614a40565b840191505092915050565b6000613cd982614692565b613ce381856146ae565b9350613cf3818560208601614874565b613cfc81614a40565b840191505092915050565b6000613d1282614692565b613d1c81856146bf565b9350613d2c818560208601614874565b80840191505092915050565b60008154613d45816148a7565b613d4f81866146bf565b94506001821660008114613d6a5760018114613d7b57613dae565b60ff19831686528186019350613dae565b613d8485614672565b60005b83811015613da657815481890152600182019150602081019050613d87565b838801955050505b50505092915050565b6000613dc46036836146bf565b9150613dcf82614a51565b603682019050919050565b6000613de76014836146ae565b9150613df282614aa0565b602082019050919050565b6000613e0a602b836146ae565b9150613e1582614ac9565b604082019050919050565b6000613e2d6032836146ae565b9150613e3882614b18565b604082019050919050565b6000613e506026836146ae565b9150613e5b82614b67565b604082019050919050565b6000613e73601c836146ae565b9150613e7e82614bb6565b602082019050919050565b6000613e96600f836146ae565b9150613ea182614bdf565b602082019050919050565b6000613eb96019836146ae565b9150613ec482614c08565b602082019050919050565b6000613edc6012836146ae565b9150613ee782614c31565b602082019050919050565b6000613eff6038836146ae565b9150613f0a82614c5a565b604082019050919050565b6000613f22602a836146ae565b9150613f2d82614ca9565b604082019050919050565b6000613f456029836146ae565b9150613f5082614cf8565b604082019050919050565b6000613f686002836146bf565b9150613f7382614d47565b600282019050919050565b6000613f8b6007836146bf565b9150613f9682614d70565b600782019050919050565b6000613fae6020836146ae565b9150613fb982614d99565b602082019050919050565b6000613fd16010836146bf565b9150613fdc82614dc2565b601082019050919050565b6000613ff4602c836146ae565b9150613fff82614deb565b604082019050919050565b60006140176009836146ae565b915061402282614e3a565b602082019050919050565b600061403a6020836146ae565b915061404582614e63565b602082019050919050565b600061405d6010836146bf565b915061406882614e8c565b601082019050919050565b60006140806021836146ae565b915061408b82614eb5565b604082019050919050565b60006140a36013836146bf565b91506140ae82614f04565b601382019050919050565b60006140c6602c836146ae565b91506140d182614f2d565b604082019050919050565b60006140e9601a836146ae565b91506140f482614f7c565b602082019050919050565b600061410c6011836146ae565b915061411782614fa5565b602082019050919050565b61412b8161485b565b82525050565b600061413d8285613d07565b91506141498284613d07565b91508190509392505050565b60006141618286613d07565b915061416d8285613d07565b91506141798284613d07565b9150819050949350505050565b60006141928285613d07565b915061419e8284613d38565b91506141a982613f7e565b91508190509392505050565b60006141c18285613d07565b91506141cc82613db7565b91506141d88284613d07565b91506141e382613f7e565b91508190509392505050565b60006141fb8286613d07565b915061420682614050565b91506142128285613d07565b915061421d82613fc4565b91506142298284613d38565b915061423482613f7e565b9150819050949350505050565b600061424c82614096565b91506142588287613d07565b91506142648286613d07565b91506142708285613d07565b915061427c8284613d07565b915061428782613f5b565b915081905095945050505050565b60006020820190506142aa6000830184613c77565b92915050565b60006080820190506142c56000830187613c77565b6142d26020830186613c77565b6142df6040830185614122565b81810360608301526142f18184613c95565b905095945050505050565b60006020820190506143116000830184613c86565b92915050565b600060c08201905061432c6000830189613c86565b6143396020830188613c86565b6143466040830187614122565b6143536060830186613c86565b81810360808301526143658185613cce565b905061437460a0830184614122565b979650505050505050565b600060208201905081810360008301526143998184613cce565b905092915050565b600060208201905081810360008301526143ba81613dda565b9050919050565b600060208201905081810360008301526143da81613dfd565b9050919050565b600060208201905081810360008301526143fa81613e20565b9050919050565b6000602082019050818103600083015261441a81613e43565b9050919050565b6000602082019050818103600083015261443a81613e66565b9050919050565b6000602082019050818103600083015261445a81613e89565b9050919050565b6000602082019050818103600083015261447a81613eac565b9050919050565b6000602082019050818103600083015261449a81613ecf565b9050919050565b600060208201905081810360008301526144ba81613ef2565b9050919050565b600060208201905081810360008301526144da81613f15565b9050919050565b600060208201905081810360008301526144fa81613f38565b9050919050565b6000602082019050818103600083015261451a81613fa1565b9050919050565b6000602082019050818103600083015261453a81613fe7565b9050919050565b6000602082019050818103600083015261455a8161400a565b9050919050565b6000602082019050818103600083015261457a8161402d565b9050919050565b6000602082019050818103600083015261459a81614073565b9050919050565b600060208201905081810360008301526145ba816140b9565b9050919050565b600060208201905081810360008301526145da816140dc565b9050919050565b600060208201905081810360008301526145fa816140ff565b9050919050565b60006020820190506146166000830184614122565b92915050565b6000614626614637565b905061463282826148d9565b919050565b6000604051905090565b600067ffffffffffffffff82111561465c5761465b614a11565b5b61466582614a40565b9050602081019050919050565b60008190508160005260206000209050919050565b600081519050919050565b600081519050919050565b600082825260208201905092915050565b600082825260208201905092915050565b600081905092915050565b60006146d58261485b565b91506146e08361485b565b9250827fffffffffffffffffffffffffffffffffffffffffffffffffffffffffffffffff0382111561471557614714614984565b5b828201905092915050565b600061472b8261485b565b91506147368361485b565b925082614746576147456149b3565b5b828204905092915050565b600061475c8261485b565b91506147678361485b565b9250817fffffffffffffffffffffffffffffffffffffffffffffffffffffffffffffffff04831182151516156147a05761479f614984565b5b828202905092915050565b60006147b68261485b565b91506147c18361485b565b9250828210156147d4576147d3614984565b5b828203905092915050565b60006147ea8261483b565b9050919050565b60006147fc8261483b565b9050919050565b60008115159050919050565b60007fffffffff0000000000000000000000000000000000000000000000000000000082169050919050565b600073ffffffffffffffffffffffffffffffffffffffff82169050919050565b6000819050919050565b82818337600083830152505050565b60005b83811015614892578082015181840152602081019050614877565b838111156148a1576000848401525b50505050565b600060028204905060018216806148bf57607f821691505b602082108114156148d3576148d26149e2565b5b50919050565b6148e282614a40565b810181811067ffffffffffffffff8211171561490157614900614a11565b5b80604052505050565b60006149158261485b565b91507fffffffffffffffffffffffffffffffffffffffffffffffffffffffffffffffff82141561494857614947614984565b5b600182019050919050565b600061495e8261485b565b91506149698361485b565b925082614979576149786149b3565b5b828206905092915050565b7f4e487b7100000000000000000000000000000000000000000000000000000000600052601160045260246000fd5b7f4e487b7100000000000000000000000000000000000000000000000000000000600052601260045260246000fd5b7f4e487b7100000000000000000000000000000000000000000000000000000000600052602260045260246000fd5b7f4e487b7100000000000000000000000000000000000000000000000000000000600052604160045260246000fd5b6000601f19601f8301169050919050565b7f3c7465787420783d2232302220793d223338302220636c6173733d227072696360008201527f65223e57726974652050726963652028776569293a2000000000000000000000602082015250565b7f746f6b656e207772697465206e6f742066726565000000000000000000000000600082015250565b7f455243373231456e756d657261626c653a206f776e657220696e646578206f7560008201527f74206f6620626f756e6473000000000000000000000000000000000000000000602082015250565b7f4552433732313a207472616e7366657220746f206e6f6e20455243373231526560008201527f63656976657220696d706c656d656e7465720000000000000000000000000000602082015250565b7f4f776e61626c653a206e6577206f776e657220697320746865207a65726f206160008201527f6464726573730000000000000000000000000000000000000000000000000000602082015250565b7f4552433732313a20746f6b656e20616c7265616479206d696e74656400000000600082015250565b7f616c726561647920636c61696d65640000000000000000000000000000000000600082015250565b7f4552433732313a20617070726f766520746f2063616c6c657200000000000000600082015250565b7f6e6f2065746820746f2077697468647261770000000000000000000000000000600082015250565b7f4552433732313a20617070726f76652063616c6c6572206973206e6f74206f7760008201527f6e6572206e6f7220617070726f76656420666f7220616c6c0000000000000000602082015250565b7f4552433732313a2062616c616e636520717565727920666f7220746865207a6560008201527f726f206164647265737300000000000000000000000000000000000000000000602082015250565b7f4552433732313a206f776e657220717565727920666f72206e6f6e657869737460008201527f656e7420746f6b656e0000000000000000000000000000000000000000000000602082015250565b7f227d000000000000000000000000000000000000000000000000000000000000600082015250565b7f3c2f746578743e00000000000000000000000000000000000000000000000000600082015250565b7f4552433732313a206d696e7420746f20746865207a65726f2061646472657373600082015250565b7f2220636c6173733d2262617365223e3e00000000000000000000000000000000600082015250565b7f4552433732313a20617070726f76656420717565727920666f72206e6f6e657860008201527f697374656e7420746f6b656e0000000000000000000000000000000000000000602082015250565b7f6e6f7420796f7572730000000000000000000000000000000000000000000000600082015250565b7f4f776e61626c653a2063616c6c6572206973206e6f7420746865206f776e6572600082015250565b7f3c7465787420783d2232302220793d2200000000000000000000000000000000600082015250565b7f4552433732313a20617070726f76616c20746f2063757272656e74206f776e6560008201527f7200000000000000000000000000000000000000000000000000000000000000602082015250565b7f7b226e616d65223a20224d657373616765202300000000000000000000000000600082015250565b7f455243373231456e756d657261626c653a20676c6f62616c20696e646578206f60008201527f7574206f6620626f756e64730000000000000000000000000000000000000000602082015250565b7f7472616e73666572696e67206973206e6f7420616c6c6f776564000000000000600082015250565b7f6e6f7420656e6f7567682c206368756d70000000000000000000000000000000600082015250565b614fd7816147df565b8114614fe257600080fd5b50565b614fee816147f1565b8114614ff957600080fd5b50565b61500581614803565b811461501057600080fd5b50565b61501c8161480f565b811461502757600080fd5b50565b6150338161485b565b811461503e57600080fd5b5056fe3c726563742077696474683d223130302522206865696768743d2231303025222066696c6c3d226e6f6e6522207374726f6b653d2264696d6772657922207374726f6b652d77696474683d223230222f3e3c636972636c652063783d223230222063793d223339352220723d2233222066696c6c3d223c73766720786d6c6e733d22687474703a2f2f7777772e77332e6f72672f323030302f73766722207072657365727665417370656374526174696f3d22784d696e594d696e206d656574222076696577426f783d223020302034303020343030222077696474683d2238303022206865696768743d22383030223e3c646566733e3c6c696e6561724772616469656e742069643d2267726164222078313d2230222078323d2230222079313d2230222079323d2231223e3c73746f70206f66667365743d223025222073746f702d636f6c6f723d2264696d67726579222f3e3c73746f70206f66667365743d22313025222073746f702d636f6c6f723d22626c61636b222f3e3c2f6c696e6561724772616469656e743e3c72616469616c4772616469656e742069643d226772616432222063783d22302e35222063793d22302e392220723d22312e32222066783d22302e35222066793d22302e3922207370726561644d6574686f643d22726570656174223e3c73746f70206f66667365743d223025222073746f702d636f6c6f723d22726564222f3e3c73746f70206f66667365743d2231303025222073746f702d636f6c6f723d22626c7565222f3e3c2f72616469616c4772616469656e743e3c2f646566733e3c7374796c653e2e62617365207b2066696c6c3a234130443538413b666f6e742d66616d696c793a206d6f6e6f73706163653b20666f6e742d73697a653a20313570783b207d202e7072696365207b2066696c6c3a7265643b666f6e742d66616d696c793a206d6f6e6f73706163653b20666f6e742d73697a653a203770783b207d3c2f7374796c653e3c7265637420793d2238222077696474683d223130302522206865696768743d2231303025222066696c6c3d2275726c28236772616429222f3e3c7465787420783d2232302220793d2233302220636c6173733d2262617365223e22696d616765223a2022646174613a696d6167652f7376672b786d6c3b6261736536342c4142434445464748494a4b4c4d4e4f505152535455565758595a6162636465666768696a6b6c6d6e6f707172737475767778797a303132333435363738392b2f222c20226465736372697074696f6e223a20224c65646765724d652069732061207075626c6963206c656467657220666f722077616c6c657420746f2077616c6c657420636f6d6d756e69636174696f6e732e2020557365207769746820636172652e222ca26469706673582212203f2c2dce755ca5abde4bd1707afa48f0a5db4ce0db0454e14b40d7523ddd629264736f6c63430008040033",
  "linkReferences": {},
  "deployedLinkReferences": {}
}