{
  "_format": "hh-sol-artifact-1",
  "contractName": "MessageMeNFT",
  "sourceName": "contracts/MessageNFT.sol",
  "abi": [
    {
      "inputs": [],
      "stateMutability": "nonpayable",
      "type": "constructor"
    },
    {
      "anonymous": false,
      "inputs": [
        {
          "indexed": true,
          "internalType": "address",
          "name": "owner",
          "type": "address"
        },
        {
          "indexed": true,
          "internalType": "address",
          "name": "approved",
          "type": "address"
        },
        {
          "indexed": true,
          "internalType": "uint256",
          "name": "tokenId",
          "type": "uint256"
        }
      ],
      "name": "Approval",
      "type": "event"
    },
    {
      "anonymous": false,
      "inputs": [
        {
          "indexed": true,
          "internalType": "address",
          "name": "owner",
          "type": "address"
        },
        {
          "indexed": true,
          "internalType": "address",
          "name": "operator",
          "type": "address"
        },
        {
          "indexed": false,
          "internalType": "bool",
          "name": "approved",
          "type": "bool"
        }
      ],
      "name": "ApprovalForAll",
      "type": "event"
    },
    {
      "anonymous": false,
      "inputs": [
        {
          "indexed": true,
          "internalType": "address",
          "name": "previousOwner",
          "type": "address"
        },
        {
          "indexed": true,
          "internalType": "address",
          "name": "newOwner",
          "type": "address"
        }
      ],
      "name": "OwnershipTransferred",
      "type": "event"
    },
    {
      "anonymous": false,
      "inputs": [
        {
          "indexed": true,
          "internalType": "address",
          "name": "from",
          "type": "address"
        },
        {
          "indexed": true,
          "internalType": "address",
          "name": "to",
          "type": "address"
        },
        {
          "indexed": true,
          "internalType": "uint256",
          "name": "tokenId",
          "type": "uint256"
        }
      ],
      "name": "Transfer",
      "type": "event"
    },
    {
      "inputs": [
        {
          "internalType": "address",
          "name": "",
          "type": "address"
        }
      ],
      "name": "allLedgers",
      "outputs": [
        {
          "internalType": "bool",
          "name": "claimed",
          "type": "bool"
        },
        {
          "internalType": "bool",
          "name": "isPayable",
          "type": "bool"
        },
        {
          "internalType": "uint256",
          "name": "writePrice",
          "type": "uint256"
        },
        {
          "internalType": "bool",
          "name": "writeActive",
          "type": "bool"
        },
        {
          "internalType": "string",
          "name": "header",
          "type": "string"
        },
        {
          "internalType": "uint256",
          "name": "writeIndex",
          "type": "uint256"
        }
      ],
      "stateMutability": "view",
      "type": "function"
    },
    {
      "inputs": [
        {
          "internalType": "address",
          "name": "to",
          "type": "address"
        },
        {
          "internalType": "uint256",
          "name": "tokenId",
          "type": "uint256"
        }
      ],
      "name": "approve",
      "outputs": [],
      "stateMutability": "nonpayable",
      "type": "function"
    },
    {
      "inputs": [
        {
          "internalType": "address",
          "name": "owner",
          "type": "address"
        }
      ],
      "name": "balanceOf",
      "outputs": [
        {
          "internalType": "uint256",
          "name": "",
          "type": "uint256"
        }
      ],
      "stateMutability": "view",
      "type": "function"
    },
    {
      "inputs": [],
      "name": "claimToken",
      "outputs": [],
      "stateMutability": "nonpayable",
      "type": "function"
    },
    {
      "inputs": [
        {
          "internalType": "uint256",
          "name": "tokenId",
          "type": "uint256"
        }
      ],
      "name": "getApproved",
      "outputs": [
        {
          "internalType": "address",
          "name": "",
          "type": "address"
        }
      ],
      "stateMutability": "view",
      "type": "function"
    },
    {
      "inputs": [
        {
          "internalType": "address",
          "name": "owner",
          "type": "address"
        },
        {
          "internalType": "address",
          "name": "operator",
          "type": "address"
        }
      ],
      "name": "isApprovedForAll",
      "outputs": [
        {
          "internalType": "bool",
          "name": "",
          "type": "bool"
        }
      ],
      "stateMutability": "view",
      "type": "function"
    },
    {
      "inputs": [],
      "name": "name",
      "outputs": [
        {
          "internalType": "string",
          "name": "",
          "type": "string"
        }
      ],
      "stateMutability": "view",
      "type": "function"
    },
    {
      "inputs": [],
      "name": "owner",
      "outputs": [
        {
          "internalType": "address",
          "name": "",
          "type": "address"
        }
      ],
      "stateMutability": "view",
      "type": "function"
    },
    {
      "inputs": [
        {
          "internalType": "uint256",
          "name": "tokenId",
          "type": "uint256"
        }
      ],
      "name": "ownerOf",
      "outputs": [
        {
          "internalType": "address",
          "name": "",
          "type": "address"
        }
      ],
      "stateMutability": "view",
      "type": "function"
    },
    {
      "inputs": [],
      "name": "removeWritePrice",
      "outputs": [],
      "stateMutability": "nonpayable",
      "type": "function"
    },
    {
      "inputs": [],
      "name": "renounceOwnership",
      "outputs": [],
      "stateMutability": "nonpayable",
      "type": "function"
    },
    {
      "inputs": [
        {
          "internalType": "address",
          "name": "from",
          "type": "address"
        },
        {
          "internalType": "address",
          "name": "to",
          "type": "address"
        },
        {
          "internalType": "uint256",
          "name": "tokenId",
          "type": "uint256"
        }
      ],
      "name": "safeTransferFrom",
      "outputs": [],
      "stateMutability": "nonpayable",
      "type": "function"
    },
    {
      "inputs": [
        {
          "internalType": "address",
          "name": "from",
          "type": "address"
        },
        {
          "internalType": "address",
          "name": "to",
          "type": "address"
        },
        {
          "internalType": "uint256",
          "name": "tokenId",
          "type": "uint256"
        },
        {
          "internalType": "bytes",
          "name": "_data",
          "type": "bytes"
        }
      ],
      "name": "safeTransferFrom",
      "outputs": [],
      "stateMutability": "nonpayable",
      "type": "function"
    },
    {
      "inputs": [
        {
          "internalType": "address",
          "name": "operator",
          "type": "address"
        },
        {
          "internalType": "bool",
          "name": "approved",
          "type": "bool"
        }
      ],
      "name": "setApprovalForAll",
      "outputs": [],
      "stateMutability": "nonpayable",
      "type": "function"
    },
    {
      "inputs": [
        {
          "internalType": "uint256",
          "name": "writePrice",
          "type": "uint256"
        }
      ],
      "name": "setWritePrice",
      "outputs": [],
      "stateMutability": "nonpayable",
      "type": "function"
    },
    {
      "inputs": [
        {
          "internalType": "bytes4",
          "name": "interfaceId",
          "type": "bytes4"
        }
      ],
      "name": "supportsInterface",
      "outputs": [
        {
          "internalType": "bool",
          "name": "",
          "type": "bool"
        }
      ],
      "stateMutability": "view",
      "type": "function"
    },
    {
      "inputs": [],
      "name": "symbol",
      "outputs": [
        {
          "internalType": "string",
          "name": "",
          "type": "string"
        }
      ],
      "stateMutability": "view",
      "type": "function"
    },
    {
      "inputs": [
        {
          "internalType": "uint256",
          "name": "index",
          "type": "uint256"
        }
      ],
      "name": "tokenByIndex",
      "outputs": [
        {
          "internalType": "uint256",
          "name": "",
          "type": "uint256"
        }
      ],
      "stateMutability": "view",
      "type": "function"
    },
    {
      "inputs": [
        {
          "internalType": "address",
          "name": "owner",
          "type": "address"
        },
        {
          "internalType": "uint256",
          "name": "index",
          "type": "uint256"
        }
      ],
      "name": "tokenOfOwnerByIndex",
      "outputs": [
        {
          "internalType": "uint256",
          "name": "",
          "type": "uint256"
        }
      ],
      "stateMutability": "view",
      "type": "function"
    },
    {
      "inputs": [
        {
          "internalType": "uint256",
          "name": "tokenId",
          "type": "uint256"
        }
      ],
      "name": "tokenURI",
      "outputs": [
        {
          "internalType": "string",
          "name": "",
          "type": "string"
        }
      ],
      "stateMutability": "view",
      "type": "function"
    },
    {
      "inputs": [
        {
          "internalType": "uint256",
          "name": "",
          "type": "uint256"
        }
      ],
      "name": "tokensToAddress",
      "outputs": [
        {
          "internalType": "address",
          "name": "",
          "type": "address"
        }
      ],
      "stateMutability": "view",
      "type": "function"
    },
    {
      "inputs": [],
      "name": "totalSupply",
      "outputs": [
        {
          "internalType": "uint256",
          "name": "",
          "type": "uint256"
        }
      ],
      "stateMutability": "view",
      "type": "function"
    },
    {
      "inputs": [
        {
          "internalType": "address",
          "name": "from",
          "type": "address"
        },
        {
          "internalType": "address",
          "name": "to",
          "type": "address"
        },
        {
          "internalType": "uint256",
          "name": "tokenId",
          "type": "uint256"
        }
      ],
      "name": "transferFrom",
      "outputs": [],
      "stateMutability": "nonpayable",
      "type": "function"
    },
    {
      "inputs": [
        {
          "internalType": "address",
          "name": "newOwner",
          "type": "address"
        }
      ],
      "name": "transferOwnership",
      "outputs": [],
      "stateMutability": "nonpayable",
      "type": "function"
    },
    {
      "inputs": [
        {
          "internalType": "address",
          "name": "userAddress",
          "type": "address"
        },
        {
          "internalType": "string",
          "name": "message",
          "type": "string"
        }
      ],
      "name": "writeFree",
      "outputs": [],
      "stateMutability": "nonpayable",
      "type": "function"
    },
    {
      "inputs": [
        {
          "internalType": "address",
          "name": "userAddress",
          "type": "address"
        },
        {
          "internalType": "string",
          "name": "message",
          "type": "string"
        }
      ],
      "name": "writePayable",
      "outputs": [],
      "stateMutability": "payable",
      "type": "function"
    }
  ],
  "bytecode": "0x60806040523480156200001157600080fd5b506040518060400160405280600981526020017f4d6573736167654d6500000000000000000000000000000000000000000000008152506040518060400160405280600381526020017f4d534700000000000000000000000000000000000000000000000000000000008152506200009e62000092620000d860201b60201c565b620000e060201b60201c565b8160019080519060200190620000b6929190620001a4565b508060029080519060200190620000cf929190620001a4565b505050620002b9565b600033905090565b60008060009054906101000a900473ffffffffffffffffffffffffffffffffffffffff169050816000806101000a81548173ffffffffffffffffffffffffffffffffffffffff021916908373ffffffffffffffffffffffffffffffffffffffff1602179055508173ffffffffffffffffffffffffffffffffffffffff168173ffffffffffffffffffffffffffffffffffffffff167f8be0079c531659141344cd1fd0a4f28419497f9722a3daafe3b4186f6b6457e060405160405180910390a35050565b828054620001b29062000254565b90600052602060002090601f016020900481019282620001d6576000855562000222565b82601f10620001f157805160ff191683800117855562000222565b8280016001018555821562000222579182015b828111156200022157825182559160200191906001019062000204565b5b50905062000231919062000235565b5090565b5b808211156200025057600081600090555060010162000236565b5090565b600060028204905060018216806200026d57607f821691505b602082108114156200028457620002836200028a565b5b50919050565b7f4e487b7100000000000000000000000000000000000000000000000000000000600052602260045260246000fd5b614f4480620002c96000396000f3fe6080604052600436106101815760003560e01c80636352211e116100d1578063ab1392d41161008a578063d754e7ec11610064578063d754e7ec1461057e578063e985e9c5146105c0578063f2fde38b146105fd578063f645ad0a1461062657610181565b8063ab1392d4146104ef578063b88d4fde14610518578063c87b56dd1461054157610181565b80636352211e146103df57806370a082311461041c578063715018a6146104595780638da5cb5b1461047057806395d89b411461049b578063a22cb465146104c657610181565b806318160ddd1161013e578063392ee79d11610118578063392ee79d1461033957806342842e0e146103625780634451d89f1461038b5780634f6ccce7146103a257610181565b806318160ddd146102a857806323b872dd146102d35780632f745c59146102fc57610181565b806301ffc9a71461018657806305435fb1146101c35780630668dcaa146101da57806306fdde0314610217578063081812fc14610242578063095ea7b31461027f575b600080fd5b34801561019257600080fd5b506101ad60048036038101906101a89190613794565b610642565b6040516101ba9190613de3565b60405180910390f35b3480156101cf57600080fd5b506101d8610654565b005b3480156101e657600080fd5b5061020160048036038101906101fc91906137e6565b6106b1565b60405161020e9190613d7c565b60405180910390f35b34801561022357600080fd5b5061022c6106e4565b6040516102399190613e66565b60405180910390f35b34801561024e57600080fd5b50610269600480360381019061026491906137e6565b610776565b6040516102769190613d7c565b60405180910390f35b34801561028b57600080fd5b506102a660048036038101906102a19190613758565b6107fb565b005b3480156102b457600080fd5b506102bd610913565b6040516102ca91906140c8565b60405180910390f35b3480156102df57600080fd5b506102fa60048036038101906102f591906135fa565b610920565b005b34801561030857600080fd5b50610323600480360381019061031e9190613758565b610980565b60405161033091906140c8565b60405180910390f35b34801561034557600080fd5b50610360600480360381019061035b91906137e6565b610a25565b005b34801561036e57600080fd5b50610389600480360381019061038491906135fa565b610aca565b005b34801561039757600080fd5b506103a0610aea565b005b3480156103ae57600080fd5b506103c960048036038101906103c491906137e6565b610dd2565b6040516103d691906140c8565b60405180910390f35b3480156103eb57600080fd5b50610406600480360381019061040191906137e6565b610e69565b6040516104139190613d7c565b60405180910390f35b34801561042857600080fd5b50610443600480360381019061043e9190613595565b610f1b565b60405161045091906140c8565b60405180910390f35b34801561046557600080fd5b5061046e610fd3565b005b34801561047c57600080fd5b5061048561105b565b6040516104929190613d7c565b60405180910390f35b3480156104a757600080fd5b506104b0611084565b6040516104bd9190613e66565b60405180910390f35b3480156104d257600080fd5b506104ed60048036038101906104e891906136c4565b611116565b005b3480156104fb57600080fd5b5061051660048036038101906105119190613700565b611297565b005b34801561052457600080fd5b5061053f600480360381019061053a9190613649565b6115a3565b005b34801561054d57600080fd5b50610568600480360381019061056391906137e6565b611605565b6040516105759190613e66565b60405180910390f35b34801561058a57600080fd5b506105a560048036038101906105a09190613595565b611cb2565b6040516105b796959493929190613dfe565b60405180910390f35b3480156105cc57600080fd5b506105e760048036038101906105e291906135be565b611d9d565b6040516105f49190613de3565b60405180910390f35b34801561060957600080fd5b50610624600480360381019061061f9190613595565b611e31565b005b610640600480360381019061063b9190613700565b611f29565b005b600061064d8261222a565b9050919050565b6000600c60003373ffffffffffffffffffffffffffffffffffffffff1673ffffffffffffffffffffffffffffffffffffffff16815260200190815260200160002060000160016101000a81548160ff021916908315150217905550565b600d6020528060005260406000206000915054906101000a900473ffffffffffffffffffffffffffffffffffffffff1681565b6060600180546106f39061435c565b80601f016020809104026020016040519081016040528092919081815260200182805461071f9061435c565b801561076c5780601f106107415761010080835404028352916020019161076c565b820191906000526020600020905b81548152906001019060200180831161074f57829003601f168201915b5050505050905090565b6000610781826122a4565b6107c0576040517f08c379a00000000000000000000000000000000000000000000000000000000081526004016107b790613fe8565b60405180910390fd5b6005600083815260200190815260200160002060009054906101000a900473ffffffffffffffffffffffffffffffffffffffff169050919050565b600061080682610e69565b90508073ffffffffffffffffffffffffffffffffffffffff168373ffffffffffffffffffffffffffffffffffffffff161415610877576040517f08c379a000000000000000000000000000000000000000000000000000000000815260040161086e90614048565b60405180910390fd5b8073ffffffffffffffffffffffffffffffffffffffff16610896612310565b73ffffffffffffffffffffffffffffffffffffffff1614806108c557506108c4816108bf612310565b611d9d565b5b610904576040517f08c379a00000000000000000000000000000000000000000000000000000000081526004016108fb90613f88565b60405180910390fd5b61090e8383612318565b505050565b6000600980549050905090565b61093161092b612310565b826123d1565b610970576040517f08c379a000000000000000000000000000000000000000000000000000000000815260040161096790614068565b60405180910390fd5b61097b8383836124af565b505050565b600061098b83610f1b565b82106109cc576040517f08c379a00000000000000000000000000000000000000000000000000000000081526004016109c390613ea8565b60405180910390fd5b600760008473ffffffffffffffffffffffffffffffffffffffff1673ffffffffffffffffffffffffffffffffffffffff168152602001908152602001600020600083815260200190815260200160002054905092915050565b6001600c60003373ffffffffffffffffffffffffffffffffffffffff1673ffffffffffffffffffffffffffffffffffffffff16815260200190815260200160002060000160016101000a81548160ff02191690831515021790555080600c60003373ffffffffffffffffffffffffffffffffffffffff1673ffffffffffffffffffffffffffffffffffffffff1681526020019081526020016000206001018190555050565b610ae5838383604051806020016040528060008152506115a3565b505050565b60001515600c60003373ffffffffffffffffffffffffffffffffffffffff1673ffffffffffffffffffffffffffffffffffffffff16815260200190815260200160002060000160009054906101000a900460ff16151514610b80576040517f08c379a0000000000000000000000000000000000000000000000000000000008152600401610b7790613f08565b60405180910390fd5b610b8a600b61270b565b6000610b96600b612721565b905033600d600083815260200190815260200160002060006101000a81548173ffffffffffffffffffffffffffffffffffffffff021916908373ffffffffffffffffffffffffffffffffffffffff1602179055506001600c60003373ffffffffffffffffffffffffffffffffffffffff1673ffffffffffffffffffffffffffffffffffffffff16815260200190815260200160002060000160006101000a81548160ff0219169083151502179055506001600c60003373ffffffffffffffffffffffffffffffffffffffff1673ffffffffffffffffffffffffffffffffffffffff16815260200190815260200160002060020160006101000a81548160ff0219169083151502179055506000600c60003373ffffffffffffffffffffffffffffffffffffffff1673ffffffffffffffffffffffffffffffffffffffff16815260200190815260200160002060000160016101000a81548160ff0219169083151502179055506040518060400160405280601381526020017f697473206e69636520746f2073656520796f7500000000000000000000000000815250600c60003373ffffffffffffffffffffffffffffffffffffffff1673ffffffffffffffffffffffffffffffffffffffff1681526020019081526020016000206003019080519060200190610d86929190613351565b506000600c60003373ffffffffffffffffffffffffffffffffffffffff1673ffffffffffffffffffffffffffffffffffffffff168152602001908152602001600020600f018190555050565b6000610ddc610913565b8210610e1d576040517f08c379a0000000000000000000000000000000000000000000000000000000008152600401610e1490614088565b60405180910390fd5b60098281548110610e57577f4e487b7100000000000000000000000000000000000000000000000000000000600052603260045260246000fd5b90600052602060002001549050919050565b6000806003600084815260200190815260200160002060009054906101000a900473ffffffffffffffffffffffffffffffffffffffff169050600073ffffffffffffffffffffffffffffffffffffffff168173ffffffffffffffffffffffffffffffffffffffff161415610f12576040517f08c379a0000000000000000000000000000000000000000000000000000000008152600401610f0990613fc8565b60405180910390fd5b80915050919050565b60008073ffffffffffffffffffffffffffffffffffffffff168273ffffffffffffffffffffffffffffffffffffffff161415610f8c576040517f08c379a0000000000000000000000000000000000000000000000000000000008152600401610f8390613fa8565b60405180910390fd5b600460008373ffffffffffffffffffffffffffffffffffffffff1673ffffffffffffffffffffffffffffffffffffffff168152602001908152602001600020549050919050565b610fdb612310565b73ffffffffffffffffffffffffffffffffffffffff16610ff961105b565b73ffffffffffffffffffffffffffffffffffffffff161461104f576040517f08c379a000000000000000000000000000000000000000000000000000000000815260040161104690614008565b60405180910390fd5b611059600061272f565b565b60008060009054906101000a900473ffffffffffffffffffffffffffffffffffffffff16905090565b6060600280546110939061435c565b80601f01602080910402602001604051908101604052809291908181526020018280546110bf9061435c565b801561110c5780601f106110e15761010080835404028352916020019161110c565b820191906000526020600020905b8154815290600101906020018083116110ef57829003601f168201915b5050505050905090565b61111e612310565b73ffffffffffffffffffffffffffffffffffffffff168273ffffffffffffffffffffffffffffffffffffffff16141561118c576040517f08c379a000000000000000000000000000000000000000000000000000000000815260040161118390613f48565b60405180910390fd5b8060066000611199612310565b73ffffffffffffffffffffffffffffffffffffffff1673ffffffffffffffffffffffffffffffffffffffff16815260200190815260200160002060008473ffffffffffffffffffffffffffffffffffffffff1673ffffffffffffffffffffffffffffffffffffffff16815260200190815260200160002060006101000a81548160ff0219169083151502179055508173ffffffffffffffffffffffffffffffffffffffff16611246612310565b73ffffffffffffffffffffffffffffffffffffffff167f17307eab39ab6107e8899845ad3d59bd9653f200f220920489ca2b5937696c318360405161128b9190613de3565b60405180910390a35050565b600c60008473ffffffffffffffffffffffffffffffffffffffff1673ffffffffffffffffffffffffffffffffffffffff16815260200190815260200160002060000160019054906101000a900460ff1615611327576040517f08c379a000000000000000000000000000000000000000000000000000000000815260040161131e90613e88565b60405180910390fd5b8181600c60008673ffffffffffffffffffffffffffffffffffffffff1673ffffffffffffffffffffffffffffffffffffffff16815260200190815260200160002060040160003373ffffffffffffffffffffffffffffffffffffffff1673ffffffffffffffffffffffffffffffffffffffff16815260200190815260200160002091906113b59291906133d7565b5033600c60008573ffffffffffffffffffffffffffffffffffffffff1673ffffffffffffffffffffffffffffffffffffffff168152602001908152602001600020600501600c60008673ffffffffffffffffffffffffffffffffffffffff1673ffffffffffffffffffffffffffffffffffffffff168152602001908152602001600020600f0154600a8110611473577f4e487b7100000000000000000000000000000000000000000000000000000000600052603260045260246000fd5b0160006101000a81548173ffffffffffffffffffffffffffffffffffffffff021916908373ffffffffffffffffffffffffffffffffffffffff160217905550600c60008473ffffffffffffffffffffffffffffffffffffffff1673ffffffffffffffffffffffffffffffffffffffff168152602001908152602001600020600f016000815480929190611505906143bf565b91905055506009600c60008573ffffffffffffffffffffffffffffffffffffffff1673ffffffffffffffffffffffffffffffffffffffff168152602001908152602001600020600f0154111561159e576000600c60008573ffffffffffffffffffffffffffffffffffffffff1673ffffffffffffffffffffffffffffffffffffffff168152602001908152602001600020600f01819055505b505050565b6115b46115ae612310565b836123d1565b6115f3576040517f08c379a00000000000000000000000000000000000000000000000000000000081526004016115ea90614068565b60405180910390fd5b6115ff848484846127f3565b50505050565b60606000600c6000600d600086815260200190815260200160002060009054906101000a900473ffffffffffffffffffffffffffffffffffffffff1673ffffffffffffffffffffffffffffffffffffffff1673ffffffffffffffffffffffffffffffffffffffff168152602001908152602001600020600501600a806020026040519081016040528092919082600a80156116eb576020028201915b8160009054906101000a900473ffffffffffffffffffffffffffffffffffffffff1673ffffffffffffffffffffffffffffffffffffffff16815260200190600101908083116116a1575b505050505090506000604051806102e001604052806102bb8152602001614b006102bb9139600c6000600d600088815260200190815260200160002060009054906101000a900473ffffffffffffffffffffffffffffffffffffffff1673ffffffffffffffffffffffffffffffffffffffff1673ffffffffffffffffffffffffffffffffffffffff168152602001908152602001600020600301604051602001611796929190613ca7565b60405160208183030381529060405290506000805b600a811015611b9e5760006040518060400160405280600281526020017f353000000000000000000000000000000000000000000000000000000000000081525090506001831415611834576040518060400160405280600281526020017f37300000000000000000000000000000000000000000000000000000000000008152509050611a68565b600283141561187a576040518060400160405280600281526020017f39300000000000000000000000000000000000000000000000000000000000008152509050611a67565b60038314156118c0576040518060400160405280600381526020017f31313000000000000000000000000000000000000000000000000000000000008152509050611a66565b6004831415611906576040518060400160405280600381526020017f31323000000000000000000000000000000000000000000000000000000000008152509050611a65565b600583141561194c576040518060400160405280600381526020017f31353000000000000000000000000000000000000000000000000000000000008152509050611a64565b6006831415611992576040518060400160405280600381526020017f31373000000000000000000000000000000000000000000000000000000000008152509050611a63565b60078314156119d8576040518060400160405280600381526020017f31393000000000000000000000000000000000000000000000000000000000008152509050611a62565b6008831415611a1e576040518060400160405280600381526020017f32313000000000000000000000000000000000000000000000000000000000008152509050611a61565b6009831415611a60576040518060400160405280600381526020017f323330000000000000000000000000000000000000000000000000000000000081525090505b5b5b5b5b5b5b5b5b8280611a73906143bf565b9350508381600c6000600d60008c815260200190815260200160002060009054906101000a900473ffffffffffffffffffffffffffffffffffffffff1673ffffffffffffffffffffffffffffffffffffffff1673ffffffffffffffffffffffffffffffffffffffff16815260200190815260200160002060040160008886600a8110611b28577f4e487b7100000000000000000000000000000000000000000000000000000000600052603260045260246000fd5b602002015173ffffffffffffffffffffffffffffffffffffffff1673ffffffffffffffffffffffffffffffffffffffff168152602001908152602001600020604051602001611b7993929190613cd6565b6040516020818303038152906040529350508080611b96906143bf565b9150506117ab565b50816040518060c0016040528060888152602001614dfb60889139604051602001611bca929190613c83565b60405160208183030381529060405291506000611c4b611be98761284f565b6040518060a0016040528060658152602001614eaa60659139604051806060016040528060278152602001614e8360279139611c24876129fc565b604051602001611c379493929190613d28565b6040516020818303038152906040526129fc565b90506040518060400160405280601d81526020017f646174613a6170706c69636174696f6e2f6a736f6e3b6261736536342c00000081525081604051602001611c95929190613c83565b604051602081830303815290604052925082945050505050919050565b600c6020528060005260406000206000915090508060000160009054906101000a900460ff16908060000160019054906101000a900460ff16908060010154908060020160009054906101000a900460ff1690806003018054611d149061435c565b80601f0160208091040260200160405190810160405280929190818152602001828054611d409061435c565b8015611d8d5780601f10611d6257610100808354040283529160200191611d8d565b820191906000526020600020905b815481529060010190602001808311611d7057829003601f168201915b50505050509080600f0154905086565b6000600660008473ffffffffffffffffffffffffffffffffffffffff1673ffffffffffffffffffffffffffffffffffffffff16815260200190815260200160002060008373ffffffffffffffffffffffffffffffffffffffff1673ffffffffffffffffffffffffffffffffffffffff16815260200190815260200160002060009054906101000a900460ff16905092915050565b611e39612310565b73ffffffffffffffffffffffffffffffffffffffff16611e5761105b565b73ffffffffffffffffffffffffffffffffffffffff1614611ead576040517f08c379a0000000000000000000000000000000000000000000000000000000008152600401611ea490614008565b60405180910390fd5b600073ffffffffffffffffffffffffffffffffffffffff168173ffffffffffffffffffffffffffffffffffffffff161415611f1d576040517f08c379a0000000000000000000000000000000000000000000000000000000008152600401611f1490613ee8565b60405180910390fd5b611f268161272f565b50565b600c60008473ffffffffffffffffffffffffffffffffffffffff1673ffffffffffffffffffffffffffffffffffffffff16815260200190815260200160002060010154341015611fae576040517f08c379a0000000000000000000000000000000000000000000000000000000008152600401611fa5906140a8565b60405180910390fd5b8181600c60008673ffffffffffffffffffffffffffffffffffffffff1673ffffffffffffffffffffffffffffffffffffffff16815260200190815260200160002060040160003373ffffffffffffffffffffffffffffffffffffffff1673ffffffffffffffffffffffffffffffffffffffff168152602001908152602001600020919061203c9291906133d7565b5033600c60008573ffffffffffffffffffffffffffffffffffffffff1673ffffffffffffffffffffffffffffffffffffffff168152602001908152602001600020600501600c60008673ffffffffffffffffffffffffffffffffffffffff1673ffffffffffffffffffffffffffffffffffffffff168152602001908152602001600020600f0154600a81106120fa577f4e487b7100000000000000000000000000000000000000000000000000000000600052603260045260246000fd5b0160006101000a81548173ffffffffffffffffffffffffffffffffffffffff021916908373ffffffffffffffffffffffffffffffffffffffff160217905550600c60008473ffffffffffffffffffffffffffffffffffffffff1673ffffffffffffffffffffffffffffffffffffffff168152602001908152602001600020600f01600081548092919061218c906143bf565b91905055506009600c60008573ffffffffffffffffffffffffffffffffffffffff1673ffffffffffffffffffffffffffffffffffffffff168152602001908152602001600020600f01541115612225576000600c60008573ffffffffffffffffffffffffffffffffffffffff1673ffffffffffffffffffffffffffffffffffffffff168152602001908152602001600020600f01819055505b505050565b60007f780e9d63000000000000000000000000000000000000000000000000000000007bffffffffffffffffffffffffffffffffffffffffffffffffffffffff1916827bffffffffffffffffffffffffffffffffffffffffffffffffffffffff1916148061229d575061229c82612bba565b5b9050919050565b60008073ffffffffffffffffffffffffffffffffffffffff166003600084815260200190815260200160002060009054906101000a900473ffffffffffffffffffffffffffffffffffffffff1673ffffffffffffffffffffffffffffffffffffffff1614159050919050565b600033905090565b816005600083815260200190815260200160002060006101000a81548173ffffffffffffffffffffffffffffffffffffffff021916908373ffffffffffffffffffffffffffffffffffffffff160217905550808273ffffffffffffffffffffffffffffffffffffffff1661238b83610e69565b73ffffffffffffffffffffffffffffffffffffffff167f8c5be1e5ebec7d5bd14f71427d1e84f3dd0314c0f7b2291e5b200ac8c7c3b92560405160405180910390a45050565b60006123dc826122a4565b61241b576040517f08c379a000000000000000000000000000000000000000000000000000000000815260040161241290613f68565b60405180910390fd5b600061242683610e69565b90508073ffffffffffffffffffffffffffffffffffffffff168473ffffffffffffffffffffffffffffffffffffffff16148061249557508373ffffffffffffffffffffffffffffffffffffffff1661247d84610776565b73ffffffffffffffffffffffffffffffffffffffff16145b806124a657506124a58185611d9d565b5b91505092915050565b8273ffffffffffffffffffffffffffffffffffffffff166124cf82610e69565b73ffffffffffffffffffffffffffffffffffffffff1614612525576040517f08c379a000000000000000000000000000000000000000000000000000000000815260040161251c90614028565b60405180910390fd5b600073ffffffffffffffffffffffffffffffffffffffff168273ffffffffffffffffffffffffffffffffffffffff161415612595576040517f08c379a000000000000000000000000000000000000000000000000000000000815260040161258c90613f28565b60405180910390fd5b6125a0838383612c9c565b6125ab600082612318565b6001600460008573ffffffffffffffffffffffffffffffffffffffff1673ffffffffffffffffffffffffffffffffffffffff16815260200190815260200160002060008282546125fb9190614272565b925050819055506001600460008473ffffffffffffffffffffffffffffffffffffffff1673ffffffffffffffffffffffffffffffffffffffff16815260200190815260200160002060008282546126529190614191565b92505081905550816003600083815260200190815260200160002060006101000a81548173ffffffffffffffffffffffffffffffffffffffff021916908373ffffffffffffffffffffffffffffffffffffffff160217905550808273ffffffffffffffffffffffffffffffffffffffff168473ffffffffffffffffffffffffffffffffffffffff167fddf252ad1be2c89b69c2b068fc378daa952ba7f163c4a11628f55a4df523b3ef60405160405180910390a4505050565b6001816000016000828254019250508190555050565b600081600001549050919050565b60008060009054906101000a900473ffffffffffffffffffffffffffffffffffffffff169050816000806101000a81548173ffffffffffffffffffffffffffffffffffffffff021916908373ffffffffffffffffffffffffffffffffffffffff1602179055508173ffffffffffffffffffffffffffffffffffffffff168173ffffffffffffffffffffffffffffffffffffffff167f8be0079c531659141344cd1fd0a4f28419497f9722a3daafe3b4186f6b6457e060405160405180910390a35050565b6127fe8484846124af565b61280a84848484612cac565b612849576040517f08c379a000000000000000000000000000000000000000000000000000000000815260040161284090613ec8565b60405180910390fd5b50505050565b60606000821415612897576040518060400160405280600181526020017f300000000000000000000000000000000000000000000000000000000000000081525090506129f7565b600082905060005b600082146128c95780806128b2906143bf565b915050600a826128c291906141e7565b915061289f565b60008167ffffffffffffffff81111561290b577f4e487b7100000000000000000000000000000000000000000000000000000000600052604160045260246000fd5b6040519080825280601f01601f19166020018201604052801561293d5781602001600182028036833780820191505090505b5090505b600085146129f0576001826129569190614272565b9150600a856129659190614408565b60306129719190614191565b60f81b8183815181106129ad577f4e487b7100000000000000000000000000000000000000000000000000000000600052603260045260246000fd5b60200101907effffffffffffffffffffffffffffffffffffffffffffffffffffffffffffff1916908160001a905350600a856129e991906141e7565b9450612941565b8093505050505b919050565b60606000825190506000811415612a255760405180602001604052806000815250915050612bb5565b60006003600283612a369190614191565b612a4091906141e7565b6004612a4c9190614218565b90506000602082612a5d9190614191565b67ffffffffffffffff811115612a9c577f4e487b7100000000000000000000000000000000000000000000000000000000600052604160045260246000fd5b6040519080825280601f01601f191660200182016040528015612ace5781602001600182028036833780820191505090505b5090506000604051806060016040528060408152602001614dbb604091399050600181016020830160005b86811015612b725760038101905062ffffff818a015116603f8160121c168401518060081b905060ff603f83600c1c1686015116810190508060081b905060ff603f8360061c1686015116810190508060081b905060ff603f831686015116810190508060e01b90508084526004840193505050612af9565b506003860660018114612b8c5760028114612b9c57612ba7565b613d3d60f01b6002830352612ba7565b603d60f81b60018303525b508484525050819450505050505b919050565b60007f80ac58cd000000000000000000000000000000000000000000000000000000007bffffffffffffffffffffffffffffffffffffffffffffffffffffffff1916827bffffffffffffffffffffffffffffffffffffffffffffffffffffffff19161480612c8557507f5b5e139f000000000000000000000000000000000000000000000000000000007bffffffffffffffffffffffffffffffffffffffffffffffffffffffff1916827bffffffffffffffffffffffffffffffffffffffffffffffffffffffff1916145b80612c955750612c9482612e43565b5b9050919050565b612ca7838383612ead565b505050565b6000612ccd8473ffffffffffffffffffffffffffffffffffffffff16612fc1565b15612e36578373ffffffffffffffffffffffffffffffffffffffff1663150b7a02612cf6612310565b8786866040518563ffffffff1660e01b8152600401612d189493929190613d97565b602060405180830381600087803b158015612d3257600080fd5b505af1925050508015612d6357506040513d601f19601f82011682018060405250810190612d6091906137bd565b60015b612de6573d8060008114612d93576040519150601f19603f3d011682016040523d82523d6000602084013e612d98565b606091505b50600081511415612dde576040517f08c379a0000000000000000000000000000000000000000000000000000000008152600401612dd590613ec8565b60405180910390fd5b805181602001fd5b63150b7a0260e01b7bffffffffffffffffffffffffffffffffffffffffffffffffffffffff1916817bffffffffffffffffffffffffffffffffffffffffffffffffffffffff191614915050612e3b565b600190505b949350505050565b60007f01ffc9a7000000000000000000000000000000000000000000000000000000007bffffffffffffffffffffffffffffffffffffffffffffffffffffffff1916827bffffffffffffffffffffffffffffffffffffffffffffffffffffffff1916149050919050565b612eb8838383612fd4565b600073ffffffffffffffffffffffffffffffffffffffff168373ffffffffffffffffffffffffffffffffffffffff161415612efb57612ef681612fd9565b612f3a565b8173ffffffffffffffffffffffffffffffffffffffff168373ffffffffffffffffffffffffffffffffffffffff1614612f3957612f388382613022565b5b5b600073ffffffffffffffffffffffffffffffffffffffff168273ffffffffffffffffffffffffffffffffffffffff161415612f7d57612f788161318f565b612fbc565b8273ffffffffffffffffffffffffffffffffffffffff168273ffffffffffffffffffffffffffffffffffffffff1614612fbb57612fba82826132d2565b5b5b505050565b600080823b905060008111915050919050565b505050565b600980549050600a600083815260200190815260200160002081905550600981908060018154018082558091505060019003906000526020600020016000909190919091505550565b6000600161302f84610f1b565b6130399190614272565b905060006008600084815260200190815260200160002054905081811461311e576000600760008673ffffffffffffffffffffffffffffffffffffffff1673ffffffffffffffffffffffffffffffffffffffff168152602001908152602001600020600084815260200190815260200160002054905080600760008773ffffffffffffffffffffffffffffffffffffffff1673ffffffffffffffffffffffffffffffffffffffff168152602001908152602001600020600084815260200190815260200160002081905550816008600083815260200190815260200160002081905550505b6008600084815260200190815260200160002060009055600760008573ffffffffffffffffffffffffffffffffffffffff1673ffffffffffffffffffffffffffffffffffffffff16815260200190815260200160002060008381526020019081526020016000206000905550505050565b600060016009805490506131a39190614272565b90506000600a60008481526020019081526020016000205490506000600983815481106131f9577f4e487b7100000000000000000000000000000000000000000000000000000000600052603260045260246000fd5b906000526020600020015490508060098381548110613241577f4e487b7100000000000000000000000000000000000000000000000000000000600052603260045260246000fd5b906000526020600020018190555081600a600083815260200190815260200160002081905550600a60008581526020019081526020016000206000905560098054806132b6577f4e487b7100000000000000000000000000000000000000000000000000000000600052603160045260246000fd5b6001900381819060005260206000200160009055905550505050565b60006132dd83610f1b565b905081600760008573ffffffffffffffffffffffffffffffffffffffff1673ffffffffffffffffffffffffffffffffffffffff168152602001908152602001600020600083815260200190815260200160002081905550806008600084815260200190815260200160002081905550505050565b82805461335d9061435c565b90600052602060002090601f01602090048101928261337f57600085556133c6565b82601f1061339857805160ff19168380011785556133c6565b828001600101855582156133c6579182015b828111156133c55782518255916020019190600101906133aa565b5b5090506133d3919061345d565b5090565b8280546133e39061435c565b90600052602060002090601f016020900481019282613405576000855561344c565b82601f1061341e57803560ff191683800117855561344c565b8280016001018555821561344c579182015b8281111561344b578235825591602001919060010190613430565b5b509050613459919061345d565b5090565b5b8082111561347657600081600090555060010161345e565b5090565b600061348d61348884614108565b6140e3565b9050828152602081018484840111156134a557600080fd5b6134b084828561431a565b509392505050565b6000813590506134c781614aa3565b92915050565b6000813590506134dc81614aba565b92915050565b6000813590506134f181614ad1565b92915050565b60008151905061350681614ad1565b92915050565b600082601f83011261351d57600080fd5b813561352d84826020860161347a565b91505092915050565b60008083601f84011261354857600080fd5b8235905067ffffffffffffffff81111561356157600080fd5b60208301915083600182028301111561357957600080fd5b9250929050565b60008135905061358f81614ae8565b92915050565b6000602082840312156135a757600080fd5b60006135b5848285016134b8565b91505092915050565b600080604083850312156135d157600080fd5b60006135df858286016134b8565b92505060206135f0858286016134b8565b9150509250929050565b60008060006060848603121561360f57600080fd5b600061361d868287016134b8565b935050602061362e868287016134b8565b925050604061363f86828701613580565b9150509250925092565b6000806000806080858703121561365f57600080fd5b600061366d878288016134b8565b945050602061367e878288016134b8565b935050604061368f87828801613580565b925050606085013567ffffffffffffffff8111156136ac57600080fd5b6136b88782880161350c565b91505092959194509250565b600080604083850312156136d757600080fd5b60006136e5858286016134b8565b92505060206136f6858286016134cd565b9150509250929050565b60008060006040848603121561371557600080fd5b6000613723868287016134b8565b935050602084013567ffffffffffffffff81111561374057600080fd5b61374c86828701613536565b92509250509250925092565b6000806040838503121561376b57600080fd5b6000613779858286016134b8565b925050602061378a85828601613580565b9150509250929050565b6000602082840312156137a657600080fd5b60006137b4848285016134e2565b91505092915050565b6000602082840312156137cf57600080fd5b60006137dd848285016134f7565b91505092915050565b6000602082840312156137f857600080fd5b600061380684828501613580565b91505092915050565b613818816142a6565b82525050565b613827816142b8565b82525050565b60006138388261414e565b6138428185614164565b9350613852818560208601614329565b61385b816144f5565b840191505092915050565b600061387182614159565b61387b8185614175565b935061388b818560208601614329565b613894816144f5565b840191505092915050565b60006138aa82614159565b6138b48185614186565b93506138c4818560208601614329565b80840191505092915050565b600081546138dd8161435c565b6138e78186614186565b94506001821660008114613902576001811461391357613946565b60ff19831686528186019350613946565b61391c85614139565b60005b8381101561393e5781548189015260018201915060208101905061391f565b838801955050505b50505092915050565b600061395c601483614175565b915061396782614506565b602082019050919050565b600061397f602b83614175565b915061398a8261452f565b604082019050919050565b60006139a2603283614175565b91506139ad8261457e565b604082019050919050565b60006139c5602683614175565b91506139d0826145cd565b604082019050919050565b60006139e8600f83614175565b91506139f38261461c565b602082019050919050565b6000613a0b602483614175565b9150613a1682614645565b604082019050919050565b6000613a2e601983614175565b9150613a3982614694565b602082019050919050565b6000613a51602c83614175565b9150613a5c826146bd565b604082019050919050565b6000613a74603883614175565b9150613a7f8261470c565b604082019050919050565b6000613a97602a83614175565b9150613aa28261475b565b604082019050919050565b6000613aba602983614175565b9150613ac5826147aa565b604082019050919050565b6000613add600283614186565b9150613ae8826147f9565b600282019050919050565b6000613b00600783614186565b9150613b0b82614822565b600782019050919050565b6000613b23602c83614175565b9150613b2e8261484b565b604082019050919050565b6000613b46602083614175565b9150613b518261489a565b602082019050919050565b6000613b69602983614175565b9150613b74826148c3565b604082019050919050565b6000613b8c601083614186565b9150613b9782614912565b601082019050919050565b6000613baf602183614175565b9150613bba8261493b565b604082019050919050565b6000613bd2600f83614186565b9150613bdd8261498a565b600f82019050919050565b6000613bf5601383614186565b9150613c00826149b3565b601382019050919050565b6000613c18603183614175565b9150613c23826149dc565b604082019050919050565b6000613c3b602c83614175565b9150613c4682614a2b565b604082019050919050565b6000613c5e601183614175565b9150613c6982614a7a565b602082019050919050565b613c7d81614310565b82525050565b6000613c8f828561389f565b9150613c9b828461389f565b91508190509392505050565b6000613cb3828561389f565b9150613cbf82846138d0565b9150613cca82613af3565b91508190509392505050565b6000613ce2828661389f565b9150613ced82613b7f565b9150613cf9828561389f565b9150613d0482613bc5565b9150613d1082846138d0565b9150613d1b82613af3565b9150819050949350505050565b6000613d3382613be8565b9150613d3f828761389f565b9150613d4b828661389f565b9150613d57828561389f565b9150613d63828461389f565b9150613d6e82613ad0565b915081905095945050505050565b6000602082019050613d91600083018461380f565b92915050565b6000608082019050613dac600083018761380f565b613db9602083018661380f565b613dc66040830185613c74565b8181036060830152613dd8818461382d565b905095945050505050565b6000602082019050613df8600083018461381e565b92915050565b600060c082019050613e13600083018961381e565b613e20602083018861381e565b613e2d6040830187613c74565b613e3a606083018661381e565b8181036080830152613e4c8185613866565b9050613e5b60a0830184613c74565b979650505050505050565b60006020820190508181036000830152613e808184613866565b905092915050565b60006020820190508181036000830152613ea18161394f565b9050919050565b60006020820190508181036000830152613ec181613972565b9050919050565b60006020820190508181036000830152613ee181613995565b9050919050565b60006020820190508181036000830152613f01816139b8565b9050919050565b60006020820190508181036000830152613f21816139db565b9050919050565b60006020820190508181036000830152613f41816139fe565b9050919050565b60006020820190508181036000830152613f6181613a21565b9050919050565b60006020820190508181036000830152613f8181613a44565b9050919050565b60006020820190508181036000830152613fa181613a67565b9050919050565b60006020820190508181036000830152613fc181613a8a565b9050919050565b60006020820190508181036000830152613fe181613aad565b9050919050565b6000602082019050818103600083015261400181613b16565b9050919050565b6000602082019050818103600083015261402181613b39565b9050919050565b6000602082019050818103600083015261404181613b5c565b9050919050565b6000602082019050818103600083015261406181613ba2565b9050919050565b6000602082019050818103600083015261408181613c0b565b9050919050565b600060208201905081810360008301526140a181613c2e565b9050919050565b600060208201905081810360008301526140c181613c51565b9050919050565b60006020820190506140dd6000830184613c74565b92915050565b60006140ed6140fe565b90506140f9828261438e565b919050565b6000604051905090565b600067ffffffffffffffff821115614123576141226144c6565b5b61412c826144f5565b9050602081019050919050565b60008190508160005260206000209050919050565b600081519050919050565b600081519050919050565b600082825260208201905092915050565b600082825260208201905092915050565b600081905092915050565b600061419c82614310565b91506141a783614310565b9250827fffffffffffffffffffffffffffffffffffffffffffffffffffffffffffffffff038211156141dc576141db614439565b5b828201905092915050565b60006141f282614310565b91506141fd83614310565b92508261420d5761420c614468565b5b828204905092915050565b600061422382614310565b915061422e83614310565b9250817fffffffffffffffffffffffffffffffffffffffffffffffffffffffffffffffff048311821515161561426757614266614439565b5b828202905092915050565b600061427d82614310565b915061428883614310565b92508282101561429b5761429a614439565b5b828203905092915050565b60006142b1826142f0565b9050919050565b60008115159050919050565b60007fffffffff0000000000000000000000000000000000000000000000000000000082169050919050565b600073ffffffffffffffffffffffffffffffffffffffff82169050919050565b6000819050919050565b82818337600083830152505050565b60005b8381101561434757808201518184015260208101905061432c565b83811115614356576000848401525b50505050565b6000600282049050600182168061437457607f821691505b6020821081141561438857614387614497565b5b50919050565b614397826144f5565b810181811067ffffffffffffffff821117156143b6576143b56144c6565b5b80604052505050565b60006143ca82614310565b91507fffffffffffffffffffffffffffffffffffffffffffffffffffffffffffffffff8214156143fd576143fc614439565b5b600182019050919050565b600061441382614310565b915061441e83614310565b92508261442e5761442d614468565b5b828206905092915050565b7f4e487b7100000000000000000000000000000000000000000000000000000000600052601160045260246000fd5b7f4e487b7100000000000000000000000000000000000000000000000000000000600052601260045260246000fd5b7f4e487b7100000000000000000000000000000000000000000000000000000000600052602260045260246000fd5b7f4e487b7100000000000000000000000000000000000000000000000000000000600052604160045260246000fd5b6000601f19601f8301169050919050565b7f746f6b656e207772697465206e6f742066726565000000000000000000000000600082015250565b7f455243373231456e756d657261626c653a206f776e657220696e646578206f7560008201527f74206f6620626f756e6473000000000000000000000000000000000000000000602082015250565b7f4552433732313a207472616e7366657220746f206e6f6e20455243373231526560008201527f63656976657220696d706c656d656e7465720000000000000000000000000000602082015250565b7f4f776e61626c653a206e6577206f776e657220697320746865207a65726f206160008201527f6464726573730000000000000000000000000000000000000000000000000000602082015250565b7f616c726561647920636c61696d65640000000000000000000000000000000000600082015250565b7f4552433732313a207472616e7366657220746f20746865207a65726f2061646460008201527f7265737300000000000000000000000000000000000000000000000000000000602082015250565b7f4552433732313a20617070726f766520746f2063616c6c657200000000000000600082015250565b7f4552433732313a206f70657261746f7220717565727920666f72206e6f6e657860008201527f697374656e7420746f6b656e0000000000000000000000000000000000000000602082015250565b7f4552433732313a20617070726f76652063616c6c6572206973206e6f74206f7760008201527f6e6572206e6f7220617070726f76656420666f7220616c6c0000000000000000602082015250565b7f4552433732313a2062616c616e636520717565727920666f7220746865207a6560008201527f726f206164647265737300000000000000000000000000000000000000000000602082015250565b7f4552433732313a206f776e657220717565727920666f72206e6f6e657869737460008201527f656e7420746f6b656e0000000000000000000000000000000000000000000000602082015250565b7f227d000000000000000000000000000000000000000000000000000000000000600082015250565b7f3c2f746578743e00000000000000000000000000000000000000000000000000600082015250565b7f4552433732313a20617070726f76656420717565727920666f72206e6f6e657860008201527f697374656e7420746f6b656e0000000000000000000000000000000000000000602082015250565b7f4f776e61626c653a2063616c6c6572206973206e6f7420746865206f776e6572600082015250565b7f4552433732313a207472616e73666572206f6620746f6b656e2074686174206960008201527f73206e6f74206f776e0000000000000000000000000000000000000000000000602082015250565b7f3c7465787420783d2232302220793d2200000000000000000000000000000000600082015250565b7f4552433732313a20617070726f76616c20746f2063757272656e74206f776e6560008201527f7200000000000000000000000000000000000000000000000000000000000000602082015250565b7f2220636c6173733d2262617365223e0000000000000000000000000000000000600082015250565b7f7b226e616d65223a20224d657373616765202300000000000000000000000000600082015250565b7f4552433732313a207472616e736665722063616c6c6572206973206e6f74206f60008201527f776e6572206e6f7220617070726f766564000000000000000000000000000000602082015250565b7f455243373231456e756d657261626c653a20676c6f62616c20696e646578206f60008201527f7574206f6620626f756e64730000000000000000000000000000000000000000602082015250565b7f6e6f7420656e6f7567682c206368756d70000000000000000000000000000000600082015250565b614aac816142a6565b8114614ab757600080fd5b50565b614ac3816142b8565b8114614ace57600080fd5b50565b614ada816142c4565b8114614ae557600080fd5b50565b614af181614310565b8114614afc57600080fd5b5056fe3c73766720786d6c6e733d22687474703a2f2f7777772e77332e6f72672f323030302f73766722207072657365727665417370656374526174696f3d22784d696e594d696e206d656574222076696577426f783d223020302034303020343030222077696474683d2238303022206865696768743d22383030223e3c646566733e3c6c696e6561724772616469656e742069643d2267726164222078313d2230222078323d2230222079313d2230222079323d2231223e3c73746f70206f66667365743d223025222073746f702d636f6c6f723d2264696d67726579222f3e3c73746f70206f66667365743d22313025222073746f702d636f6c6f723d22626c61636b222f3e3c2f6c696e6561724772616469656e743e3c72616469616c4772616469656e742069643d226772616432222063783d22302e35222063793d22302e392220723d22312e32222066783d22302e35222066793d22302e3922207370726561644d6574686f643d22726570656174223e3c73746f70206f66667365743d223025222073746f702d636f6c6f723d22726564222f3e3c73746f70206f66667365743d2231303025222073746f702d636f6c6f723d22626c7565222f3e3c2f72616469616c4772616469656e743e3c2f646566733e3c7374796c653e2e62617365207b2066696c6c3a79656c6c6f773b666f6e742d66616d696c793a206d6f6e6f73706163653b20666f6e742d73697a653a20313570783b207d3c2f7374796c653e3c7265637420793d2238222077696474683d223130302522206865696768743d2231303025222066696c6c3d2275726c28236772616429222f3e3c7265637420793d22353025222077696474683d223130302522206865696768743d2231303025222066696c6c3d2275726c28236772616429222f3e3c7465787420783d2232302220793d2233302220636c6173733d2262617365223e4142434445464748494a4b4c4d4e4f505152535455565758595a6162636465666768696a6b6c6d6e6f707172737475767778797a303132333435363738392b2f3c726563742077696474683d223130302522206865696768743d2231303025222066696c6c3d226e6f6e6522207374726f6b653d2264696d6772657922207374726f6b652d77696474683d223230222f3e3c636972636c652063783d223230222063793d223339352220723d2233222066696c6c3d226c696d65677265656e222f3e3c2f7376673e5d2c2022696d616765223a2022646174613a696d6167652f7376672b786d6c3b6261736536342c222c20226465736372697074696f6e223a20224c65646765724d652069732061207075626c6963206c656467657220666f722077616c6c657420746f2077616c6c657420636f6d6d756e69636174696f6e732e2020557365207769746820636172652e222ca26469706673582212207f24696888eb33c02908b22d34129790759ce45cae557510aa9baf135317469064736f6c63430008040033",
  "linkReferences": {},
  "deployedLinkReferences": {}
}