{
  "_format": "hh-sol-artifact-1",
  "contractName": "MessageMeNFT",
  "sourceName": "contracts/MessageNFT.sol",
  "abi": [
    {
      "inputs": [],
      "stateMutability": "nonpayable",
      "type": "constructor"
    },
    {
      "anonymous": false,
      "inputs": [
        {
          "indexed": true,
          "internalType": "address",
          "name": "owner",
          "type": "address"
        },
        {
          "indexed": true,
          "internalType": "address",
          "name": "approved",
          "type": "address"
        },
        {
          "indexed": true,
          "internalType": "uint256",
          "name": "tokenId",
          "type": "uint256"
        }
      ],
      "name": "Approval",
      "type": "event"
    },
    {
      "anonymous": false,
      "inputs": [
        {
          "indexed": true,
          "internalType": "address",
          "name": "owner",
          "type": "address"
        },
        {
          "indexed": true,
          "internalType": "address",
          "name": "operator",
          "type": "address"
        },
        {
          "indexed": false,
          "internalType": "bool",
          "name": "approved",
          "type": "bool"
        }
      ],
      "name": "ApprovalForAll",
      "type": "event"
    },
    {
      "anonymous": false,
      "inputs": [
        {
          "indexed": true,
          "internalType": "address",
          "name": "previousOwner",
          "type": "address"
        },
        {
          "indexed": true,
          "internalType": "address",
          "name": "newOwner",
          "type": "address"
        }
      ],
      "name": "OwnershipTransferred",
      "type": "event"
    },
    {
      "anonymous": false,
      "inputs": [
        {
          "indexed": true,
          "internalType": "address",
          "name": "from",
          "type": "address"
        },
        {
          "indexed": true,
          "internalType": "address",
          "name": "to",
          "type": "address"
        },
        {
          "indexed": true,
          "internalType": "uint256",
          "name": "tokenId",
          "type": "uint256"
        }
      ],
      "name": "Transfer",
      "type": "event"
    },
    {
      "inputs": [
        {
          "internalType": "address",
          "name": "",
          "type": "address"
        }
      ],
      "name": "allLedgers",
      "outputs": [
        {
          "internalType": "bool",
          "name": "claimed",
          "type": "bool"
        },
        {
          "internalType": "bool",
          "name": "isPayable",
          "type": "bool"
        },
        {
          "internalType": "uint256",
          "name": "writePrice",
          "type": "uint256"
        },
        {
          "internalType": "bool",
          "name": "writeActive",
          "type": "bool"
        },
        {
          "internalType": "string",
          "name": "header",
          "type": "string"
        },
        {
          "internalType": "uint256",
          "name": "writeIndex",
          "type": "uint256"
        }
      ],
      "stateMutability": "view",
      "type": "function"
    },
    {
      "inputs": [
        {
          "internalType": "address",
          "name": "to",
          "type": "address"
        },
        {
          "internalType": "uint256",
          "name": "tokenId",
          "type": "uint256"
        }
      ],
      "name": "approve",
      "outputs": [],
      "stateMutability": "nonpayable",
      "type": "function"
    },
    {
      "inputs": [
        {
          "internalType": "address",
          "name": "owner",
          "type": "address"
        }
      ],
      "name": "balanceOf",
      "outputs": [
        {
          "internalType": "uint256",
          "name": "",
          "type": "uint256"
        }
      ],
      "stateMutability": "view",
      "type": "function"
    },
    {
      "inputs": [],
      "name": "claimToken",
      "outputs": [],
      "stateMutability": "nonpayable",
      "type": "function"
    },
    {
      "inputs": [
        {
          "internalType": "address",
          "name": "",
          "type": "address"
        }
      ],
      "name": "ethValues",
      "outputs": [
        {
          "internalType": "uint256",
          "name": "",
          "type": "uint256"
        }
      ],
      "stateMutability": "view",
      "type": "function"
    },
    {
      "inputs": [
        {
          "internalType": "uint256",
          "name": "tokenId",
          "type": "uint256"
        }
      ],
      "name": "getApproved",
      "outputs": [
        {
          "internalType": "address",
          "name": "",
          "type": "address"
        }
      ],
      "stateMutability": "view",
      "type": "function"
    },
    {
      "inputs": [
        {
          "internalType": "address",
          "name": "messager",
          "type": "address"
        }
      ],
      "name": "getMessageFromUser",
      "outputs": [
        {
          "internalType": "string",
          "name": "",
          "type": "string"
        }
      ],
      "stateMutability": "view",
      "type": "function"
    },
    {
      "inputs": [
        {
          "internalType": "address",
          "name": "owner",
          "type": "address"
        }
      ],
      "name": "getWritePriceByAddress",
      "outputs": [
        {
          "internalType": "uint256",
          "name": "",
          "type": "uint256"
        }
      ],
      "stateMutability": "view",
      "type": "function"
    },
    {
      "inputs": [
        {
          "internalType": "uint256",
          "name": "tokenId",
          "type": "uint256"
        }
      ],
      "name": "getWritePriceByTokeId",
      "outputs": [
        {
          "internalType": "uint256",
          "name": "",
          "type": "uint256"
        }
      ],
      "stateMutability": "view",
      "type": "function"
    },
    {
      "inputs": [
        {
          "internalType": "address",
          "name": "owner",
          "type": "address"
        },
        {
          "internalType": "address",
          "name": "operator",
          "type": "address"
        }
      ],
      "name": "isApprovedForAll",
      "outputs": [
        {
          "internalType": "bool",
          "name": "",
          "type": "bool"
        }
      ],
      "stateMutability": "view",
      "type": "function"
    },
    {
      "inputs": [],
      "name": "name",
      "outputs": [
        {
          "internalType": "string",
          "name": "",
          "type": "string"
        }
      ],
      "stateMutability": "view",
      "type": "function"
    },
    {
      "inputs": [],
      "name": "owner",
      "outputs": [
        {
          "internalType": "address",
          "name": "",
          "type": "address"
        }
      ],
      "stateMutability": "view",
      "type": "function"
    },
    {
      "inputs": [
        {
          "internalType": "uint256",
          "name": "tokenId",
          "type": "uint256"
        }
      ],
      "name": "ownerOf",
      "outputs": [
        {
          "internalType": "address",
          "name": "",
          "type": "address"
        }
      ],
      "stateMutability": "view",
      "type": "function"
    },
    {
      "inputs": [],
      "name": "removeWritePrice",
      "outputs": [],
      "stateMutability": "nonpayable",
      "type": "function"
    },
    {
      "inputs": [],
      "name": "renounceOwnership",
      "outputs": [],
      "stateMutability": "nonpayable",
      "type": "function"
    },
    {
      "inputs": [
        {
          "internalType": "address",
          "name": "from",
          "type": "address"
        },
        {
          "internalType": "address",
          "name": "to",
          "type": "address"
        },
        {
          "internalType": "uint256",
          "name": "tokenId",
          "type": "uint256"
        }
      ],
      "name": "safeTransferFrom",
      "outputs": [],
      "stateMutability": "nonpayable",
      "type": "function"
    },
    {
      "inputs": [
        {
          "internalType": "address",
          "name": "from",
          "type": "address"
        },
        {
          "internalType": "address",
          "name": "to",
          "type": "address"
        },
        {
          "internalType": "uint256",
          "name": "tokenId",
          "type": "uint256"
        },
        {
          "internalType": "bytes",
          "name": "_data",
          "type": "bytes"
        }
      ],
      "name": "safeTransferFrom",
      "outputs": [],
      "stateMutability": "nonpayable",
      "type": "function"
    },
    {
      "inputs": [
        {
          "internalType": "address",
          "name": "operator",
          "type": "address"
        },
        {
          "internalType": "bool",
          "name": "approved",
          "type": "bool"
        }
      ],
      "name": "setApprovalForAll",
      "outputs": [],
      "stateMutability": "nonpayable",
      "type": "function"
    },
    {
      "inputs": [
        {
          "internalType": "uint256",
          "name": "writePrice",
          "type": "uint256"
        }
      ],
      "name": "setWritePrice",
      "outputs": [],
      "stateMutability": "nonpayable",
      "type": "function"
    },
    {
      "inputs": [
        {
          "internalType": "bytes4",
          "name": "interfaceId",
          "type": "bytes4"
        }
      ],
      "name": "supportsInterface",
      "outputs": [
        {
          "internalType": "bool",
          "name": "",
          "type": "bool"
        }
      ],
      "stateMutability": "view",
      "type": "function"
    },
    {
      "inputs": [],
      "name": "symbol",
      "outputs": [
        {
          "internalType": "string",
          "name": "",
          "type": "string"
        }
      ],
      "stateMutability": "view",
      "type": "function"
    },
    {
      "inputs": [
        {
          "internalType": "uint256",
          "name": "index",
          "type": "uint256"
        }
      ],
      "name": "tokenByIndex",
      "outputs": [
        {
          "internalType": "uint256",
          "name": "",
          "type": "uint256"
        }
      ],
      "stateMutability": "view",
      "type": "function"
    },
    {
      "inputs": [
        {
          "internalType": "address",
          "name": "owner",
          "type": "address"
        },
        {
          "internalType": "uint256",
          "name": "index",
          "type": "uint256"
        }
      ],
      "name": "tokenOfOwnerByIndex",
      "outputs": [
        {
          "internalType": "uint256",
          "name": "",
          "type": "uint256"
        }
      ],
      "stateMutability": "view",
      "type": "function"
    },
    {
      "inputs": [
        {
          "internalType": "uint256",
          "name": "tokenId",
          "type": "uint256"
        }
      ],
      "name": "tokenURI",
      "outputs": [
        {
          "internalType": "string",
          "name": "",
          "type": "string"
        }
      ],
      "stateMutability": "view",
      "type": "function"
    },
    {
      "inputs": [
        {
          "internalType": "uint256",
          "name": "",
          "type": "uint256"
        }
      ],
      "name": "tokensToAddress",
      "outputs": [
        {
          "internalType": "address",
          "name": "",
          "type": "address"
        }
      ],
      "stateMutability": "view",
      "type": "function"
    },
    {
      "inputs": [],
      "name": "totalSupply",
      "outputs": [
        {
          "internalType": "uint256",
          "name": "",
          "type": "uint256"
        }
      ],
      "stateMutability": "view",
      "type": "function"
    },
    {
      "inputs": [
        {
          "internalType": "address",
          "name": "from",
          "type": "address"
        },
        {
          "internalType": "address",
          "name": "to",
          "type": "address"
        },
        {
          "internalType": "uint256",
          "name": "tokenId",
          "type": "uint256"
        }
      ],
      "name": "transferFrom",
      "outputs": [],
      "stateMutability": "nonpayable",
      "type": "function"
    },
    {
      "inputs": [
        {
          "internalType": "address",
          "name": "newOwner",
          "type": "address"
        }
      ],
      "name": "transferOwnership",
      "outputs": [],
      "stateMutability": "nonpayable",
      "type": "function"
    },
    {
      "inputs": [
        {
          "internalType": "address payable",
          "name": "wallet",
          "type": "address"
        }
      ],
      "name": "withdraw",
      "outputs": [],
      "stateMutability": "nonpayable",
      "type": "function"
    },
    {
      "inputs": [
        {
          "internalType": "address",
          "name": "userAddress",
          "type": "address"
        },
        {
          "internalType": "string",
          "name": "message",
          "type": "string"
        }
      ],
      "name": "writeFree",
      "outputs": [],
      "stateMutability": "nonpayable",
      "type": "function"
    },
    {
      "inputs": [
        {
          "internalType": "address",
          "name": "userAddress",
          "type": "address"
        },
        {
          "internalType": "string",
          "name": "message",
          "type": "string"
        }
      ],
      "name": "writePayable",
      "outputs": [],
      "stateMutability": "payable",
      "type": "function"
    }
  ],
  "bytecode": "0x60806040523480156200001157600080fd5b506040518060400160405280600981526020017f4d6573736167654d6500000000000000000000000000000000000000000000008152506040518060400160405280600381526020017f4d534700000000000000000000000000000000000000000000000000000000008152506200009e62000092620000d860201b60201c565b620000e060201b60201c565b8160019080519060200190620000b6929190620001a4565b508060029080519060200190620000cf929190620001a4565b505050620002b9565b600033905090565b60008060009054906101000a900473ffffffffffffffffffffffffffffffffffffffff169050816000806101000a81548173ffffffffffffffffffffffffffffffffffffffff021916908373ffffffffffffffffffffffffffffffffffffffff1602179055508173ffffffffffffffffffffffffffffffffffffffff168173ffffffffffffffffffffffffffffffffffffffff167f8be0079c531659141344cd1fd0a4f28419497f9722a3daafe3b4186f6b6457e060405160405180910390a35050565b828054620001b29062000254565b90600052602060002090601f016020900481019282620001d6576000855562000222565b82601f10620001f157805160ff191683800117855562000222565b8280016001018555821562000222579182015b828111156200022157825182559160200191906001019062000204565b5b50905062000231919062000235565b5090565b5b808211156200025057600081600090555060010162000236565b5090565b600060028204905060018216806200026d57607f821691505b602082108114156200028457620002836200028a565b5b50919050565b7f4e487b7100000000000000000000000000000000000000000000000000000000600052602260045260246000fd5b61534a80620002c96000396000f3fe6080604052600436106101d85760003560e01c806351cff8d911610102578063ab1392d411610095578063d754e7ec11610064578063d754e7ec146106f2578063e985e9c514610734578063f2fde38b14610771578063f645ad0a1461079a576101d8565b8063ab1392d414610626578063b88d4fde1461064f578063c87b56dd14610678578063ce6fb23f146106b5576101d8565b806382d12db1116100d157806382d12db11461056a5780638da5cb5b146105a757806395d89b41146105d2578063a22cb465146105fd576101d8565b806351cff8d9146104b05780636352211e146104d957806370a0823114610516578063715018a614610553576101d8565b806318160ddd1161017a57806342842e0e1161014957806342842e0e146103f65780634451d89f1461041f57806347efe240146104365780634f6ccce714610473576101d8565b806318160ddd1461033c57806323b872dd146103675780632f745c5914610390578063392ee79d146103cd576101d8565b806306fdde03116101b657806306fdde031461026e578063081812fc14610299578063095ea7b3146102d6578063097b87cb146102ff576101d8565b806301ffc9a7146101dd57806305435fb11461021a5780630668dcaa14610231575b600080fd5b3480156101e957600080fd5b5061020460048036038101906101ff9190613bf0565b6107b6565b60405161021191906142f0565b60405180910390f35b34801561022657600080fd5b5061022f6107c8565b005b34801561023d57600080fd5b5061025860048036038101906102539190613c42565b61082c565b6040516102659190614289565b60405180910390f35b34801561027a57600080fd5b5061028361085f565b6040516102909190614373565b60405180910390f35b3480156102a557600080fd5b506102c060048036038101906102bb9190613c42565b6108f1565b6040516102cd9190614289565b60405180910390f35b3480156102e257600080fd5b506102fd60048036038101906102f89190613bb4565b610976565b005b34801561030b57600080fd5b50610326600480360381019061032191906139c8565b610a8e565b60405161033391906145f5565b60405180910390f35b34801561034857600080fd5b50610351610ada565b60405161035e91906145f5565b60405180910390f35b34801561037357600080fd5b5061038e60048036038101906103899190613a56565b610ae7565b005b34801561039c57600080fd5b506103b760048036038101906103b29190613bb4565b610b2d565b6040516103c491906145f5565b60405180910390f35b3480156103d957600080fd5b506103f460048036038101906103ef9190613c42565b610bd2565b005b34801561040257600080fd5b5061041d60048036038101906104189190613a56565b610c85565b005b34801561042b57600080fd5b50610434610ccb565b005b34801561044257600080fd5b5061045d600480360381019061045891906139c8565b610ff5565b60405161046a9190614373565b60405180910390f35b34801561047f57600080fd5b5061049a60048036038101906104959190613c42565b61110d565b6040516104a791906145f5565b60405180910390f35b3480156104bc57600080fd5b506104d760048036038101906104d291906139f1565b6111a4565b005b3480156104e557600080fd5b5061050060048036038101906104fb9190613c42565b61137e565b60405161050d9190614289565b60405180910390f35b34801561052257600080fd5b5061053d600480360381019061053891906139c8565b611430565b60405161054a91906145f5565b60405180910390f35b34801561055f57600080fd5b506105686114e8565b005b34801561057657600080fd5b50610591600480360381019061058c9190613c42565b611570565b60405161059e91906145f5565b60405180910390f35b3480156105b357600080fd5b506105bc6115b5565b6040516105c99190614289565b60405180910390f35b3480156105de57600080fd5b506105e76115de565b6040516105f49190614373565b60405180910390f35b34801561060957600080fd5b50610624600480360381019061061f9190613b20565b611670565b005b34801561063257600080fd5b5061064d60048036038101906106489190613b5c565b6117f1565b005b34801561065b57600080fd5b5061067660048036038101906106719190613aa5565b611b0a565b005b34801561068457600080fd5b5061069f600480360381019061069a9190613c42565b611b10565b6040516106ac9190614373565b60405180910390f35b3480156106c157600080fd5b506106dc60048036038101906106d791906139c8565b6121a4565b6040516106e991906145f5565b60405180910390f35b3480156106fe57600080fd5b50610719600480360381019061071491906139c8565b6121bc565b60405161072b9695949392919061430b565b60405180910390f35b34801561074057600080fd5b5061075b60048036038101906107569190613a1a565b6122a7565b60405161076891906142f0565b60405180910390f35b34801561077d57600080fd5b50610798600480360381019061079391906139c8565b61233b565b005b6107b460048036038101906107af9190613b5c565b612433565b005b60006107c182612797565b9050919050565b6000600c60006107d6612811565b73ffffffffffffffffffffffffffffffffffffffff1673ffffffffffffffffffffffffffffffffffffffff16815260200190815260200160002060000160016101000a81548160ff021916908315150217905550565b600d6020528060005260406000206000915054906101000a900473ffffffffffffffffffffffffffffffffffffffff1681565b60606001805461086e9061489b565b80601f016020809104026020016040519081016040528092919081815260200182805461089a9061489b565b80156108e75780601f106108bc576101008083540402835291602001916108e7565b820191906000526020600020905b8154815290600101906020018083116108ca57829003601f168201915b5050505050905090565b60006108fc82612819565b61093b576040517f08c379a000000000000000000000000000000000000000000000000000000000815260040161093290614515565b60405180910390fd5b6005600083815260200190815260200160002060009054906101000a900473ffffffffffffffffffffffffffffffffffffffff169050919050565b60006109818261137e565b90508073ffffffffffffffffffffffffffffffffffffffff168373ffffffffffffffffffffffffffffffffffffffff1614156109f2576040517f08c379a00000000000000000000000000000000000000000000000000000000081526004016109e990614575565b60405180910390fd5b8073ffffffffffffffffffffffffffffffffffffffff16610a11612811565b73ffffffffffffffffffffffffffffffffffffffff161480610a405750610a3f81610a3a612811565b6122a7565b5b610a7f576040517f08c379a0000000000000000000000000000000000000000000000000000000008152600401610a7690614495565b60405180910390fd5b610a898383612885565b505050565b6000600c60008373ffffffffffffffffffffffffffffffffffffffff1673ffffffffffffffffffffffffffffffffffffffff168152602001908152602001600020600101549050919050565b6000600980549050905090565b6000610b28576040517f08c379a0000000000000000000000000000000000000000000000000000000008152600401610b1f906145b5565b60405180910390fd5b505050565b6000610b3883611430565b8210610b79576040517f08c379a0000000000000000000000000000000000000000000000000000000008152600401610b70906143b5565b60405180910390fd5b600760008473ffffffffffffffffffffffffffffffffffffffff1673ffffffffffffffffffffffffffffffffffffffff168152602001908152602001600020600083815260200190815260200160002054905092915050565b6001600c6000610be0612811565b73ffffffffffffffffffffffffffffffffffffffff1673ffffffffffffffffffffffffffffffffffffffff16815260200190815260200160002060000160016101000a81548160ff02191690831515021790555080600c6000610c41612811565b73ffffffffffffffffffffffffffffffffffffffff1673ffffffffffffffffffffffffffffffffffffffff1681526020019081526020016000206001018190555050565b6000610cc6576040517f08c379a0000000000000000000000000000000000000000000000000000000008152600401610cbd906145b5565b60405180910390fd5b505050565b60001515600c6000610cdb612811565b73ffffffffffffffffffffffffffffffffffffffff1673ffffffffffffffffffffffffffffffffffffffff16815260200190815260200160002060000160009054906101000a900460ff16151514610d68576040517f08c379a0000000000000000000000000000000000000000000000000000000008152600401610d5f90614435565b60405180910390fd5b610d72600b61293e565b6000610d7e600b612954565b9050610d88612811565b600d600083815260200190815260200160002060006101000a81548173ffffffffffffffffffffffffffffffffffffffff021916908373ffffffffffffffffffffffffffffffffffffffff1602179055506001600c6000610de7612811565b73ffffffffffffffffffffffffffffffffffffffff1673ffffffffffffffffffffffffffffffffffffffff16815260200190815260200160002060000160006101000a81548160ff0219169083151502179055506001600c6000610e49612811565b73ffffffffffffffffffffffffffffffffffffffff1673ffffffffffffffffffffffffffffffffffffffff16815260200190815260200160002060020160006101000a81548160ff0219169083151502179055506000600c6000610eab612811565b73ffffffffffffffffffffffffffffffffffffffff1673ffffffffffffffffffffffffffffffffffffffff16815260200190815260200160002060000160016101000a81548160ff0219169083151502179055506040518060400160405280601381526020017f697473206e69636520746f2073656520796f7500000000000000000000000000815250600c6000610f41612811565b73ffffffffffffffffffffffffffffffffffffffff1673ffffffffffffffffffffffffffffffffffffffff1681526020019081526020016000206003019080519060200190610f9192919061376f565b506000600c6000610fa0612811565b73ffffffffffffffffffffffffffffffffffffffff1673ffffffffffffffffffffffffffffffffffffffff16815260200190815260200160002060160181905550610ff2610fec612811565b82612962565b50565b6060600c6000611003612811565b73ffffffffffffffffffffffffffffffffffffffff1673ffffffffffffffffffffffffffffffffffffffff16815260200190815260200160002060040160008373ffffffffffffffffffffffffffffffffffffffff1673ffffffffffffffffffffffffffffffffffffffff16815260200190815260200160002080546110889061489b565b80601f01602080910402602001604051908101604052809291908181526020018280546110b49061489b565b80156111015780601f106110d657610100808354040283529160200191611101565b820191906000526020600020905b8154815290600101906020018083116110e457829003601f168201915b50505050509050919050565b6000611117610ada565b8210611158576040517f08c379a000000000000000000000000000000000000000000000000000000000815260040161114f90614595565b60405180910390fd5b60098281548110611192577f4e487b7100000000000000000000000000000000000000000000000000000000600052603260045260246000fd5b90600052602060002001549050919050565b8073ffffffffffffffffffffffffffffffffffffffff166111c3612811565b73ffffffffffffffffffffffffffffffffffffffff1614611219576040517f08c379a000000000000000000000000000000000000000000000000000000000815260040161121090614535565b60405180910390fd5b6000600e6000611227612811565b73ffffffffffffffffffffffffffffffffffffffff1673ffffffffffffffffffffffffffffffffffffffff16815260200190815260200160002054116112a2576040517f08c379a000000000000000000000000000000000000000000000000000000000815260040161129990614475565b60405180910390fd5b8073ffffffffffffffffffffffffffffffffffffffff166108fc600e60006112c8612811565b73ffffffffffffffffffffffffffffffffffffffff1673ffffffffffffffffffffffffffffffffffffffff168152602001908152602001600020549081150290604051600060405180830381858888f1935050505015801561132e573d6000803e3d6000fd5b506000600e600061133d612811565b73ffffffffffffffffffffffffffffffffffffffff1673ffffffffffffffffffffffffffffffffffffffff1681526020019081526020016000208190555050565b6000806003600084815260200190815260200160002060009054906101000a900473ffffffffffffffffffffffffffffffffffffffff169050600073ffffffffffffffffffffffffffffffffffffffff168173ffffffffffffffffffffffffffffffffffffffff161415611427576040517f08c379a000000000000000000000000000000000000000000000000000000000815260040161141e906144d5565b60405180910390fd5b80915050919050565b60008073ffffffffffffffffffffffffffffffffffffffff168273ffffffffffffffffffffffffffffffffffffffff1614156114a1576040517f08c379a0000000000000000000000000000000000000000000000000000000008152600401611498906144b5565b60405180910390fd5b600460008373ffffffffffffffffffffffffffffffffffffffff1673ffffffffffffffffffffffffffffffffffffffff168152602001908152602001600020549050919050565b6114f0612811565b73ffffffffffffffffffffffffffffffffffffffff1661150e6115b5565b73ffffffffffffffffffffffffffffffffffffffff1614611564576040517f08c379a000000000000000000000000000000000000000000000000000000000815260040161155b90614555565b60405180910390fd5b61156e6000612980565b565b60006115ae600d600084815260200190815260200160002060009054906101000a900473ffffffffffffffffffffffffffffffffffffffff16610a8e565b9050919050565b60008060009054906101000a900473ffffffffffffffffffffffffffffffffffffffff16905090565b6060600280546115ed9061489b565b80601f01602080910402602001604051908101604052809291908181526020018280546116199061489b565b80156116665780601f1061163b57610100808354040283529160200191611666565b820191906000526020600020905b81548152906001019060200180831161164957829003601f168201915b5050505050905090565b611678612811565b73ffffffffffffffffffffffffffffffffffffffff168273ffffffffffffffffffffffffffffffffffffffff1614156116e6576040517f08c379a00000000000000000000000000000000000000000000000000000000081526004016116dd90614455565b60405180910390fd5b80600660006116f3612811565b73ffffffffffffffffffffffffffffffffffffffff1673ffffffffffffffffffffffffffffffffffffffff16815260200190815260200160002060008473ffffffffffffffffffffffffffffffffffffffff1673ffffffffffffffffffffffffffffffffffffffff16815260200190815260200160002060006101000a81548160ff0219169083151502179055508173ffffffffffffffffffffffffffffffffffffffff166117a0612811565b73ffffffffffffffffffffffffffffffffffffffff167f17307eab39ab6107e8899845ad3d59bd9653f200f220920489ca2b5937696c31836040516117e591906142f0565b60405180910390a35050565b600c60008473ffffffffffffffffffffffffffffffffffffffff1673ffffffffffffffffffffffffffffffffffffffff16815260200190815260200160002060000160019054906101000a900460ff1615611881576040517f08c379a000000000000000000000000000000000000000000000000000000000815260040161187890614395565b60405180910390fd5b8181600c60008673ffffffffffffffffffffffffffffffffffffffff1673ffffffffffffffffffffffffffffffffffffffff16815260200190815260200160002060040160006118cf612811565b73ffffffffffffffffffffffffffffffffffffffff1673ffffffffffffffffffffffffffffffffffffffff16815260200190815260200160002091906119169291906137f5565b5061191f612811565b600c60008573ffffffffffffffffffffffffffffffffffffffff1673ffffffffffffffffffffffffffffffffffffffff168152602001908152602001600020600501600c60008673ffffffffffffffffffffffffffffffffffffffff1673ffffffffffffffffffffffffffffffffffffffff16815260200190815260200160002060160154601181106119db577f4e487b7100000000000000000000000000000000000000000000000000000000600052603260045260246000fd5b0160006101000a81548173ffffffffffffffffffffffffffffffffffffffff021916908373ffffffffffffffffffffffffffffffffffffffff160217905550600c60008473ffffffffffffffffffffffffffffffffffffffff1673ffffffffffffffffffffffffffffffffffffffff1681526020019081526020016000206016016000815480929190611a6d906148fe565b91905055506011600c60008573ffffffffffffffffffffffffffffffffffffffff1673ffffffffffffffffffffffffffffffffffffffff1681526020019081526020016000206016015410611b05576000600c60008573ffffffffffffffffffffffffffffffffffffffff1673ffffffffffffffffffffffffffffffffffffffff168152602001908152602001600020601601819055505b505050565b50505050565b60606000600c6000600d600086815260200190815260200160002060009054906101000a900473ffffffffffffffffffffffffffffffffffffffff1673ffffffffffffffffffffffffffffffffffffffff1673ffffffffffffffffffffffffffffffffffffffff168152602001908152602001600020600501601180602002604051908101604052809291908260118015611bf6576020028201915b8160009054906101000a900473ffffffffffffffffffffffffffffffffffffffff1673ffffffffffffffffffffffffffffffffffffffff1681526020019060010190808311611bac575b505050505090506000604051806101c0016040528061019081526020016151206101909139600c6000600d600088815260200190815260200160002060009054906101000a900473ffffffffffffffffffffffffffffffffffffffff1673ffffffffffffffffffffffffffffffffffffffff1673ffffffffffffffffffffffffffffffffffffffff168152602001908152602001600020600301604051602001611ca192919061417a565b60405160208183030381529060405290506000600d600086815260200190815260200160002060009054906101000a900473ffffffffffffffffffffffffffffffffffffffff16905060005b6011811015611e10576000601482611d059190614745565b6032611d1191906146be565b905083611d1d82612a44565b600c60008673ffffffffffffffffffffffffffffffffffffffff1673ffffffffffffffffffffffffffffffffffffffff1681526020019081526020016000206004016000888660118110611d9a577f4e487b7100000000000000000000000000000000000000000000000000000000600052603260045260246000fd5b602002015173ffffffffffffffffffffffffffffffffffffffff1673ffffffffffffffffffffffffffffffffffffffff168152602001908152602001600020604051602001611deb939291906141e3565b6040516020818303038152906040529350508080611e08906148fe565b915050611ced565b50600c6000600d600088815260200190815260200160002060009054906101000a900473ffffffffffffffffffffffffffffffffffffffff1673ffffffffffffffffffffffffffffffffffffffff1673ffffffffffffffffffffffffffffffffffffffff16815260200190815260200160002060000160019054906101000a900460ff1615611f3b5781611f18600c6000600d60008a815260200190815260200160002060009054906101000a900473ffffffffffffffffffffffffffffffffffffffff1673ffffffffffffffffffffffffffffffffffffffff1673ffffffffffffffffffffffffffffffffffffffff16815260200190815260200160002060010154612a44565b604051602001611f299291906141a9565b60405160208183030381529060405291505b816040518060c001604052806086815260200161509a60869139604051602001611f66929190614125565b604051602081830303815290604052915060006040518060400160405280600981526020017f6c696d65677265656e00000000000000000000000000000000000000000000008152509050600c6000600d600089815260200190815260200160002060009054906101000a900473ffffffffffffffffffffffffffffffffffffffff1673ffffffffffffffffffffffffffffffffffffffff1673ffffffffffffffffffffffffffffffffffffffff16815260200190815260200160002060020160009054906101000a900460ff16612071576040518060400160405280600381526020017f726564000000000000000000000000000000000000000000000000000000000081525090505b82816040518060400160405280600981526020017f222f3e3c2f7376673e00000000000000000000000000000000000000000000008152506040516020016120bb93929190614149565b6040516020818303038152906040529250600061213c6120da88612a44565b6040518060a00160405280606581526020016152b0606591396040518060600160405280602481526020016150366024913961211588612bf1565b6040516020016121289493929190614235565b604051602081830303815290604052612bf1565b90506040518060400160405280601d81526020017f646174613a6170706c69636174696f6e2f6a736f6e3b6261736536342c00000081525081604051602001612186929190614125565b60405160208183030381529060405293508395505050505050919050565b600e6020528060005260406000206000915090505481565b600c6020528060005260406000206000915090508060000160009054906101000a900460ff16908060000160019054906101000a900460ff16908060010154908060020160009054906101000a900460ff169080600301805461221e9061489b565b80601f016020809104026020016040519081016040528092919081815260200182805461224a9061489b565b80156122975780601f1061226c57610100808354040283529160200191612297565b820191906000526020600020905b81548152906001019060200180831161227a57829003601f168201915b5050505050908060160154905086565b6000600660008473ffffffffffffffffffffffffffffffffffffffff1673ffffffffffffffffffffffffffffffffffffffff16815260200190815260200160002060008373ffffffffffffffffffffffffffffffffffffffff1673ffffffffffffffffffffffffffffffffffffffff16815260200190815260200160002060009054906101000a900460ff16905092915050565b612343612811565b73ffffffffffffffffffffffffffffffffffffffff166123616115b5565b73ffffffffffffffffffffffffffffffffffffffff16146123b7576040517f08c379a00000000000000000000000000000000000000000000000000000000081526004016123ae90614555565b60405180910390fd5b600073ffffffffffffffffffffffffffffffffffffffff168173ffffffffffffffffffffffffffffffffffffffff161415612427576040517f08c379a000000000000000000000000000000000000000000000000000000000815260040161241e906143f5565b60405180910390fd5b61243081612980565b50565b600c60008473ffffffffffffffffffffffffffffffffffffffff1673ffffffffffffffffffffffffffffffffffffffff168152602001908152602001600020600101543410156124b8576040517f08c379a00000000000000000000000000000000000000000000000000000000081526004016124af906145d5565b60405180910390fd5b8181600c60008673ffffffffffffffffffffffffffffffffffffffff1673ffffffffffffffffffffffffffffffffffffffff1681526020019081526020016000206004016000612506612811565b73ffffffffffffffffffffffffffffffffffffffff1673ffffffffffffffffffffffffffffffffffffffff168152602001908152602001600020919061254d9291906137f5565b50612556612811565b600c60008573ffffffffffffffffffffffffffffffffffffffff1673ffffffffffffffffffffffffffffffffffffffff168152602001908152602001600020600501600c60008673ffffffffffffffffffffffffffffffffffffffff1673ffffffffffffffffffffffffffffffffffffffff1681526020019081526020016000206016015460118110612612577f4e487b7100000000000000000000000000000000000000000000000000000000600052603260045260246000fd5b0160006101000a81548173ffffffffffffffffffffffffffffffffffffffff021916908373ffffffffffffffffffffffffffffffffffffffff160217905550600c60008473ffffffffffffffffffffffffffffffffffffffff1673ffffffffffffffffffffffffffffffffffffffff16815260200190815260200160002060160160008154809291906126a4906148fe565b91905055506011600c60008573ffffffffffffffffffffffffffffffffffffffff1673ffffffffffffffffffffffffffffffffffffffff168152602001908152602001600020601601541061273c576000600c60008573ffffffffffffffffffffffffffffffffffffffff1673ffffffffffffffffffffffffffffffffffffffff168152602001908152602001600020601601819055505b34600e60008573ffffffffffffffffffffffffffffffffffffffff1673ffffffffffffffffffffffffffffffffffffffff168152602001908152602001600020600082825461278b91906146be565b92505081905550505050565b60007f780e9d63000000000000000000000000000000000000000000000000000000007bffffffffffffffffffffffffffffffffffffffffffffffffffffffff1916827bffffffffffffffffffffffffffffffffffffffffffffffffffffffff1916148061280a575061280982612daf565b5b9050919050565b600033905090565b60008073ffffffffffffffffffffffffffffffffffffffff166003600084815260200190815260200160002060009054906101000a900473ffffffffffffffffffffffffffffffffffffffff1673ffffffffffffffffffffffffffffffffffffffff1614159050919050565b816005600083815260200190815260200160002060006101000a81548173ffffffffffffffffffffffffffffffffffffffff021916908373ffffffffffffffffffffffffffffffffffffffff160217905550808273ffffffffffffffffffffffffffffffffffffffff166128f88361137e565b73ffffffffffffffffffffffffffffffffffffffff167f8c5be1e5ebec7d5bd14f71427d1e84f3dd0314c0f7b2291e5b200ac8c7c3b92560405160405180910390a45050565b6001816000016000828254019250508190555050565b600081600001549050919050565b61297c828260405180602001604052806000815250612e91565b5050565b60008060009054906101000a900473ffffffffffffffffffffffffffffffffffffffff169050816000806101000a81548173ffffffffffffffffffffffffffffffffffffffff021916908373ffffffffffffffffffffffffffffffffffffffff1602179055508173ffffffffffffffffffffffffffffffffffffffff168173ffffffffffffffffffffffffffffffffffffffff167f8be0079c531659141344cd1fd0a4f28419497f9722a3daafe3b4186f6b6457e060405160405180910390a35050565b60606000821415612a8c576040518060400160405280600181526020017f30000000000000000000000000000000000000000000000000000000000000008152509050612bec565b600082905060005b60008214612abe578080612aa7906148fe565b915050600a82612ab79190614714565b9150612a94565b60008167ffffffffffffffff811115612b00577f4e487b7100000000000000000000000000000000000000000000000000000000600052604160045260246000fd5b6040519080825280601f01601f191660200182016040528015612b325781602001600182028036833780820191505090505b5090505b60008514612be557600182612b4b919061479f565b9150600a85612b5a9190614947565b6030612b6691906146be565b60f81b818381518110612ba2577f4e487b7100000000000000000000000000000000000000000000000000000000600052603260045260246000fd5b60200101907effffffffffffffffffffffffffffffffffffffffffffffffffffffffffffff1916908160001a905350600a85612bde9190614714565b9450612b36565b8093505050505b919050565b60606000825190506000811415612c1a5760405180602001604052806000815250915050612daa565b60006003600283612c2b91906146be565b612c359190614714565b6004612c419190614745565b90506000602082612c5291906146be565b67ffffffffffffffff811115612c91577f4e487b7100000000000000000000000000000000000000000000000000000000600052604160045260246000fd5b6040519080825280601f01601f191660200182016040528015612cc35781602001600182028036833780820191505090505b509050600060405180606001604052806040815260200161505a604091399050600181016020830160005b86811015612d675760038101905062ffffff818a015116603f8160121c168401518060081b905060ff603f83600c1c1686015116810190508060081b905060ff603f8360061c1686015116810190508060081b905060ff603f831686015116810190508060e01b90508084526004840193505050612cee565b506003860660018114612d815760028114612d9157612d9c565b613d3d60f01b6002830352612d9c565b603d60f81b60018303525b508484525050819450505050505b919050565b60007f80ac58cd000000000000000000000000000000000000000000000000000000007bffffffffffffffffffffffffffffffffffffffffffffffffffffffff1916827bffffffffffffffffffffffffffffffffffffffffffffffffffffffff19161480612e7a57507f5b5e139f000000000000000000000000000000000000000000000000000000007bffffffffffffffffffffffffffffffffffffffffffffffffffffffff1916827bffffffffffffffffffffffffffffffffffffffffffffffffffffffff1916145b80612e8a5750612e8982612eec565b5b9050919050565b612e9b8383612f56565b612ea86000848484613124565b612ee7576040517f08c379a0000000000000000000000000000000000000000000000000000000008152600401612ede906143d5565b60405180910390fd5b505050565b60007f01ffc9a7000000000000000000000000000000000000000000000000000000007bffffffffffffffffffffffffffffffffffffffffffffffffffffffff1916827bffffffffffffffffffffffffffffffffffffffffffffffffffffffff1916149050919050565b600073ffffffffffffffffffffffffffffffffffffffff168273ffffffffffffffffffffffffffffffffffffffff161415612fc6576040517f08c379a0000000000000000000000000000000000000000000000000000000008152600401612fbd906144f5565b60405180910390fd5b612fcf81612819565b1561300f576040517f08c379a000000000000000000000000000000000000000000000000000000000815260040161300690614415565b60405180910390fd5b61301b600083836132bb565b6001600460008473ffffffffffffffffffffffffffffffffffffffff1673ffffffffffffffffffffffffffffffffffffffff168152602001908152602001600020600082825461306b91906146be565b92505081905550816003600083815260200190815260200160002060006101000a81548173ffffffffffffffffffffffffffffffffffffffff021916908373ffffffffffffffffffffffffffffffffffffffff160217905550808273ffffffffffffffffffffffffffffffffffffffff16600073ffffffffffffffffffffffffffffffffffffffff167fddf252ad1be2c89b69c2b068fc378daa952ba7f163c4a11628f55a4df523b3ef60405160405180910390a45050565b60006131458473ffffffffffffffffffffffffffffffffffffffff166132cb565b156132ae578373ffffffffffffffffffffffffffffffffffffffff1663150b7a0261316e612811565b8786866040518563ffffffff1660e01b815260040161319094939291906142a4565b602060405180830381600087803b1580156131aa57600080fd5b505af19250505080156131db57506040513d601f19601f820116820180604052508101906131d89190613c19565b60015b61325e573d806000811461320b576040519150601f19603f3d011682016040523d82523d6000602084013e613210565b606091505b50600081511415613256576040517f08c379a000000000000000000000000000000000000000000000000000000000815260040161324d906143d5565b60405180910390fd5b805181602001fd5b63150b7a0260e01b7bffffffffffffffffffffffffffffffffffffffffffffffffffffffff1916817bffffffffffffffffffffffffffffffffffffffffffffffffffffffff1916149150506132b3565b600190505b949350505050565b6132c68383836132de565b505050565b600080823b905060008111915050919050565b6132e98383836133f2565b600073ffffffffffffffffffffffffffffffffffffffff168373ffffffffffffffffffffffffffffffffffffffff16141561332c57613327816133f7565b61336b565b8173ffffffffffffffffffffffffffffffffffffffff168373ffffffffffffffffffffffffffffffffffffffff161461336a576133698382613440565b5b5b600073ffffffffffffffffffffffffffffffffffffffff168273ffffffffffffffffffffffffffffffffffffffff1614156133ae576133a9816135ad565b6133ed565b8273ffffffffffffffffffffffffffffffffffffffff168273ffffffffffffffffffffffffffffffffffffffff16146133ec576133eb82826136f0565b5b5b505050565b505050565b600980549050600a600083815260200190815260200160002081905550600981908060018154018082558091505060019003906000526020600020016000909190919091505550565b6000600161344d84611430565b613457919061479f565b905060006008600084815260200190815260200160002054905081811461353c576000600760008673ffffffffffffffffffffffffffffffffffffffff1673ffffffffffffffffffffffffffffffffffffffff168152602001908152602001600020600084815260200190815260200160002054905080600760008773ffffffffffffffffffffffffffffffffffffffff1673ffffffffffffffffffffffffffffffffffffffff168152602001908152602001600020600084815260200190815260200160002081905550816008600083815260200190815260200160002081905550505b6008600084815260200190815260200160002060009055600760008573ffffffffffffffffffffffffffffffffffffffff1673ffffffffffffffffffffffffffffffffffffffff16815260200190815260200160002060008381526020019081526020016000206000905550505050565b600060016009805490506135c1919061479f565b90506000600a6000848152602001908152602001600020549050600060098381548110613617577f4e487b7100000000000000000000000000000000000000000000000000000000600052603260045260246000fd5b90600052602060002001549050806009838154811061365f577f4e487b7100000000000000000000000000000000000000000000000000000000600052603260045260246000fd5b906000526020600020018190555081600a600083815260200190815260200160002081905550600a60008581526020019081526020016000206000905560098054806136d4577f4e487b7100000000000000000000000000000000000000000000000000000000600052603160045260246000fd5b6001900381819060005260206000200160009055905550505050565b60006136fb83611430565b905081600760008573ffffffffffffffffffffffffffffffffffffffff1673ffffffffffffffffffffffffffffffffffffffff168152602001908152602001600020600083815260200190815260200160002081905550806008600084815260200190815260200160002081905550505050565b82805461377b9061489b565b90600052602060002090601f01602090048101928261379d57600085556137e4565b82601f106137b657805160ff19168380011785556137e4565b828001600101855582156137e4579182015b828111156137e35782518255916020019190600101906137c8565b5b5090506137f1919061387b565b5090565b8280546138019061489b565b90600052602060002090601f016020900481019282613823576000855561386a565b82601f1061383c57803560ff191683800117855561386a565b8280016001018555821561386a579182015b8281111561386957823582559160200191906001019061384e565b5b509050613877919061387b565b5090565b5b8082111561389457600081600090555060010161387c565b5090565b60006138ab6138a684614635565b614610565b9050828152602081018484840111156138c357600080fd5b6138ce848285614859565b509392505050565b6000813590506138e581614fc2565b92915050565b6000813590506138fa81614fd9565b92915050565b60008135905061390f81614ff0565b92915050565b60008135905061392481615007565b92915050565b60008151905061393981615007565b92915050565b600082601f83011261395057600080fd5b8135613960848260208601613898565b91505092915050565b60008083601f84011261397b57600080fd5b8235905067ffffffffffffffff81111561399457600080fd5b6020830191508360018202830111156139ac57600080fd5b9250929050565b6000813590506139c28161501e565b92915050565b6000602082840312156139da57600080fd5b60006139e8848285016138d6565b91505092915050565b600060208284031215613a0357600080fd5b6000613a11848285016138eb565b91505092915050565b60008060408385031215613a2d57600080fd5b6000613a3b858286016138d6565b9250506020613a4c858286016138d6565b9150509250929050565b600080600060608486031215613a6b57600080fd5b6000613a79868287016138d6565b9350506020613a8a868287016138d6565b9250506040613a9b868287016139b3565b9150509250925092565b60008060008060808587031215613abb57600080fd5b6000613ac9878288016138d6565b9450506020613ada878288016138d6565b9350506040613aeb878288016139b3565b925050606085013567ffffffffffffffff811115613b0857600080fd5b613b148782880161393f565b91505092959194509250565b60008060408385031215613b3357600080fd5b6000613b41858286016138d6565b9250506020613b5285828601613900565b9150509250929050565b600080600060408486031215613b7157600080fd5b6000613b7f868287016138d6565b935050602084013567ffffffffffffffff811115613b9c57600080fd5b613ba886828701613969565b92509250509250925092565b60008060408385031215613bc757600080fd5b6000613bd5858286016138d6565b9250506020613be6858286016139b3565b9150509250929050565b600060208284031215613c0257600080fd5b6000613c1084828501613915565b91505092915050565b600060208284031215613c2b57600080fd5b6000613c398482850161392a565b91505092915050565b600060208284031215613c5457600080fd5b6000613c62848285016139b3565b91505092915050565b613c74816147d3565b82525050565b613c83816147f7565b82525050565b6000613c948261467b565b613c9e8185614691565b9350613cae818560208601614868565b613cb781614a34565b840191505092915050565b6000613ccd82614686565b613cd781856146a2565b9350613ce7818560208601614868565b613cf081614a34565b840191505092915050565b6000613d0682614686565b613d1081856146b3565b9350613d20818560208601614868565b80840191505092915050565b60008154613d398161489b565b613d4381866146b3565b94506001821660008114613d5e5760018114613d6f57613da2565b60ff19831686528186019350613da2565b613d7885614666565b60005b83811015613d9a57815481890152600182019150602081019050613d7b565b838801955050505b50505092915050565b6000613db86014836146a2565b9150613dc382614a45565b602082019050919050565b6000613ddb6036836146b3565b9150613de682614a6e565b603682019050919050565b6000613dfe602b836146a2565b9150613e0982614abd565b604082019050919050565b6000613e216032836146a2565b9150613e2c82614b0c565b604082019050919050565b6000613e446026836146a2565b9150613e4f82614b5b565b604082019050919050565b6000613e67601c836146a2565b9150613e7282614baa565b602082019050919050565b6000613e8a600f836146a2565b9150613e9582614bd3565b602082019050919050565b6000613ead6019836146a2565b9150613eb882614bfc565b602082019050919050565b6000613ed06012836146a2565b9150613edb82614c25565b602082019050919050565b6000613ef36038836146a2565b9150613efe82614c4e565b604082019050919050565b6000613f16602a836146a2565b9150613f2182614c9d565b604082019050919050565b6000613f396029836146a2565b9150613f4482614cec565b604082019050919050565b6000613f5c6002836146b3565b9150613f6782614d3b565b600282019050919050565b6000613f7f6007836146b3565b9150613f8a82614d64565b600782019050919050565b6000613fa26020836146a2565b9150613fad82614d8d565b602082019050919050565b6000613fc56010836146b3565b9150613fd082614db6565b601082019050919050565b6000613fe8602c836146a2565b9150613ff382614ddf565b604082019050919050565b600061400b6009836146a2565b915061401682614e2e565b602082019050919050565b600061402e6020836146a2565b915061403982614e57565b602082019050919050565b60006140516010836146b3565b915061405c82614e80565b601082019050919050565b60006140746021836146a2565b915061407f82614ea9565b604082019050919050565b60006140976013836146b3565b91506140a282614ef8565b601382019050919050565b60006140ba602c836146a2565b91506140c582614f21565b604082019050919050565b60006140dd601a836146a2565b91506140e882614f70565b602082019050919050565b60006141006011836146a2565b915061410b82614f99565b602082019050919050565b61411f8161484f565b82525050565b60006141318285613cfb565b915061413d8284613cfb565b91508190509392505050565b60006141558286613cfb565b91506141618285613cfb565b915061416d8284613cfb565b9150819050949350505050565b60006141868285613cfb565b91506141928284613d2c565b915061419d82613f72565b91508190509392505050565b60006141b58285613cfb565b91506141c082613dce565b91506141cc8284613cfb565b91506141d782613f72565b91508190509392505050565b60006141ef8286613cfb565b91506141fa82614044565b91506142068285613cfb565b915061421182613fb8565b915061421d8284613d2c565b915061422882613f72565b9150819050949350505050565b60006142408261408a565b915061424c8287613cfb565b91506142588286613cfb565b91506142648285613cfb565b91506142708284613cfb565b915061427b82613f4f565b915081905095945050505050565b600060208201905061429e6000830184613c6b565b92915050565b60006080820190506142b96000830187613c6b565b6142c66020830186613c6b565b6142d36040830185614116565b81810360608301526142e58184613c89565b905095945050505050565b60006020820190506143056000830184613c7a565b92915050565b600060c0820190506143206000830189613c7a565b61432d6020830188613c7a565b61433a6040830187614116565b6143476060830186613c7a565b81810360808301526143598185613cc2565b905061436860a0830184614116565b979650505050505050565b6000602082019050818103600083015261438d8184613cc2565b905092915050565b600060208201905081810360008301526143ae81613dab565b9050919050565b600060208201905081810360008301526143ce81613df1565b9050919050565b600060208201905081810360008301526143ee81613e14565b9050919050565b6000602082019050818103600083015261440e81613e37565b9050919050565b6000602082019050818103600083015261442e81613e5a565b9050919050565b6000602082019050818103600083015261444e81613e7d565b9050919050565b6000602082019050818103600083015261446e81613ea0565b9050919050565b6000602082019050818103600083015261448e81613ec3565b9050919050565b600060208201905081810360008301526144ae81613ee6565b9050919050565b600060208201905081810360008301526144ce81613f09565b9050919050565b600060208201905081810360008301526144ee81613f2c565b9050919050565b6000602082019050818103600083015261450e81613f95565b9050919050565b6000602082019050818103600083015261452e81613fdb565b9050919050565b6000602082019050818103600083015261454e81613ffe565b9050919050565b6000602082019050818103600083015261456e81614021565b9050919050565b6000602082019050818103600083015261458e81614067565b9050919050565b600060208201905081810360008301526145ae816140ad565b9050919050565b600060208201905081810360008301526145ce816140d0565b9050919050565b600060208201905081810360008301526145ee816140f3565b9050919050565b600060208201905061460a6000830184614116565b92915050565b600061461a61462b565b905061462682826148cd565b919050565b6000604051905090565b600067ffffffffffffffff8211156146505761464f614a05565b5b61465982614a34565b9050602081019050919050565b60008190508160005260206000209050919050565b600081519050919050565b600081519050919050565b600082825260208201905092915050565b600082825260208201905092915050565b600081905092915050565b60006146c98261484f565b91506146d48361484f565b9250827fffffffffffffffffffffffffffffffffffffffffffffffffffffffffffffffff0382111561470957614708614978565b5b828201905092915050565b600061471f8261484f565b915061472a8361484f565b92508261473a576147396149a7565b5b828204905092915050565b60006147508261484f565b915061475b8361484f565b9250817fffffffffffffffffffffffffffffffffffffffffffffffffffffffffffffffff048311821515161561479457614793614978565b5b828202905092915050565b60006147aa8261484f565b91506147b58361484f565b9250828210156147c8576147c7614978565b5b828203905092915050565b60006147de8261482f565b9050919050565b60006147f08261482f565b9050919050565b60008115159050919050565b60007fffffffff0000000000000000000000000000000000000000000000000000000082169050919050565b600073ffffffffffffffffffffffffffffffffffffffff82169050919050565b6000819050919050565b82818337600083830152505050565b60005b8381101561488657808201518184015260208101905061486b565b83811115614895576000848401525b50505050565b600060028204905060018216806148b357607f821691505b602082108114156148c7576148c66149d6565b5b50919050565b6148d682614a34565b810181811067ffffffffffffffff821117156148f5576148f4614a05565b5b80604052505050565b60006149098261484f565b91507fffffffffffffffffffffffffffffffffffffffffffffffffffffffffffffffff82141561493c5761493b614978565b5b600182019050919050565b60006149528261484f565b915061495d8361484f565b92508261496d5761496c6149a7565b5b828206905092915050565b7f4e487b7100000000000000000000000000000000000000000000000000000000600052601160045260246000fd5b7f4e487b7100000000000000000000000000000000000000000000000000000000600052601260045260246000fd5b7f4e487b7100000000000000000000000000000000000000000000000000000000600052602260045260246000fd5b7f4e487b7100000000000000000000000000000000000000000000000000000000600052604160045260246000fd5b6000601f19601f8301169050919050565b7f746f6b656e207772697465206e6f742066726565000000000000000000000000600082015250565b7f3c7465787420783d2232302220793d223338322220636c6173733d227072696360008201527f65223e57726974652050726963652028776569293a2000000000000000000000602082015250565b7f455243373231456e756d657261626c653a206f776e657220696e646578206f7560008201527f74206f6620626f756e6473000000000000000000000000000000000000000000602082015250565b7f4552433732313a207472616e7366657220746f206e6f6e20455243373231526560008201527f63656976657220696d706c656d656e7465720000000000000000000000000000602082015250565b7f4f776e61626c653a206e6577206f776e657220697320746865207a65726f206160008201527f6464726573730000000000000000000000000000000000000000000000000000602082015250565b7f4552433732313a20746f6b656e20616c7265616479206d696e74656400000000600082015250565b7f616c726561647920636c61696d65640000000000000000000000000000000000600082015250565b7f4552433732313a20617070726f766520746f2063616c6c657200000000000000600082015250565b7f6e6f2065746820746f2077697468647261770000000000000000000000000000600082015250565b7f4552433732313a20617070726f76652063616c6c6572206973206e6f74206f7760008201527f6e6572206e6f7220617070726f76656420666f7220616c6c0000000000000000602082015250565b7f4552433732313a2062616c616e636520717565727920666f7220746865207a6560008201527f726f206164647265737300000000000000000000000000000000000000000000602082015250565b7f4552433732313a206f776e657220717565727920666f72206e6f6e657869737460008201527f656e7420746f6b656e0000000000000000000000000000000000000000000000602082015250565b7f227d000000000000000000000000000000000000000000000000000000000000600082015250565b7f3c2f746578743e00000000000000000000000000000000000000000000000000600082015250565b7f4552433732313a206d696e7420746f20746865207a65726f2061646472657373600082015250565b7f2220636c6173733d2262617365223e3e00000000000000000000000000000000600082015250565b7f4552433732313a20617070726f76656420717565727920666f72206e6f6e657860008201527f697374656e7420746f6b656e0000000000000000000000000000000000000000602082015250565b7f6e6f7420796f7572730000000000000000000000000000000000000000000000600082015250565b7f4f776e61626c653a2063616c6c6572206973206e6f7420746865206f776e6572600082015250565b7f3c7465787420783d2232302220793d2200000000000000000000000000000000600082015250565b7f4552433732313a20617070726f76616c20746f2063757272656e74206f776e6560008201527f7200000000000000000000000000000000000000000000000000000000000000602082015250565b7f7b226e616d65223a20224d657373616765202300000000000000000000000000600082015250565b7f455243373231456e756d657261626c653a20676c6f62616c20696e646578206f60008201527f7574206f6620626f756e64730000000000000000000000000000000000000000602082015250565b7f7472616e73666572696e67206973206e6f7420616c6c6f776564000000000000600082015250565b7f6e6f7420656e6f7567682c206368756d70000000000000000000000000000000600082015250565b614fcb816147d3565b8114614fd657600080fd5b50565b614fe2816147e5565b8114614fed57600080fd5b50565b614ff9816147f7565b811461500457600080fd5b50565b61501081614803565b811461501b57600080fd5b50565b6150278161484f565b811461503257600080fd5b5056fe22696d616765223a2022646174613a696d6167652f7376672b786d6c3b6261736536342c4142434445464748494a4b4c4d4e4f505152535455565758595a6162636465666768696a6b6c6d6e6f707172737475767778797a303132333435363738392b2f3c726563742077696474683d223130302522206865696768743d2231303025222066696c6c3d226e6f6e6522207374726f6b653d2264696d6772657922207374726f6b652d77696474683d223230222072783d223230222072793d223230222f3e3c636972636c652063783d223230222063793d223339352220723d2233222066696c6c3d223c73766720786d6c6e733d22687474703a2f2f7777772e77332e6f72672f323030302f73766722207072657365727665417370656374526174696f3d22784d696e594d696e206d656574222076696577426f783d223020302034303020343030222077696474683d2238303022206865696768743d22383030223e3c7374796c653e2e686561646572207b66696c6c3a234130443538413b666f6e742d66616d696c793a206d6f6e6f73706163653b20666f6e742d73697a653a20323070783b7d202e62617365207b2066696c6c3a234130443538413b666f6e742d66616d696c793a206d6f6e6f73706163653b20666f6e742d73697a653a20313570783b207d202e7072696365207b2066696c6c3a7265643b666f6e742d66616d696c793a206d6f6e6f73706163653b20666f6e742d73697a653a203770783b207d3c2f7374796c653e3c7265637420793d2238222077696474683d223130302522206865696768743d2231303025222f3e3c7465787420783d2232302220793d2233302220636c6173733d22686561646572223e222c20226465736372697074696f6e223a20224c65646765724d652069732061207075626c6963206c656467657220666f722077616c6c657420746f2077616c6c657420636f6d6d756e69636174696f6e732e2020557365207769746820636172652e222ca26469706673582212206743d66532354a31e1d4a19e1e571e9dab56e24d787a44a097133f16de7919d264736f6c63430008040033",
  "linkReferences": {},
  "deployedLinkReferences": {}
}